{"contracts/CarbonCredit1155.sol":{"CarbonCredit1155":{"abi":[{"inputs":[{"internalType":"string","name":"baseURI","type":"string"}],"stateMutability":"nonpayable","type":"constructor"},{"inputs":[],"name":"AccessControlBadConfirmation","type":"error"},{"inputs":[{"internalType":"address","name":"account","type":"address"},{"internalType":"bytes32","name":"neededRole","type":"bytes32"}],"name":"AccessControlUnauthorizedAccount","type":"error"},{"inputs":[{"internalType":"address","name":"sender","type":"address"},{"internalType":"uint256","name":"balance","type":"uint256"},{"internalType":"uint256","name":"needed","type":"uint256"},{"internalType":"uint256","name":"tokenId","type":"uint256"}],"name":"ERC1155InsufficientBalance","type":"error"},{"inputs":[{"internalType":"address","name":"approver","type":"address"}],"name":"ERC1155InvalidApprover","type":"error"},{"inputs":[{"internalType":"uint256","name":"idsLength","type":"uint256"},{"internalType":"uint256","name":"valuesLength","type":"uint256"}],"name":"ERC1155InvalidArrayLength","type":"error"},{"inputs":[{"internalType":"address","name":"operator","type":"address"}],"name":"ERC1155InvalidOperator","type":"error"},{"inputs":[{"internalType":"address","name":"receiver","type":"address"}],"name":"ERC1155InvalidReceiver","type":"error"},{"inputs":[{"internalType":"address","name":"sender","type":"address"}],"name":"ERC1155InvalidSender","type":"error"},{"inputs":[{"internalType":"address","name":"operator","type":"address"},{"internalType":"address","name":"owner","type":"address"}],"name":"ERC1155MissingApprovalForAll","type":"error"},{"inputs":[],"name":"EnforcedPause","type":"error"},{"inputs":[],"name":"ExpectedPause","type":"error"},{"anonymous":false,"inputs":[{"indexed":true,"internalType":"address","name":"account","type":"address"},{"indexed":true,"internalType":"address","name":"operator","type":"address"},{"indexed":false,"internalType":"bool","name":"approved","type":"bool"}],"name":"ApprovalForAll","type":"event"},{"anonymous":false,"inputs":[{"indexed":false,"internalType":"address","name":"account","type":"address"}],"name":"Paused","type":"event"},{"anonymous":false,"inputs":[{"indexed":true,"internalType":"address","name":"account","type":"address"},{"indexed":true,"internalType":"uint256","name":"id","type":"uint256"},{"indexed":false,"internalType":"uint256","name":"amount","type":"uint256"},{"indexed":false,"internalType":"string","name":"reason","type":"string"},{"indexed":false,"internalType":"uint256","name":"timestamp","type":"uint256"}],"name":"Retired","type":"event"},{"anonymous":false,"inputs":[{"indexed":true,"internalType":"bytes32","name":"role","type":"bytes32"},{"indexed":true,"internalType":"bytes32","name":"previousAdminRole","type":"bytes32"},{"indexed":true,"internalType":"bytes32","name":"newAdminRole","type":"bytes32"}],"name":"RoleAdminChanged","type":"event"},{"anonymous":false,"inputs":[{"indexed":true,"internalType":"bytes32","name":"role","type":"bytes32"},{"indexed":true,"internalType":"address","name":"account","type":"address"},{"indexed":true,"internalType":"address","name":"sender","type":"address"}],"name":"RoleGranted","type":"event"},{"anonymous":false,"inputs":[{"indexed":true,"internalType":"bytes32","name":"role","type":"bytes32"},{"indexed":true,"internalType":"address","name":"account","type":"address"},{"indexed":true,"internalType":"address","name":"sender","type":"address"}],"name":"RoleRevoked","type":"event"},{"anonymous":false,"inputs":[{"indexed":true,"internalType":"address","name":"operator","type":"address"},{"indexed":true,"internalType":"address","name":"from","type":"address"},{"indexed":true,"internalType":"address","name":"to","type":"address"},{"indexed":false,"internalType":"uint256[]","name":"ids","type":"uint256[]"},{"indexed":false,"internalType":"uint256[]","name":"values","type":"uint256[]"}],"name":"TransferBatch","type":"event"},{"anonymous":false,"inputs":[{"indexed":true,"internalType":"address","name":"operator","type":"address"},{"indexed":true,"internalType":"address","name":"from","type":"address"},{"indexed":true,"internalType":"address","name":"to","type":"address"},{"indexed":false,"internalType":"uint256","name":"id","type":"uint256"},{"indexed":false,"internalType":"uint256","name":"value","type":"uint256"}],"name":"TransferSingle","type":"event"},{"anonymous":false,"inputs":[{"indexed":false,"internalType":"string","name":"value","type":"string"},{"indexed":true,"internalType":"uint256","name":"id","type":"uint256"}],"name":"URI","type":"event"},{"anonymous":false,"inputs":[{"indexed":false,"internalType":"address","name":"account","type":"address"}],"name":"Unpaused","type":"event"},{"inputs":[],"name":"ADMIN_ROLE","outputs":[{"internalType":"bytes32","name":"","type":"bytes32"}],"stateMutability":"view","type":"function"},{"inputs":[],"name":"BURNER_ROLE","outputs":[{"internalType":"bytes32","name":"","type":"bytes32"}],"stateMutability":"view","type":"function"},{"inputs":[],"name":"DEFAULT_ADMIN_ROLE","outputs":[{"internalType":"bytes32","name":"","type":"bytes32"}],"stateMutability":"view","type":"function"},{"inputs":[],"name":"MINTER_ROLE","outputs":[{"internalType":"bytes32","name":"","type":"bytes32"}],"stateMutability":"view","type":"function"},{"inputs":[{"internalType":"address","name":"account","type":"address"},{"internalType":"uint256","name":"id","type":"uint256"}],"name":"balanceOf","outputs":[{"internalType":"uint256","name":"","type":"uint256"}],"stateMutability":"view","type":"function"},{"inputs":[{"internalType":"address[]","name":"accounts","type":"address[]"},{"internalType":"uint256[]","name":"ids","type":"uint256[]"}],"name":"balanceOfBatch","outputs":[{"internalType":"uint256[]","name":"","type":"uint256[]"}],"stateMutability":"view","type":"function"},{"inputs":[{"internalType":"address","name":"from","type":"address"},{"internalType":"uint256","name":"id","type":"uint256"},{"internalType":"uint256","name":"amount","type":"uint256"},{"internalType":"string","name":"reason","type":"string"}],"name":"forceRetire","outputs":[],"stateMutability":"nonpayable","type":"function"},{"inputs":[{"internalType":"bytes32","name":"role","type":"bytes32"}],"name":"getRoleAdmin","outputs":[{"internalType":"bytes32","name":"","type":"bytes32"}],"stateMutability":"view","type":"function"},{"inputs":[{"internalType":"bytes32","name":"role","type":"bytes32"},{"internalType":"address","name":"account","type":"address"}],"name":"grantRole","outputs":[],"stateMutability":"nonpayable","type":"function"},{"inputs":[{"internalType":"bytes32","name":"role","type":"bytes32"},{"internalType":"address","name":"account","type":"address"}],"name":"hasRole","outputs":[{"internalType":"bool","name":"","type":"bool"}],"stateMutability":"view","type":"function"},{"inputs":[{"internalType":"address","name":"account","type":"address"},{"internalType":"address","name":"operator","type":"address"}],"name":"isApprovedForAll","outputs":[{"internalType":"bool","name":"","type":"bool"}],"stateMutability":"view","type":"function"},{"inputs":[{"internalType":"address","name":"to","type":"address"},{"internalType":"uint256","name":"id","type":"uint256"},{"internalType":"uint256","name":"amount","type":"uint256"},{"internalType":"bytes","name":"data","type":"bytes"}],"name":"mint","outputs":[],"stateMutability":"nonpayable","type":"function"},{"inputs":[{"internalType":"address","name":"to","type":"address"},{"internalType":"uint256[]","name":"ids","type":"uint256[]"},{"internalType":"uint256[]","name":"amounts","type":"uint256[]"},{"internalType":"bytes","name":"data","type":"bytes"}],"name":"mintBatch","outputs":[],"stateMutability":"nonpayable","type":"function"},{"inputs":[],"name":"pause","outputs":[],"stateMutability":"nonpayable","type":"function"},{"inputs":[],"name":"paused","outputs":[{"internalType":"bool","name":"","type":"bool"}],"stateMutability":"view","type":"function"},{"inputs":[{"internalType":"bytes32","name":"role","type":"bytes32"},{"internalType":"address","name":"callerConfirmation","type":"address"}],"name":"renounceRole","outputs":[],"stateMutability":"nonpayable","type":"function"},{"inputs":[{"internalType":"uint256","name":"id","type":"uint256"},{"internalType":"uint256","name":"amount","type":"uint256"},{"internalType":"string","name":"reason","type":"string"}],"name":"retire","outputs":[],"stateMutability":"nonpayable","type":"function"},{"inputs":[{"internalType":"bytes32","name":"role","type":"bytes32"},{"internalType":"address","name":"account","type":"address"}],"name":"revokeRole","outputs":[],"stateMutability":"nonpayable","type":"function"},{"inputs":[{"internalType":"address","name":"from","type":"address"},{"internalType":"address","name":"to","type":"address"},{"internalType":"uint256[]","name":"ids","type":"uint256[]"},{"internalType":"uint256[]","name":"values","type":"uint256[]"},{"internalType":"bytes","name":"data","type":"bytes"}],"name":"safeBatchTransferFrom","outputs":[],"stateMutability":"nonpayable","type":"function"},{"inputs":[{"internalType":"address","name":"from","type":"address"},{"internalType":"address","name":"to","type":"address"},{"internalType":"uint256","name":"id","type":"uint256"},{"internalType":"uint256","name":"value","type":"uint256"},{"internalType":"bytes","name":"data","type":"bytes"}],"name":"safeTransferFrom","outputs":[],"stateMutability":"nonpayable","type":"function"},{"inputs":[{"internalType":"address","name":"operator","type":"address"},{"internalType":"bool","name":"approved","type":"bool"}],"name":"setApprovalForAll","outputs":[],"stateMutability":"nonpayable","type":"function"},{"inputs":[{"internalType":"uint256","name":"id","type":"uint256"},{"internalType":"string","name":"tokenURI_","type":"string"}],"name":"setTokenURI","outputs":[],"stateMutability":"nonpayable","type":"function"},{"inputs":[{"internalType":"string","name":"newuri","type":"string"}],"name":"setURI","outputs":[],"stateMutability":"nonpayable","type":"function"},{"inputs":[{"internalType":"bytes4","name":"interfaceId","type":"bytes4"}],"name":"supportsInterface","outputs":[{"internalType":"bool","name":"","type":"bool"}],"stateMutability":"view","type":"function"},{"inputs":[],"name":"unpause","outputs":[],"stateMutability":"nonpayable","type":"function"},{"inputs":[{"internalType":"uint256","name":"id","type":"uint256"}],"name":"uri","outputs":[{"internalType":"string","name":"","type":"string"}],"stateMutability":"view","type":"function"}],"evm":{"bytecode":{"linkReferences":{},"object":"60806040523480156200001157600080fd5b5060405162003e4d38038062003e4d83398181016040528101906200003791906200041f565b8062000049816200010060201b60201c565b506200005f6000801b336200011560201b60201c565b50620000927fa49807205ce4d355092ef5a8a18f56e8913cf4a201fbe287825b095693c21775336200011560201b60201c565b50620000c57f9f2df0fed2c77648de5860a4cc508cd0818c85b8b8a1ab4ceeef8d981c8956a6336200011560201b60201c565b50620000f87f3c11d16cbaffd01df69ce1c404f6340ee057498f5f00246190ea54220576a848336200011560201b60201c565b5050620007a2565b8060029081620001119190620006bb565b5050565b60006200012983836200021960201b60201c565b6200020e5760016004600085815260200190815260200160002060000160008473ffffffffffffffffffffffffffffffffffffffff1673ffffffffffffffffffffffffffffffffffffffff16815260200190815260200160002060006101000a81548160ff021916908315150217905550620001aa6200028460201b60201c565b73ffffffffffffffffffffffffffffffffffffffff168273ffffffffffffffffffffffffffffffffffffffff16847f2f8788117e7eff1d82e926ec794901d17c78024a50270940304540a733656f0d60405160405180910390a46001905062000213565b600090505b92915050565b60006004600084815260200190815260200160002060000160008373ffffffffffffffffffffffffffffffffffffffff1673ffffffffffffffffffffffffffffffffffffffff16815260200190815260200160002060009054906101000a900460ff16905092915050565b600033905090565b6000604051905090565b600080fd5b600080fd5b600080fd5b600080fd5b6000601f19601f8301169050919050565b7f4e487b7100000000000000000000000000000000000000000000000000000000600052604160045260246000fd5b620002f582620002aa565b810181811067ffffffffffffffff82111715620003175762000316620002bb565b5b80604052505050565b60006200032c6200028c565b90506200033a8282620002ea565b919050565b600067ffffffffffffffff8211156200035d576200035c620002bb565b5b6200036882620002aa565b9050602081019050919050565b60005b838110156200039557808201518184015260208101905062000378565b60008484015250505050565b6000620003b8620003b2846200033f565b62000320565b905082815260208101848484011115620003d757620003d6620002a5565b5b620003e484828562000375565b509392505050565b600082601f830112620004045762000403620002a0565b5b815162000416848260208601620003a1565b91505092915050565b60006020828403121562000438576200043762000296565b5b600082015167ffffffffffffffff8111156200045957620004586200029b565b5b6200046784828501620003ec565b91505092915050565b600081519050919050565b7f4e487b7100000000000000000000000000000000000000000000000000000000600052602260045260246000fd5b60006002820490506001821680620004c357607f821691505b602082108103620004d957620004d86200047b565b5b50919050565b60008190508160005260206000209050919050565b60006020601f8301049050919050565b600082821b905092915050565b600060088302620005437fffffffffffffffffffffffffffffffffffffffffffffffffffffffffffffffff8262000504565b6200054f868362000504565b95508019841693508086168417925050509392505050565b6000819050919050565b6000819050919050565b60006200059c62000596620005908462000567565b62000571565b62000567565b9050919050565b6000819050919050565b620005b8836200057b565b620005d0620005c782620005a3565b84845462000511565b825550505050565b600090565b620005e7620005d8565b620005f4818484620005ad565b505050565b5b818110156200061c5762000610600082620005dd565b600181019050620005fa565b5050565b601f8211156200066b576200063581620004df565b6200064084620004f4565b8101602085101562000650578190505b620006686200065f85620004f4565b830182620005f9565b50505b505050565b600082821c905092915050565b6000620006906000198460080262000670565b1980831691505092915050565b6000620006ab83836200067d565b9150826002028217905092915050565b620006c68262000470565b67ffffffffffffffff811115620006e257620006e1620002bb565b5b620006ee8254620004aa565b620006fb82828562000620565b600060209050601f8311600181146200073357600084156200071e578287015190505b6200072a85826200069d565b8655506200079a565b601f1984166200074386620004df565b60005b828110156200076d5784890151825560018201915060208501945060208101905062000746565b868310156200078d578489015162000789601f8916826200067d565b8355505b6001600288020188555050505b505050505050565b61369b80620007b26000396000f3fe608060405234801561001057600080fd5b506004361061018d5760003560e01c80634e1273f4116100de578063a217fddf11610097578063d547741f11610071578063d547741f14610458578063e985e9c514610474578063f242432a146104a4578063f4788ec1146104c05761018d565b8063a217fddf14610400578063a22cb4651461041e578063d53913931461043a5761018d565b80634e1273f41461033e5780635c975abb1461036e578063731133e91461038c57806375b238fc146103a85780638456cb59146103c657806391d14854146103d05761018d565b8063248a9ca31161014b5780632f2ff15d116101255780632f2ff15d146102e057806336568abe146102fc578063376e09b4146103185780633f4ba83a146103345761018d565b8063248a9ca314610276578063282c51f3146102a65780632eb2c2d6146102c45761018d565b8062fdd58e1461019257806301ffc9a7146101c257806302fe5305146101f25780630e89341c1461020e578063162094c41461023e5780631f7fdffa1461025a575b600080fd5b6101ac60048036038101906101a791906121ed565b6104dc565b6040516101b9919061223c565b60405180910390f35b6101dc60048036038101906101d791906122af565b610536565b6040516101e991906122f7565b60405180910390f35b61020c60048036038101906102079190612458565b610548565b005b610228600480360381019061022391906124a1565b61057f565b604051610235919061254d565b60405180910390f35b610258600480360381019061025391906125cf565b610646565b005b610274600480360381019061026f9190612793565b6106d3565b005b610290600480360381019061028b9190612884565b610718565b60405161029d91906128c0565b60405180910390f35b6102ae610738565b6040516102bb91906128c0565b60405180910390f35b6102de60048036038101906102d991906128db565b61075c565b005b6102fa60048036038101906102f591906129aa565b610804565b005b610316600480360381019061031191906129aa565b610826565b005b610332600480360381019061032d91906129ea565b6108a1565b005b61033c61093b565b005b61035860048036038101906103539190612b35565b610970565b6040516103659190612c6b565b60405180910390f35b610376610a7f565b60405161038391906122f7565b60405180910390f35b6103a660048036038101906103a19190612c8d565b610a96565b005b6103b0610adb565b6040516103bd91906128c0565b60405180910390f35b6103ce610aff565b005b6103ea60048036038101906103e591906129aa565b610b34565b6040516103f791906122f7565b60405180910390f35b610408610b9f565b60405161041591906128c0565b60405180910390f35b61043860048036038101906104339190612d3c565b610ba6565b005b610442610bbc565b60405161044f91906128c0565b60405180910390f35b610472600480360381019061046d91906129aa565b610be0565b005b61048e60048036038101906104899190612d7c565b610c02565b60405161049b91906122f7565b60405180910390f35b6104be60048036038101906104b99190612dbc565b610c96565b005b6104da60048036038101906104d59190612e53565b610d3e565b005b600080600083815260200190815260200160002060008473ffffffffffffffffffffffffffffffffffffffff1673ffffffffffffffffffffffffffffffffffffffff16815260200190815260200160002054905092915050565b600061054182610dba565b9050919050565b7fa49807205ce4d355092ef5a8a18f56e8913cf4a201fbe287825b095693c2177561057281610e34565b61057b82610e48565b5050565b606060006005600084815260200190815260200160002080546105a190612ef6565b80601f01602080910402602001604051908101604052809291908181526020018280546105cd90612ef6565b801561061a5780601f106105ef5761010080835404028352916020019161061a565b820191906000526020600020905b8154815290600101906020018083116105fd57829003601f168201915b505050505090506000815111156106345780915050610641565b61063d83610e5b565b9150505b919050565b7fa49807205ce4d355092ef5a8a18f56e8913cf4a201fbe287825b095693c2177561067081610e34565b82826005600087815260200190815260200160002091826106929291906130de565b50837f6bb7ff708619ba0610cba295a58592e0451dee2622938c8755667688daf3529b84846040516106c59291906131db565b60405180910390a250505050565b7f9f2df0fed2c77648de5860a4cc508cd0818c85b8b8a1ab4ceeef8d981c8956a66106fd81610e34565b610705610eef565b61071185858585610f30565b5050505050565b600060046000838152602001908152602001600020600101549050919050565b7f3c11d16cbaffd01df69ce1c404f6340ee057498f5f00246190ea54220576a84881565b6000610766610fb6565b90508073ffffffffffffffffffffffffffffffffffffffff168673ffffffffffffffffffffffffffffffffffffffff16141580156107ab57506107a98682610c02565b155b156107ef5780866040517fe237d9220000000000000000000000000000000000000000000000000000000081526004016107e692919061320e565b60405180910390fd5b6107fc8686868686610fbe565b505050505050565b61080d82610718565b61081681610e34565b61082083836110b6565b50505050565b61082e610fb6565b73ffffffffffffffffffffffffffffffffffffffff168173ffffffffffffffffffffffffffffffffffffffff1614610892576040517f6697b23200000000000000000000000000000000000000000000000000000000815260040160405180910390fd5b61089c82826111a8565b505050565b6108a9610eef565b7f3c11d16cbaffd01df69ce1c404f6340ee057498f5f00246190ea54220576a8486108d381610e34565b6108de86868661129b565b848673ffffffffffffffffffffffffffffffffffffffff167fce1f4e6c006f3b3ee890dde9d4b5879ddb9f2256c15394f087298ce6ffd3d60c8686864260405161092b9493929190613237565b60405180910390a3505050505050565b7fa49807205ce4d355092ef5a8a18f56e8913cf4a201fbe287825b095693c2177561096581610e34565b61096d611342565b50565b606081518351146109bc57815183516040517f5b0599910000000000000000000000000000000000000000000000000000000081526004016109b3929190613277565b60405180910390fd5b6000835167ffffffffffffffff8111156109d9576109d861232d565b5b604051908082528060200260200182016040528015610a075781602001602082028036833780820191505090505b50905060005b8451811015610a7457610a44610a2c82876113a590919063ffffffff16565b610a3f83876113b990919063ffffffff16565b6104dc565b828281518110610a5757610a566132a0565b5b60200260200101818152505080610a6d906132fe565b9050610a0d565b508091505092915050565b6000600360009054906101000a900460ff16905090565b7f9f2df0fed2c77648de5860a4cc508cd0818c85b8b8a1ab4ceeef8d981c8956a6610ac081610e34565b610ac8610eef565b610ad4858585856113cd565b5050505050565b7fa49807205ce4d355092ef5a8a18f56e8913cf4a201fbe287825b095693c2177581565b7fa49807205ce4d355092ef5a8a18f56e8913cf4a201fbe287825b095693c21775610b2981610e34565b610b31611466565b50565b60006004600084815260200190815260200160002060000160008373ffffffffffffffffffffffffffffffffffffffff1673ffffffffffffffffffffffffffffffffffffffff16815260200190815260200160002060009054906101000a900460ff16905092915050565b6000801b81565b610bb8610bb1610fb6565b83836114c9565b5050565b7f9f2df0fed2c77648de5860a4cc508cd0818c85b8b8a1ab4ceeef8d981c8956a681565b610be982610718565b610bf281610e34565b610bfc83836111a8565b50505050565b6000600160008473ffffffffffffffffffffffffffffffffffffffff1673ffffffffffffffffffffffffffffffffffffffff16815260200190815260200160002060008373ffffffffffffffffffffffffffffffffffffffff1673ffffffffffffffffffffffffffffffffffffffff16815260200190815260200160002060009054906101000a900460ff16905092915050565b6000610ca0610fb6565b90508073ffffffffffffffffffffffffffffffffffffffff168673ffffffffffffffffffffffffffffffffffffffff1614158015610ce55750610ce38682610c02565b155b15610d295780866040517fe237d922000000000000000000000000000000000000000000000000000000008152600401610d2092919061320e565b60405180910390fd5b610d368686868686611639565b505050505050565b610d46610eef565b610d58610d51610fb6565b858561129b565b83610d61610fb6565b73ffffffffffffffffffffffffffffffffffffffff167fce1f4e6c006f3b3ee890dde9d4b5879ddb9f2256c15394f087298ce6ffd3d60c85858542604051610dac9493929190613237565b60405180910390a350505050565b60007f7965db0b000000000000000000000000000000000000000000000000000000007bffffffffffffffffffffffffffffffffffffffffffffffffffffffff1916827bffffffffffffffffffffffffffffffffffffffffffffffffffffffff19161480610e2d5750610e2c82611744565b5b9050919050565b610e4581610e40610fb6565b611826565b50565b8060029081610e579190613346565b5050565b606060028054610e6a90612ef6565b80601f0160208091040260200160405190810160405280929190818152602001828054610e9690612ef6565b8015610ee35780601f10610eb857610100808354040283529160200191610ee3565b820191906000526020600020905b815481529060010190602001808311610ec657829003601f168201915b50505050509050919050565b610ef7610a7f565b15610f2e576040517fd93c066500000000000000000000000000000000000000000000000000000000815260040160405180910390fd5b565b600073ffffffffffffffffffffffffffffffffffffffff168473ffffffffffffffffffffffffffffffffffffffff1603610fa25760006040517f57f447ce000000000000000000000000000000000000000000000000000000008152600401610f999190613418565b60405180910390fd5b610fb0600085858585611877565b50505050565b600033905090565b600073ffffffffffffffffffffffffffffffffffffffff168473ffffffffffffffffffffffffffffffffffffffff16036110305760006040517f57f447ce0000000000000000000000000000000000000000000000000000000081526004016110279190613418565b60405180910390fd5b600073ffffffffffffffffffffffffffffffffffffffff168573ffffffffffffffffffffffffffffffffffffffff16036110a25760006040517f01a835140000000000000000000000000000000000000000000000000000000081526004016110999190613418565b60405180910390fd5b6110af8585858585611877565b5050505050565b60006110c28383610b34565b61119d5760016004600085815260200190815260200160002060000160008473ffffffffffffffffffffffffffffffffffffffff1673ffffffffffffffffffffffffffffffffffffffff16815260200190815260200160002060006101000a81548160ff02191690831515021790555061113a610fb6565b73ffffffffffffffffffffffffffffffffffffffff168273ffffffffffffffffffffffffffffffffffffffff16847f2f8788117e7eff1d82e926ec794901d17c78024a50270940304540a733656f0d60405160405180910390a4600190506111a2565b600090505b92915050565b60006111b48383610b34565b156112905760006004600085815260200190815260200160002060000160008473ffffffffffffffffffffffffffffffffffffffff1673ffffffffffffffffffffffffffffffffffffffff16815260200190815260200160002060006101000a81548160ff02191690831515021790555061122d610fb6565b73ffffffffffffffffffffffffffffffffffffffff168273ffffffffffffffffffffffffffffffffffffffff16847ff6391f5c32d9c69d2a47ea670b442974b53935d1edc7fd64eb21e047a839171b60405160405180910390a460019050611295565b600090505b92915050565b600073ffffffffffffffffffffffffffffffffffffffff168373ffffffffffffffffffffffffffffffffffffffff160361130d5760006040517f01a835140000000000000000000000000000000000000000000000000000000081526004016113049190613418565b60405180910390fd5b60008061131a8484611929565b9150915061133b856000848460405180602001604052806000815250611877565b5050505050565b61134a611959565b6000600360006101000a81548160ff0219169083151502179055507f5db9ee0a495bf2e6ff9c91a7834c1ba4fdd244a5e8aa4e537bd38aeae4b073aa61138e610fb6565b60405161139b9190613418565b60405180910390a1565b600060208202602084010151905092915050565b600060208202602084010151905092915050565b600073ffffffffffffffffffffffffffffffffffffffff168473ffffffffffffffffffffffffffffffffffffffff160361143f5760006040517f57f447ce0000000000000000000000000000000000000000000000000000000081526004016114369190613418565b60405180910390fd5b60008061144c8585611929565b9150915061145e600087848487611877565b505050505050565b61146e610eef565b6001600360006101000a81548160ff0219169083151502179055507f62e78cea01bee320cd4e420270b5ea74000d11b0c9f74754ebdbfc544b05a2586114b2610fb6565b6040516114bf9190613418565b60405180910390a1565b600073ffffffffffffffffffffffffffffffffffffffff168273ffffffffffffffffffffffffffffffffffffffff160361153b5760006040517fced3e1000000000000000000000000000000000000000000000000000000000081526004016115329190613418565b60405180910390fd5b80600160008573ffffffffffffffffffffffffffffffffffffffff1673ffffffffffffffffffffffffffffffffffffffff16815260200190815260200160002060008473ffffffffffffffffffffffffffffffffffffffff1673ffffffffffffffffffffffffffffffffffffffff16815260200190815260200160002060006101000a81548160ff0219169083151502179055508173ffffffffffffffffffffffffffffffffffffffff168373ffffffffffffffffffffffffffffffffffffffff167f17307eab39ab6107e8899845ad3d59bd9653f200f220920489ca2b5937696c318360405161162c91906122f7565b60405180910390a3505050565b600073ffffffffffffffffffffffffffffffffffffffff168473ffffffffffffffffffffffffffffffffffffffff16036116ab5760006040517f57f447ce0000000000000000000000000000000000000000000000000000000081526004016116a29190613418565b60405180910390fd5b600073ffffffffffffffffffffffffffffffffffffffff168573ffffffffffffffffffffffffffffffffffffffff160361171d5760006040517f01a835140000000000000000000000000000000000000000000000000000000081526004016117149190613418565b60405180910390fd5b60008061172a8585611929565b9150915061173b8787848487611877565b50505050505050565b60007fd9b67a26000000000000000000000000000000000000000000000000000000007bffffffffffffffffffffffffffffffffffffffffffffffffffffffff1916827bffffffffffffffffffffffffffffffffffffffffffffffffffffffff1916148061180f57507f0e89341c000000000000000000000000000000000000000000000000000000007bffffffffffffffffffffffffffffffffffffffffffffffffffffffff1916827bffffffffffffffffffffffffffffffffffffffffffffffffffffffff1916145b8061181f575061181e82611999565b5b9050919050565b6118308282610b34565b6118735780826040517fe2517d3f00000000000000000000000000000000000000000000000000000000815260040161186a929190613433565b60405180910390fd5b5050565b61188385858585611a03565b600073ffffffffffffffffffffffffffffffffffffffff168473ffffffffffffffffffffffffffffffffffffffff16146119225760006118c1610fb6565b905060018451036119115760006118e26000866113b990919063ffffffff16565b905060006118fa6000866113b990919063ffffffff16565b905061190a838989858589611a15565b5050611920565b61191f818787878787611bc9565b5b505b5050505050565b60608060405191506001825283602083015260408201905060018152826020820152604081016040529250929050565b611961610a7f565b611997576040517f8dfc202b00000000000000000000000000000000000000000000000000000000815260040160405180910390fd5b565b60007f01ffc9a7000000000000000000000000000000000000000000000000000000007bffffffffffffffffffffffffffffffffffffffffffffffffffffffff1916827bffffffffffffffffffffffffffffffffffffffffffffffffffffffff1916149050919050565b611a0f84848484611d7d565b50505050565b60008473ffffffffffffffffffffffffffffffffffffffff163b1115611bc1578373ffffffffffffffffffffffffffffffffffffffff1663f23a6e6187878686866040518663ffffffff1660e01b8152600401611a769594939291906134b1565b6020604051808303816000875af1925050508015611ab257506040513d601f19601f82011682018060405250810190611aaf9190613520565b60015b611b36573d8060008114611ae2576040519150601f19603f3d011682016040523d82523d6000602084013e611ae7565b606091505b506000815103611b2e57846040517f57f447ce000000000000000000000000000000000000000000000000000000008152600401611b259190613418565b60405180910390fd5b805160208201fd5b63f23a6e6160e01b7bffffffffffffffffffffffffffffffffffffffffffffffffffffffff1916817bffffffffffffffffffffffffffffffffffffffffffffffffffffffff191614611bbf57846040517f57f447ce000000000000000000000000000000000000000000000000000000008152600401611bb69190613418565b60405180910390fd5b505b505050505050565b60008473ffffffffffffffffffffffffffffffffffffffff163b1115611d75578373ffffffffffffffffffffffffffffffffffffffff1663bc197c8187878686866040518663ffffffff1660e01b8152600401611c2a95949392919061354d565b6020604051808303816000875af1925050508015611c6657506040513d601f19601f82011682018060405250810190611c639190613520565b60015b611cea573d8060008114611c96576040519150601f19603f3d011682016040523d82523d6000602084013e611c9b565b606091505b506000815103611ce257846040517f57f447ce000000000000000000000000000000000000000000000000000000008152600401611cd99190613418565b60405180910390fd5b805160208201fd5b63bc197c8160e01b7bffffffffffffffffffffffffffffffffffffffffffffffffffffffff1916817bffffffffffffffffffffffffffffffffffffffffffffffffffffffff191614611d7357846040517f57f447ce000000000000000000000000000000000000000000000000000000008152600401611d6a9190613418565b60405180910390fd5b505b505050505050565b611d85610eef565b611d9184848484611d97565b50505050565b8051825114611de157815181516040517f5b059991000000000000000000000000000000000000000000000000000000008152600401611dd8929190613277565b60405180910390fd5b6000611deb610fb6565b905060005b8351811015612000576000611e0e82866113b990919063ffffffff16565b90506000611e2583866113b990919063ffffffff16565b9050600073ffffffffffffffffffffffffffffffffffffffff168873ffffffffffffffffffffffffffffffffffffffff1614611f5257600080600084815260200190815260200160002060008a73ffffffffffffffffffffffffffffffffffffffff1673ffffffffffffffffffffffffffffffffffffffff16815260200190815260200160002054905081811015611efa57888183856040517f03dee4c5000000000000000000000000000000000000000000000000000000008152600401611ef194939291906135b5565b60405180910390fd5b81810360008085815260200190815260200160002060008b73ffffffffffffffffffffffffffffffffffffffff1673ffffffffffffffffffffffffffffffffffffffff16815260200190815260200160002081905550505b600073ffffffffffffffffffffffffffffffffffffffff168773ffffffffffffffffffffffffffffffffffffffff1614611fed578060008084815260200190815260200160002060008973ffffffffffffffffffffffffffffffffffffffff1673ffffffffffffffffffffffffffffffffffffffff1681526020019081526020016000206000828254611fe591906135fa565b925050819055505b505080611ff9906132fe565b9050611df0565b5060018351036120bf5760006120206000856113b990919063ffffffff16565b905060006120386000856113b990919063ffffffff16565b90508573ffffffffffffffffffffffffffffffffffffffff168773ffffffffffffffffffffffffffffffffffffffff168473ffffffffffffffffffffffffffffffffffffffff167fc3d58168c5ae7397731d063d5bbf3d657854427343f4c083240f7aacaa2d0f6285856040516120b0929190613277565b60405180910390a4505061213e565b8373ffffffffffffffffffffffffffffffffffffffff168573ffffffffffffffffffffffffffffffffffffffff168273ffffffffffffffffffffffffffffffffffffffff167f4a39dc06d4c0dbc64b70af90fd698a233a518aa5d07e595d983b8c0526c8f7fb868660405161213592919061362e565b60405180910390a45b5050505050565b6000604051905090565b600080fd5b600080fd5b600073ffffffffffffffffffffffffffffffffffffffff82169050919050565b600061218482612159565b9050919050565b61219481612179565b811461219f57600080fd5b50565b6000813590506121b18161218b565b92915050565b6000819050919050565b6121ca816121b7565b81146121d557600080fd5b50565b6000813590506121e7816121c1565b92915050565b600080604083850312156122045761220361214f565b5b6000612212858286016121a2565b9250506020612223858286016121d8565b9150509250929050565b612236816121b7565b82525050565b6000602082019050612251600083018461222d565b92915050565b60007fffffffff0000000000000000000000000000000000000000000000000000000082169050919050565b61228c81612257565b811461229757600080fd5b50565b6000813590506122a981612283565b92915050565b6000602082840312156122c5576122c461214f565b5b60006122d38482850161229a565b91505092915050565b60008115159050919050565b6122f1816122dc565b82525050565b600060208201905061230c60008301846122e8565b92915050565b600080fd5b600080fd5b6000601f19601f8301169050919050565b7f4e487b7100000000000000000000000000000000000000000000000000000000600052604160045260246000fd5b6123658261231c565b810181811067ffffffffffffffff821117156123845761238361232d565b5b80604052505050565b6000612397612145565b90506123a3828261235c565b919050565b600067ffffffffffffffff8211156123c3576123c261232d565b5b6123cc8261231c565b9050602081019050919050565b82818337600083830152505050565b60006123fb6123f6846123a8565b61238d565b90508281526020810184848401111561241757612416612317565b5b6124228482856123d9565b509392505050565b600082601f83011261243f5761243e612312565b5b813561244f8482602086016123e8565b91505092915050565b60006020828403121561246e5761246d61214f565b5b600082013567ffffffffffffffff81111561248c5761248b612154565b5b6124988482850161242a565b91505092915050565b6000602082840312156124b7576124b661214f565b5b60006124c5848285016121d8565b91505092915050565b600081519050919050565b600082825260208201905092915050565b60005b838110156125085780820151818401526020810190506124ed565b60008484015250505050565b600061251f826124ce565b61252981856124d9565b93506125398185602086016124ea565b6125428161231c565b840191505092915050565b600060208201905081810360008301526125678184612514565b905092915050565b600080fd5b600080fd5b60008083601f84011261258f5761258e612312565b5b8235905067ffffffffffffffff8111156125ac576125ab61256f565b5b6020830191508360018202830111156125c8576125c7612574565b5b9250929050565b6000806000604084860312156125e8576125e761214f565b5b60006125f6868287016121d8565b935050602084013567ffffffffffffffff81111561261757612616612154565b5b61262386828701612579565b92509250509250925092565b600067ffffffffffffffff82111561264a5761264961232d565b5b602082029050602081019050919050565b600061266e6126698461262f565b61238d565b9050808382526020820190506020840283018581111561269157612690612574565b5b835b818110156126ba57806126a688826121d8565b845260208401935050602081019050612693565b5050509392505050565b600082601f8301126126d9576126d8612312565b5b81356126e984826020860161265b565b91505092915050565b600067ffffffffffffffff82111561270d5761270c61232d565b5b6127168261231c565b9050602081019050919050565b6000612736612731846126f2565b61238d565b90508281526020810184848401111561275257612751612317565b5b61275d8482856123d9565b509392505050565b600082601f83011261277a57612779612312565b5b813561278a848260208601612723565b91505092915050565b600080600080608085870312156127ad576127ac61214f565b5b60006127bb878288016121a2565b945050602085013567ffffffffffffffff8111156127dc576127db612154565b5b6127e8878288016126c4565b935050604085013567ffffffffffffffff81111561280957612808612154565b5b612815878288016126c4565b925050606085013567ffffffffffffffff81111561283657612835612154565b5b61284287828801612765565b91505092959194509250565b6000819050919050565b6128618161284e565b811461286c57600080fd5b50565b60008135905061287e81612858565b92915050565b60006020828403121561289a5761289961214f565b5b60006128a88482850161286f565b91505092915050565b6128ba8161284e565b82525050565b60006020820190506128d560008301846128b1565b92915050565b600080600080600060a086880312156128f7576128f661214f565b5b6000612905888289016121a2565b9550506020612916888289016121a2565b945050604086013567ffffffffffffffff81111561293757612936612154565b5b612943888289016126c4565b935050606086013567ffffffffffffffff81111561296457612963612154565b5b612970888289016126c4565b925050608086013567ffffffffffffffff81111561299157612990612154565b5b61299d88828901612765565b9150509295509295909350565b600080604083850312156129c1576129c061214f565b5b60006129cf8582860161286f565b92505060206129e0858286016121a2565b9150509250929050565b600080600080600060808688031215612a0657612a0561214f565b5b6000612a14888289016121a2565b9550506020612a25888289016121d8565b9450506040612a36888289016121d8565b935050606086013567ffffffffffffffff811115612a5757612a56612154565b5b612a6388828901612579565b92509250509295509295909350565b600067ffffffffffffffff821115612a8d57612a8c61232d565b5b602082029050602081019050919050565b6000612ab1612aac84612a72565b61238d565b90508083825260208201905060208402830185811115612ad457612ad3612574565b5b835b81811015612afd5780612ae988826121a2565b845260208401935050602081019050612ad6565b5050509392505050565b600082601f830112612b1c57612b1b612312565b5b8135612b2c848260208601612a9e565b91505092915050565b60008060408385031215612b4c57612b4b61214f565b5b600083013567ffffffffffffffff811115612b6a57612b69612154565b5b612b7685828601612b07565b925050602083013567ffffffffffffffff811115612b9757612b96612154565b5b612ba3858286016126c4565b9150509250929050565b600081519050919050565b600082825260208201905092915050565b6000819050602082019050919050565b612be2816121b7565b82525050565b6000612bf48383612bd9565b60208301905092915050565b6000602082019050919050565b6000612c1882612bad565b612c228185612bb8565b9350612c2d83612bc9565b8060005b83811015612c5e578151612c458882612be8565b9750612c5083612c00565b925050600181019050612c31565b5085935050505092915050565b60006020820190508181036000830152612c858184612c0d565b905092915050565b60008060008060808587031215612ca757612ca661214f565b5b6000612cb5878288016121a2565b9450506020612cc6878288016121d8565b9350506040612cd7878288016121d8565b925050606085013567ffffffffffffffff811115612cf857612cf7612154565b5b612d0487828801612765565b91505092959194509250565b612d19816122dc565b8114612d2457600080fd5b50565b600081359050612d3681612d10565b92915050565b60008060408385031215612d5357612d5261214f565b5b6000612d61858286016121a2565b9250506020612d7285828601612d27565b9150509250929050565b60008060408385031215612d9357612d9261214f565b5b6000612da1858286016121a2565b9250506020612db2858286016121a2565b9150509250929050565b600080600080600060a08688031215612dd857612dd761214f565b5b6000612de6888289016121a2565b9550506020612df7888289016121a2565b9450506040612e08888289016121d8565b9350506060612e19888289016121d8565b925050608086013567ffffffffffffffff811115612e3a57612e39612154565b5b612e4688828901612765565b9150509295509295909350565b60008060008060608587031215612e6d57612e6c61214f565b5b6000612e7b878288016121d8565b9450506020612e8c878288016121d8565b935050604085013567ffffffffffffffff811115612ead57612eac612154565b5b612eb987828801612579565b925092505092959194509250565b7f4e487b7100000000000000000000000000000000000000000000000000000000600052602260045260246000fd5b60006002820490506001821680612f0e57607f821691505b602082108103612f2157612f20612ec7565b5b50919050565b600082905092915050565b60008190508160005260206000209050919050565b60006020601f8301049050919050565b600082821b905092915050565b600060088302612f947fffffffffffffffffffffffffffffffffffffffffffffffffffffffffffffffff82612f57565b612f9e8683612f57565b95508019841693508086168417925050509392505050565b6000819050919050565b6000612fdb612fd6612fd1846121b7565b612fb6565b6121b7565b9050919050565b6000819050919050565b612ff583612fc0565b61300961300182612fe2565b848454612f64565b825550505050565b600090565b61301e613011565b613029818484612fec565b505050565b5b8181101561304d57613042600082613016565b60018101905061302f565b5050565b601f8211156130925761306381612f32565b61306c84612f47565b8101602085101561307b578190505b61308f61308785612f47565b83018261302e565b50505b505050565b600082821c905092915050565b60006130b560001984600802613097565b1980831691505092915050565b60006130ce83836130a4565b9150826002028217905092915050565b6130e88383612f27565b67ffffffffffffffff8111156131015761310061232d565b5b61310b8254612ef6565b613116828285613051565b6000601f8311600181146131455760008415613133578287013590505b61313d85826130c2565b8655506131a5565b601f19841661315386612f32565b60005b8281101561317b57848901358255600182019150602085019450602081019050613156565b868310156131985784890135613194601f8916826130a4565b8355505b6001600288020188555050505b50505050505050565b60006131ba83856124d9565b93506131c78385846123d9565b6131d08361231c565b840190509392505050565b600060208201905081810360008301526131f68184866131ae565b90509392505050565b61320881612179565b82525050565b600060408201905061322360008301856131ff565b61323060208301846131ff565b9392505050565b600060608201905061324c600083018761222d565b818103602083015261325f8185876131ae565b905061326e604083018461222d565b95945050505050565b600060408201905061328c600083018561222d565b613299602083018461222d565b9392505050565b7f4e487b7100000000000000000000000000000000000000000000000000000000600052603260045260246000fd5b7f4e487b7100000000000000000000000000000000000000000000000000000000600052601160045260246000fd5b6000613309826121b7565b91507fffffffffffffffffffffffffffffffffffffffffffffffffffffffffffffffff820361333b5761333a6132cf565b5b600182019050919050565b61334f826124ce565b67ffffffffffffffff8111156133685761336761232d565b5b6133728254612ef6565b61337d828285613051565b600060209050601f8311600181146133b0576000841561339e578287015190505b6133a885826130c2565b865550613410565b601f1984166133be86612f32565b60005b828110156133e6578489015182556001820191506020850194506020810190506133c1565b8683101561340357848901516133ff601f8916826130a4565b8355505b6001600288020188555050505b505050505050565b600060208201905061342d60008301846131ff565b92915050565b600060408201905061344860008301856131ff565b61345560208301846128b1565b9392505050565b600081519050919050565b600082825260208201905092915050565b60006134838261345c565b61348d8185613467565b935061349d8185602086016124ea565b6134a68161231c565b840191505092915050565b600060a0820190506134c660008301886131ff565b6134d360208301876131ff565b6134e0604083018661222d565b6134ed606083018561222d565b81810360808301526134ff8184613478565b90509695505050505050565b60008151905061351a81612283565b92915050565b6000602082840312156135365761353561214f565b5b60006135448482850161350b565b91505092915050565b600060a08201905061356260008301886131ff565b61356f60208301876131ff565b81810360408301526135818186612c0d565b905081810360608301526135958185612c0d565b905081810360808301526135a98184613478565b90509695505050505050565b60006080820190506135ca60008301876131ff565b6135d7602083018661222d565b6135e4604083018561222d565b6135f1606083018461222d565b95945050505050565b6000613605826121b7565b9150613610836121b7565b9250828201905080821115613628576136276132cf565b5b92915050565b600060408201905081810360008301526136488185612c0d565b9050818103602083015261365c8184612c0d565b9050939250505056fea2646970667358221220a69e0501e3db8a5efded5b51f822b615d8dba00aa4d8973798e052468fe6adaf64736f6c63430008140033","opcodes":"PUSH1 0x80 PUSH1 0x40 MSTORE CALLVALUE DUP1 ISZERO PUSH3 0x11 JUMPI PUSH1 0x0 DUP1 REVERT JUMPDEST POP PUSH1 0x40 MLOAD PUSH3 0x3E4D CODESIZE SUB DUP1 PUSH3 0x3E4D DUP4 CODECOPY DUP2 DUP2 ADD PUSH1 0x40 MSTORE DUP2 ADD SWAP1 PUSH3 0x37 SWAP2 SWAP1 PUSH3 0x41F JUMP JUMPDEST DUP1 PUSH3 0x49 DUP2 PUSH3 0x100 PUSH1 0x20 SHL PUSH1 0x20 SHR JUMP JUMPDEST POP PUSH3 0x5F PUSH1 0x0 DUP1 SHL CALLER PUSH3 0x115 PUSH1 0x20 SHL PUSH1 0x20 SHR JUMP JUMPDEST POP PUSH3 0x92 PUSH32 0xA49807205CE4D355092EF5A8A18F56E8913CF4A201FBE287825B095693C21775 CALLER PUSH3 0x115 PUSH1 0x20 SHL PUSH1 0x20 SHR JUMP JUMPDEST POP PUSH3 0xC5 PUSH32 0x9F2DF0FED2C77648DE5860A4CC508CD0818C85B8B8A1AB4CEEEF8D981C8956A6 CALLER PUSH3 0x115 PUSH1 0x20 SHL PUSH1 0x20 SHR JUMP JUMPDEST POP PUSH3 0xF8 PUSH32 0x3C11D16CBAFFD01DF69CE1C404F6340EE057498F5F00246190EA54220576A848 CALLER PUSH3 0x115 PUSH1 0x20 SHL PUSH1 0x20 SHR JUMP JUMPDEST POP POP PUSH3 0x7A2 JUMP JUMPDEST DUP1 PUSH1 0x2 SWAP1 DUP2 PUSH3 0x111 SWAP2 SWAP1 PUSH3 0x6BB JUMP JUMPDEST POP POP JUMP JUMPDEST PUSH1 0x0 PUSH3 0x129 DUP4 DUP4 PUSH3 0x219 PUSH1 0x20 SHL PUSH1 0x20 SHR JUMP JUMPDEST PUSH3 0x20E JUMPI PUSH1 0x1 PUSH1 0x4 PUSH1 0x0 DUP6 DUP2 MSTORE PUSH1 0x20 ADD SWAP1 DUP2 MSTORE PUSH1 0x20 ADD PUSH1 0x0 KECCAK256 PUSH1 0x0 ADD PUSH1 0x0 DUP5 PUSH20 0xFFFFFFFFFFFFFFFFFFFFFFFFFFFFFFFFFFFFFFFF AND PUSH20 0xFFFFFFFFFFFFFFFFFFFFFFFFFFFFFFFFFFFFFFFF AND DUP2 MSTORE PUSH1 0x20 ADD SWAP1 DUP2 MSTORE PUSH1 0x20 ADD PUSH1 0x0 KECCAK256 PUSH1 0x0 PUSH2 0x100 EXP DUP2 SLOAD DUP2 PUSH1 0xFF MUL NOT AND SWAP1 DUP4 ISZERO ISZERO MUL OR SWAP1 SSTORE POP PUSH3 0x1AA PUSH3 0x284 PUSH1 0x20 SHL PUSH1 0x20 SHR JUMP JUMPDEST PUSH20 0xFFFFFFFFFFFFFFFFFFFFFFFFFFFFFFFFFFFFFFFF AND DUP3 PUSH20 0xFFFFFFFFFFFFFFFFFFFFFFFFFFFFFFFFFFFFFFFF AND DUP5 PUSH32 0x2F8788117E7EFF1D82E926EC794901D17C78024A50270940304540A733656F0D PUSH1 0x40 MLOAD PUSH1 0x40 MLOAD DUP1 SWAP2 SUB SWAP1 LOG4 PUSH1 0x1 SWAP1 POP PUSH3 0x213 JUMP JUMPDEST PUSH1 0x0 SWAP1 POP JUMPDEST SWAP3 SWAP2 POP POP JUMP JUMPDEST PUSH1 0x0 PUSH1 0x4 PUSH1 0x0 DUP5 DUP2 MSTORE PUSH1 0x20 ADD SWAP1 DUP2 MSTORE PUSH1 0x20 ADD PUSH1 0x0 KECCAK256 PUSH1 0x0 ADD PUSH1 0x0 DUP4 PUSH20 0xFFFFFFFFFFFFFFFFFFFFFFFFFFFFFFFFFFFFFFFF AND PUSH20 0xFFFFFFFFFFFFFFFFFFFFFFFFFFFFFFFFFFFFFFFF AND DUP2 MSTORE PUSH1 0x20 ADD SWAP1 DUP2 MSTORE PUSH1 0x20 ADD PUSH1 0x0 KECCAK256 PUSH1 0x0 SWAP1 SLOAD SWAP1 PUSH2 0x100 EXP SWAP1 DIV PUSH1 0xFF AND SWAP1 POP SWAP3 SWAP2 POP POP JUMP JUMPDEST PUSH1 0x0 CALLER SWAP1 POP SWAP1 JUMP JUMPDEST PUSH1 0x0 PUSH1 0x40 MLOAD SWAP1 POP SWAP1 JUMP JUMPDEST PUSH1 0x0 DUP1 REVERT JUMPDEST PUSH1 0x0 DUP1 REVERT JUMPDEST PUSH1 0x0 DUP1 REVERT JUMPDEST PUSH1 0x0 DUP1 REVERT JUMPDEST PUSH1 0x0 PUSH1 0x1F NOT PUSH1 0x1F DUP4 ADD AND SWAP1 POP SWAP2 SWAP1 POP JUMP JUMPDEST PUSH32 0x4E487B7100000000000000000000000000000000000000000000000000000000 PUSH1 0x0 MSTORE PUSH1 0x41 PUSH1 0x4 MSTORE PUSH1 0x24 PUSH1 0x0 REVERT JUMPDEST PUSH3 0x2F5 DUP3 PUSH3 0x2AA JUMP JUMPDEST DUP2 ADD DUP2 DUP2 LT PUSH8 0xFFFFFFFFFFFFFFFF DUP3 GT OR ISZERO PUSH3 0x317 JUMPI PUSH3 0x316 PUSH3 0x2BB JUMP JUMPDEST JUMPDEST DUP1 PUSH1 0x40 MSTORE POP POP POP JUMP JUMPDEST PUSH1 0x0 PUSH3 0x32C PUSH3 0x28C JUMP JUMPDEST SWAP1 POP PUSH3 0x33A DUP3 DUP3 PUSH3 0x2EA JUMP JUMPDEST SWAP2 SWAP1 POP JUMP JUMPDEST PUSH1 0x0 PUSH8 0xFFFFFFFFFFFFFFFF DUP3 GT ISZERO PUSH3 0x35D JUMPI PUSH3 0x35C PUSH3 0x2BB JUMP JUMPDEST JUMPDEST PUSH3 0x368 DUP3 PUSH3 0x2AA JUMP JUMPDEST SWAP1 POP PUSH1 0x20 DUP2 ADD SWAP1 POP SWAP2 SWAP1 POP JUMP JUMPDEST PUSH1 0x0 JUMPDEST DUP4 DUP2 LT ISZERO PUSH3 0x395 JUMPI DUP1 DUP3 ADD MLOAD DUP2 DUP5 ADD MSTORE PUSH1 0x20 DUP2 ADD SWAP1 POP PUSH3 0x378 JUMP JUMPDEST PUSH1 0x0 DUP5 DUP5 ADD MSTORE POP POP POP POP JUMP JUMPDEST PUSH1 0x0 PUSH3 0x3B8 PUSH3 0x3B2 DUP5 PUSH3 0x33F JUMP JUMPDEST PUSH3 0x320 JUMP JUMPDEST SWAP1 POP DUP3 DUP2 MSTORE PUSH1 0x20 DUP2 ADD DUP5 DUP5 DUP5 ADD GT ISZERO PUSH3 0x3D7 JUMPI PUSH3 0x3D6 PUSH3 0x2A5 JUMP JUMPDEST JUMPDEST PUSH3 0x3E4 DUP5 DUP3 DUP6 PUSH3 0x375 JUMP JUMPDEST POP SWAP4 SWAP3 POP POP POP JUMP JUMPDEST PUSH1 0x0 DUP3 PUSH1 0x1F DUP4 ADD SLT PUSH3 0x404 JUMPI PUSH3 0x403 PUSH3 0x2A0 JUMP JUMPDEST JUMPDEST DUP2 MLOAD PUSH3 0x416 DUP5 DUP3 PUSH1 0x20 DUP7 ADD PUSH3 0x3A1 JUMP JUMPDEST SWAP2 POP POP SWAP3 SWAP2 POP POP JUMP JUMPDEST PUSH1 0x0 PUSH1 0x20 DUP3 DUP5 SUB SLT ISZERO PUSH3 0x438 JUMPI PUSH3 0x437 PUSH3 0x296 JUMP JUMPDEST JUMPDEST PUSH1 0x0 DUP3 ADD MLOAD PUSH8 0xFFFFFFFFFFFFFFFF DUP2 GT ISZERO PUSH3 0x459 JUMPI PUSH3 0x458 PUSH3 0x29B JUMP JUMPDEST JUMPDEST PUSH3 0x467 DUP5 DUP3 DUP6 ADD PUSH3 0x3EC JUMP JUMPDEST SWAP2 POP POP SWAP3 SWAP2 POP POP JUMP JUMPDEST PUSH1 0x0 DUP2 MLOAD SWAP1 POP SWAP2 SWAP1 POP JUMP JUMPDEST PUSH32 0x4E487B7100000000000000000000000000000000000000000000000000000000 PUSH1 0x0 MSTORE PUSH1 0x22 PUSH1 0x4 MSTORE PUSH1 0x24 PUSH1 0x0 REVERT JUMPDEST PUSH1 0x0 PUSH1 0x2 DUP3 DIV SWAP1 POP PUSH1 0x1 DUP3 AND DUP1 PUSH3 0x4C3 JUMPI PUSH1 0x7F DUP3 AND SWAP2 POP JUMPDEST PUSH1 0x20 DUP3 LT DUP2 SUB PUSH3 0x4D9 JUMPI PUSH3 0x4D8 PUSH3 0x47B JUMP JUMPDEST JUMPDEST POP SWAP2 SWAP1 POP JUMP JUMPDEST PUSH1 0x0 DUP2 SWAP1 POP DUP2 PUSH1 0x0 MSTORE PUSH1 0x20 PUSH1 0x0 KECCAK256 SWAP1 POP SWAP2 SWAP1 POP JUMP JUMPDEST PUSH1 0x0 PUSH1 0x20 PUSH1 0x1F DUP4 ADD DIV SWAP1 POP SWAP2 SWAP1 POP JUMP JUMPDEST PUSH1 0x0 DUP3 DUP3 SHL SWAP1 POP SWAP3 SWAP2 POP POP JUMP JUMPDEST PUSH1 0x0 PUSH1 0x8 DUP4 MUL PUSH3 0x543 PUSH32 0xFFFFFFFFFFFFFFFFFFFFFFFFFFFFFFFFFFFFFFFFFFFFFFFFFFFFFFFFFFFFFFFF DUP3 PUSH3 0x504 JUMP JUMPDEST PUSH3 0x54F DUP7 DUP4 PUSH3 0x504 JUMP JUMPDEST SWAP6 POP DUP1 NOT DUP5 AND SWAP4 POP DUP1 DUP7 AND DUP5 OR SWAP3 POP POP POP SWAP4 SWAP3 POP POP POP JUMP JUMPDEST PUSH1 0x0 DUP2 SWAP1 POP SWAP2 SWAP1 POP JUMP JUMPDEST PUSH1 0x0 DUP2 SWAP1 POP SWAP2 SWAP1 POP JUMP JUMPDEST PUSH1 0x0 PUSH3 0x59C PUSH3 0x596 PUSH3 0x590 DUP5 PUSH3 0x567 JUMP JUMPDEST PUSH3 0x571 JUMP JUMPDEST PUSH3 0x567 JUMP JUMPDEST SWAP1 POP SWAP2 SWAP1 POP JUMP JUMPDEST PUSH1 0x0 DUP2 SWAP1 POP SWAP2 SWAP1 POP JUMP JUMPDEST PUSH3 0x5B8 DUP4 PUSH3 0x57B JUMP JUMPDEST PUSH3 0x5D0 PUSH3 0x5C7 DUP3 PUSH3 0x5A3 JUMP JUMPDEST DUP5 DUP5 SLOAD PUSH3 0x511 JUMP JUMPDEST DUP3 SSTORE POP POP POP POP JUMP JUMPDEST PUSH1 0x0 SWAP1 JUMP JUMPDEST PUSH3 0x5E7 PUSH3 0x5D8 JUMP JUMPDEST PUSH3 0x5F4 DUP2 DUP5 DUP5 PUSH3 0x5AD JUMP JUMPDEST POP POP POP JUMP JUMPDEST JUMPDEST DUP2 DUP2 LT ISZERO PUSH3 0x61C JUMPI PUSH3 0x610 PUSH1 0x0 DUP3 PUSH3 0x5DD JUMP JUMPDEST PUSH1 0x1 DUP2 ADD SWAP1 POP PUSH3 0x5FA JUMP JUMPDEST POP POP JUMP JUMPDEST PUSH1 0x1F DUP3 GT ISZERO PUSH3 0x66B JUMPI PUSH3 0x635 DUP2 PUSH3 0x4DF JUMP JUMPDEST PUSH3 0x640 DUP5 PUSH3 0x4F4 JUMP JUMPDEST DUP2 ADD PUSH1 0x20 DUP6 LT ISZERO PUSH3 0x650 JUMPI DUP2 SWAP1 POP JUMPDEST PUSH3 0x668 PUSH3 0x65F DUP6 PUSH3 0x4F4 JUMP JUMPDEST DUP4 ADD DUP3 PUSH3 0x5F9 JUMP JUMPDEST POP POP JUMPDEST POP POP POP JUMP JUMPDEST PUSH1 0x0 DUP3 DUP3 SHR SWAP1 POP SWAP3 SWAP2 POP POP JUMP JUMPDEST PUSH1 0x0 PUSH3 0x690 PUSH1 0x0 NOT DUP5 PUSH1 0x8 MUL PUSH3 0x670 JUMP JUMPDEST NOT DUP1 DUP4 AND SWAP2 POP POP SWAP3 SWAP2 POP POP JUMP JUMPDEST PUSH1 0x0 PUSH3 0x6AB DUP4 DUP4 PUSH3 0x67D JUMP JUMPDEST SWAP2 POP DUP3 PUSH1 0x2 MUL DUP3 OR SWAP1 POP SWAP3 SWAP2 POP POP JUMP JUMPDEST PUSH3 0x6C6 DUP3 PUSH3 0x470 JUMP JUMPDEST PUSH8 0xFFFFFFFFFFFFFFFF DUP2 GT ISZERO PUSH3 0x6E2 JUMPI PUSH3 0x6E1 PUSH3 0x2BB JUMP JUMPDEST JUMPDEST PUSH3 0x6EE DUP3 SLOAD PUSH3 0x4AA JUMP JUMPDEST PUSH3 0x6FB DUP3 DUP3 DUP6 PUSH3 0x620 JUMP JUMPDEST PUSH1 0x0 PUSH1 0x20 SWAP1 POP PUSH1 0x1F DUP4 GT PUSH1 0x1 DUP2 EQ PUSH3 0x733 JUMPI PUSH1 0x0 DUP5 ISZERO PUSH3 0x71E JUMPI DUP3 DUP8 ADD MLOAD SWAP1 POP JUMPDEST PUSH3 0x72A DUP6 DUP3 PUSH3 0x69D JUMP JUMPDEST DUP7 SSTORE POP PUSH3 0x79A JUMP JUMPDEST PUSH1 0x1F NOT DUP5 AND PUSH3 0x743 DUP7 PUSH3 0x4DF JUMP JUMPDEST PUSH1 0x0 JUMPDEST DUP3 DUP2 LT ISZERO PUSH3 0x76D JUMPI DUP5 DUP10 ADD MLOAD DUP3 SSTORE PUSH1 0x1 DUP3 ADD SWAP2 POP PUSH1 0x20 DUP6 ADD SWAP5 POP PUSH1 0x20 DUP2 ADD SWAP1 POP PUSH3 0x746 JUMP JUMPDEST DUP7 DUP4 LT ISZERO PUSH3 0x78D JUMPI DUP5 DUP10 ADD MLOAD PUSH3 0x789 PUSH1 0x1F DUP10 AND DUP3 PUSH3 0x67D JUMP JUMPDEST DUP4 SSTORE POP JUMPDEST PUSH1 0x1 PUSH1 0x2 DUP9 MUL ADD DUP9 SSTORE POP POP POP JUMPDEST POP POP POP POP POP POP JUMP JUMPDEST PUSH2 0x369B DUP1 PUSH3 0x7B2 PUSH1 0x0 CODECOPY PUSH1 0x0 RETURN INVALID PUSH1 0x80 PUSH1 0x40 MSTORE CALLVALUE DUP1 ISZERO PUSH2 0x10 JUMPI PUSH1 0x0 DUP1 REVERT JUMPDEST POP PUSH1 0x4 CALLDATASIZE LT PUSH2 0x18D JUMPI PUSH1 0x0 CALLDATALOAD PUSH1 0xE0 SHR DUP1 PUSH4 0x4E1273F4 GT PUSH2 0xDE JUMPI DUP1 PUSH4 0xA217FDDF GT PUSH2 0x97 JUMPI DUP1 PUSH4 0xD547741F GT PUSH2 0x71 JUMPI DUP1 PUSH4 0xD547741F EQ PUSH2 0x458 JUMPI DUP1 PUSH4 0xE985E9C5 EQ PUSH2 0x474 JUMPI DUP1 PUSH4 0xF242432A EQ PUSH2 0x4A4 JUMPI DUP1 PUSH4 0xF4788EC1 EQ PUSH2 0x4C0 JUMPI PUSH2 0x18D JUMP JUMPDEST DUP1 PUSH4 0xA217FDDF EQ PUSH2 0x400 JUMPI DUP1 PUSH4 0xA22CB465 EQ PUSH2 0x41E JUMPI DUP1 PUSH4 0xD5391393 EQ PUSH2 0x43A JUMPI PUSH2 0x18D JUMP JUMPDEST DUP1 PUSH4 0x4E1273F4 EQ PUSH2 0x33E JUMPI DUP1 PUSH4 0x5C975ABB EQ PUSH2 0x36E JUMPI DUP1 PUSH4 0x731133E9 EQ PUSH2 0x38C JUMPI DUP1 PUSH4 0x75B238FC EQ PUSH2 0x3A8 JUMPI DUP1 PUSH4 0x8456CB59 EQ PUSH2 0x3C6 JUMPI DUP1 PUSH4 0x91D14854 EQ PUSH2 0x3D0 JUMPI PUSH2 0x18D JUMP JUMPDEST DUP1 PUSH4 0x248A9CA3 GT PUSH2 0x14B JUMPI DUP1 PUSH4 0x2F2FF15D GT PUSH2 0x125 JUMPI DUP1 PUSH4 0x2F2FF15D EQ PUSH2 0x2E0 JUMPI DUP1 PUSH4 0x36568ABE EQ PUSH2 0x2FC JUMPI DUP1 PUSH4 0x376E09B4 EQ PUSH2 0x318 JUMPI DUP1 PUSH4 0x3F4BA83A EQ PUSH2 0x334 JUMPI PUSH2 0x18D JUMP JUMPDEST DUP1 PUSH4 0x248A9CA3 EQ PUSH2 0x276 JUMPI DUP1 PUSH4 0x282C51F3 EQ PUSH2 0x2A6 JUMPI DUP1 PUSH4 0x2EB2C2D6 EQ PUSH2 0x2C4 JUMPI PUSH2 0x18D JUMP JUMPDEST DUP1 PUSH3 0xFDD58E EQ PUSH2 0x192 JUMPI DUP1 PUSH4 0x1FFC9A7 EQ PUSH2 0x1C2 JUMPI DUP1 PUSH4 0x2FE5305 EQ PUSH2 0x1F2 JUMPI DUP1 PUSH4 0xE89341C EQ PUSH2 0x20E JUMPI DUP1 PUSH4 0x162094C4 EQ PUSH2 0x23E JUMPI DUP1 PUSH4 0x1F7FDFFA EQ PUSH2 0x25A JUMPI JUMPDEST PUSH1 0x0 DUP1 REVERT JUMPDEST PUSH2 0x1AC PUSH1 0x4 DUP1 CALLDATASIZE SUB DUP2 ADD SWAP1 PUSH2 0x1A7 SWAP2 SWAP1 PUSH2 0x21ED JUMP JUMPDEST PUSH2 0x4DC JUMP JUMPDEST PUSH1 0x40 MLOAD PUSH2 0x1B9 SWAP2 SWAP1 PUSH2 0x223C JUMP JUMPDEST PUSH1 0x40 MLOAD DUP1 SWAP2 SUB SWAP1 RETURN JUMPDEST PUSH2 0x1DC PUSH1 0x4 DUP1 CALLDATASIZE SUB DUP2 ADD SWAP1 PUSH2 0x1D7 SWAP2 SWAP1 PUSH2 0x22AF JUMP JUMPDEST PUSH2 0x536 JUMP JUMPDEST PUSH1 0x40 MLOAD PUSH2 0x1E9 SWAP2 SWAP1 PUSH2 0x22F7 JUMP JUMPDEST PUSH1 0x40 MLOAD DUP1 SWAP2 SUB SWAP1 RETURN JUMPDEST PUSH2 0x20C PUSH1 0x4 DUP1 CALLDATASIZE SUB DUP2 ADD SWAP1 PUSH2 0x207 SWAP2 SWAP1 PUSH2 0x2458 JUMP JUMPDEST PUSH2 0x548 JUMP JUMPDEST STOP JUMPDEST PUSH2 0x228 PUSH1 0x4 DUP1 CALLDATASIZE SUB DUP2 ADD SWAP1 PUSH2 0x223 SWAP2 SWAP1 PUSH2 0x24A1 JUMP JUMPDEST PUSH2 0x57F JUMP JUMPDEST PUSH1 0x40 MLOAD PUSH2 0x235 SWAP2 SWAP1 PUSH2 0x254D JUMP JUMPDEST PUSH1 0x40 MLOAD DUP1 SWAP2 SUB SWAP1 RETURN JUMPDEST PUSH2 0x258 PUSH1 0x4 DUP1 CALLDATASIZE SUB DUP2 ADD SWAP1 PUSH2 0x253 SWAP2 SWAP1 PUSH2 0x25CF JUMP JUMPDEST PUSH2 0x646 JUMP JUMPDEST STOP JUMPDEST PUSH2 0x274 PUSH1 0x4 DUP1 CALLDATASIZE SUB DUP2 ADD SWAP1 PUSH2 0x26F SWAP2 SWAP1 PUSH2 0x2793 JUMP JUMPDEST PUSH2 0x6D3 JUMP JUMPDEST STOP JUMPDEST PUSH2 0x290 PUSH1 0x4 DUP1 CALLDATASIZE SUB DUP2 ADD SWAP1 PUSH2 0x28B SWAP2 SWAP1 PUSH2 0x2884 JUMP JUMPDEST PUSH2 0x718 JUMP JUMPDEST PUSH1 0x40 MLOAD PUSH2 0x29D SWAP2 SWAP1 PUSH2 0x28C0 JUMP JUMPDEST PUSH1 0x40 MLOAD DUP1 SWAP2 SUB SWAP1 RETURN JUMPDEST PUSH2 0x2AE PUSH2 0x738 JUMP JUMPDEST PUSH1 0x40 MLOAD PUSH2 0x2BB SWAP2 SWAP1 PUSH2 0x28C0 JUMP JUMPDEST PUSH1 0x40 MLOAD DUP1 SWAP2 SUB SWAP1 RETURN JUMPDEST PUSH2 0x2DE PUSH1 0x4 DUP1 CALLDATASIZE SUB DUP2 ADD SWAP1 PUSH2 0x2D9 SWAP2 SWAP1 PUSH2 0x28DB JUMP JUMPDEST PUSH2 0x75C JUMP JUMPDEST STOP JUMPDEST PUSH2 0x2FA PUSH1 0x4 DUP1 CALLDATASIZE SUB DUP2 ADD SWAP1 PUSH2 0x2F5 SWAP2 SWAP1 PUSH2 0x29AA JUMP JUMPDEST PUSH2 0x804 JUMP JUMPDEST STOP JUMPDEST PUSH2 0x316 PUSH1 0x4 DUP1 CALLDATASIZE SUB DUP2 ADD SWAP1 PUSH2 0x311 SWAP2 SWAP1 PUSH2 0x29AA JUMP JUMPDEST PUSH2 0x826 JUMP JUMPDEST STOP JUMPDEST PUSH2 0x332 PUSH1 0x4 DUP1 CALLDATASIZE SUB DUP2 ADD SWAP1 PUSH2 0x32D SWAP2 SWAP1 PUSH2 0x29EA JUMP JUMPDEST PUSH2 0x8A1 JUMP JUMPDEST STOP JUMPDEST PUSH2 0x33C PUSH2 0x93B JUMP JUMPDEST STOP JUMPDEST PUSH2 0x358 PUSH1 0x4 DUP1 CALLDATASIZE SUB DUP2 ADD SWAP1 PUSH2 0x353 SWAP2 SWAP1 PUSH2 0x2B35 JUMP JUMPDEST PUSH2 0x970 JUMP JUMPDEST PUSH1 0x40 MLOAD PUSH2 0x365 SWAP2 SWAP1 PUSH2 0x2C6B JUMP JUMPDEST PUSH1 0x40 MLOAD DUP1 SWAP2 SUB SWAP1 RETURN JUMPDEST PUSH2 0x376 PUSH2 0xA7F JUMP JUMPDEST PUSH1 0x40 MLOAD PUSH2 0x383 SWAP2 SWAP1 PUSH2 0x22F7 JUMP JUMPDEST PUSH1 0x40 MLOAD DUP1 SWAP2 SUB SWAP1 RETURN JUMPDEST PUSH2 0x3A6 PUSH1 0x4 DUP1 CALLDATASIZE SUB DUP2 ADD SWAP1 PUSH2 0x3A1 SWAP2 SWAP1 PUSH2 0x2C8D JUMP JUMPDEST PUSH2 0xA96 JUMP JUMPDEST STOP JUMPDEST PUSH2 0x3B0 PUSH2 0xADB JUMP JUMPDEST PUSH1 0x40 MLOAD PUSH2 0x3BD SWAP2 SWAP1 PUSH2 0x28C0 JUMP JUMPDEST PUSH1 0x40 MLOAD DUP1 SWAP2 SUB SWAP1 RETURN JUMPDEST PUSH2 0x3CE PUSH2 0xAFF JUMP JUMPDEST STOP JUMPDEST PUSH2 0x3EA PUSH1 0x4 DUP1 CALLDATASIZE SUB DUP2 ADD SWAP1 PUSH2 0x3E5 SWAP2 SWAP1 PUSH2 0x29AA JUMP JUMPDEST PUSH2 0xB34 JUMP JUMPDEST PUSH1 0x40 MLOAD PUSH2 0x3F7 SWAP2 SWAP1 PUSH2 0x22F7 JUMP JUMPDEST PUSH1 0x40 MLOAD DUP1 SWAP2 SUB SWAP1 RETURN JUMPDEST PUSH2 0x408 PUSH2 0xB9F JUMP JUMPDEST PUSH1 0x40 MLOAD PUSH2 0x415 SWAP2 SWAP1 PUSH2 0x28C0 JUMP JUMPDEST PUSH1 0x40 MLOAD DUP1 SWAP2 SUB SWAP1 RETURN JUMPDEST PUSH2 0x438 PUSH1 0x4 DUP1 CALLDATASIZE SUB DUP2 ADD SWAP1 PUSH2 0x433 SWAP2 SWAP1 PUSH2 0x2D3C JUMP JUMPDEST PUSH2 0xBA6 JUMP JUMPDEST STOP JUMPDEST PUSH2 0x442 PUSH2 0xBBC JUMP JUMPDEST PUSH1 0x40 MLOAD PUSH2 0x44F SWAP2 SWAP1 PUSH2 0x28C0 JUMP JUMPDEST PUSH1 0x40 MLOAD DUP1 SWAP2 SUB SWAP1 RETURN JUMPDEST PUSH2 0x472 PUSH1 0x4 DUP1 CALLDATASIZE SUB DUP2 ADD SWAP1 PUSH2 0x46D SWAP2 SWAP1 PUSH2 0x29AA JUMP JUMPDEST PUSH2 0xBE0 JUMP JUMPDEST STOP JUMPDEST PUSH2 0x48E PUSH1 0x4 DUP1 CALLDATASIZE SUB DUP2 ADD SWAP1 PUSH2 0x489 SWAP2 SWAP1 PUSH2 0x2D7C JUMP JUMPDEST PUSH2 0xC02 JUMP JUMPDEST PUSH1 0x40 MLOAD PUSH2 0x49B SWAP2 SWAP1 PUSH2 0x22F7 JUMP JUMPDEST PUSH1 0x40 MLOAD DUP1 SWAP2 SUB SWAP1 RETURN JUMPDEST PUSH2 0x4BE PUSH1 0x4 DUP1 CALLDATASIZE SUB DUP2 ADD SWAP1 PUSH2 0x4B9 SWAP2 SWAP1 PUSH2 0x2DBC JUMP JUMPDEST PUSH2 0xC96 JUMP JUMPDEST STOP JUMPDEST PUSH2 0x4DA PUSH1 0x4 DUP1 CALLDATASIZE SUB DUP2 ADD SWAP1 PUSH2 0x4D5 SWAP2 SWAP1 PUSH2 0x2E53 JUMP JUMPDEST PUSH2 0xD3E JUMP JUMPDEST STOP JUMPDEST PUSH1 0x0 DUP1 PUSH1 0x0 DUP4 DUP2 MSTORE PUSH1 0x20 ADD SWAP1 DUP2 MSTORE PUSH1 0x20 ADD PUSH1 0x0 KECCAK256 PUSH1 0x0 DUP5 PUSH20 0xFFFFFFFFFFFFFFFFFFFFFFFFFFFFFFFFFFFFFFFF AND PUSH20 0xFFFFFFFFFFFFFFFFFFFFFFFFFFFFFFFFFFFFFFFF AND DUP2 MSTORE PUSH1 0x20 ADD SWAP1 DUP2 MSTORE PUSH1 0x20 ADD PUSH1 0x0 KECCAK256 SLOAD SWAP1 POP SWAP3 SWAP2 POP POP JUMP JUMPDEST PUSH1 0x0 PUSH2 0x541 DUP3 PUSH2 0xDBA JUMP JUMPDEST SWAP1 POP SWAP2 SWAP1 POP JUMP JUMPDEST PUSH32 0xA49807205CE4D355092EF5A8A18F56E8913CF4A201FBE287825B095693C21775 PUSH2 0x572 DUP2 PUSH2 0xE34 JUMP JUMPDEST PUSH2 0x57B DUP3 PUSH2 0xE48 JUMP JUMPDEST POP POP JUMP JUMPDEST PUSH1 0x60 PUSH1 0x0 PUSH1 0x5 PUSH1 0x0 DUP5 DUP2 MSTORE PUSH1 0x20 ADD SWAP1 DUP2 MSTORE PUSH1 0x20 ADD PUSH1 0x0 KECCAK256 DUP1 SLOAD PUSH2 0x5A1 SWAP1 PUSH2 0x2EF6 JUMP JUMPDEST DUP1 PUSH1 0x1F ADD PUSH1 0x20 DUP1 SWAP2 DIV MUL PUSH1 0x20 ADD PUSH1 0x40 MLOAD SWAP1 DUP2 ADD PUSH1 0x40 MSTORE DUP1 SWAP3 SWAP2 SWAP1 DUP2 DUP2 MSTORE PUSH1 0x20 ADD DUP3 DUP1 SLOAD PUSH2 0x5CD SWAP1 PUSH2 0x2EF6 JUMP JUMPDEST DUP1 ISZERO PUSH2 0x61A JUMPI DUP1 PUSH1 0x1F LT PUSH2 0x5EF JUMPI PUSH2 0x100 DUP1 DUP4 SLOAD DIV MUL DUP4 MSTORE SWAP2 PUSH1 0x20 ADD SWAP2 PUSH2 0x61A JUMP JUMPDEST DUP3 ADD SWAP2 SWAP1 PUSH1 0x0 MSTORE PUSH1 0x20 PUSH1 0x0 KECCAK256 SWAP1 JUMPDEST DUP2 SLOAD DUP2 MSTORE SWAP1 PUSH1 0x1 ADD SWAP1 PUSH1 0x20 ADD DUP1 DUP4 GT PUSH2 0x5FD JUMPI DUP3 SWAP1 SUB PUSH1 0x1F AND DUP3 ADD SWAP2 JUMPDEST POP POP POP POP POP SWAP1 POP PUSH1 0x0 DUP2 MLOAD GT ISZERO PUSH2 0x634 JUMPI DUP1 SWAP2 POP POP PUSH2 0x641 JUMP JUMPDEST PUSH2 0x63D DUP4 PUSH2 0xE5B JUMP JUMPDEST SWAP2 POP POP JUMPDEST SWAP2 SWAP1 POP JUMP JUMPDEST PUSH32 0xA49807205CE4D355092EF5A8A18F56E8913CF4A201FBE287825B095693C21775 PUSH2 0x670 DUP2 PUSH2 0xE34 JUMP JUMPDEST DUP3 DUP3 PUSH1 0x5 PUSH1 0x0 DUP8 DUP2 MSTORE PUSH1 0x20 ADD SWAP1 DUP2 MSTORE PUSH1 0x20 ADD PUSH1 0x0 KECCAK256 SWAP2 DUP3 PUSH2 0x692 SWAP3 SWAP2 SWAP1 PUSH2 0x30DE JUMP JUMPDEST POP DUP4 PUSH32 0x6BB7FF708619BA0610CBA295A58592E0451DEE2622938C8755667688DAF3529B DUP5 DUP5 PUSH1 0x40 MLOAD PUSH2 0x6C5 SWAP3 SWAP2 SWAP1 PUSH2 0x31DB JUMP JUMPDEST PUSH1 0x40 MLOAD DUP1 SWAP2 SUB SWAP1 LOG2 POP POP POP POP JUMP JUMPDEST PUSH32 0x9F2DF0FED2C77648DE5860A4CC508CD0818C85B8B8A1AB4CEEEF8D981C8956A6 PUSH2 0x6FD DUP2 PUSH2 0xE34 JUMP JUMPDEST PUSH2 0x705 PUSH2 0xEEF JUMP JUMPDEST PUSH2 0x711 DUP6 DUP6 DUP6 DUP6 PUSH2 0xF30 JUMP JUMPDEST POP POP POP POP POP JUMP JUMPDEST PUSH1 0x0 PUSH1 0x4 PUSH1 0x0 DUP4 DUP2 MSTORE PUSH1 0x20 ADD SWAP1 DUP2 MSTORE PUSH1 0x20 ADD PUSH1 0x0 KECCAK256 PUSH1 0x1 ADD SLOAD SWAP1 POP SWAP2 SWAP1 POP JUMP JUMPDEST PUSH32 0x3C11D16CBAFFD01DF69CE1C404F6340EE057498F5F00246190EA54220576A848 DUP2 JUMP JUMPDEST PUSH1 0x0 PUSH2 0x766 PUSH2 0xFB6 JUMP JUMPDEST SWAP1 POP DUP1 PUSH20 0xFFFFFFFFFFFFFFFFFFFFFFFFFFFFFFFFFFFFFFFF AND DUP7 PUSH20 0xFFFFFFFFFFFFFFFFFFFFFFFFFFFFFFFFFFFFFFFF AND EQ ISZERO DUP1 ISZERO PUSH2 0x7AB JUMPI POP PUSH2 0x7A9 DUP7 DUP3 PUSH2 0xC02 JUMP JUMPDEST ISZERO JUMPDEST ISZERO PUSH2 0x7EF JUMPI DUP1 DUP7 PUSH1 0x40 MLOAD PUSH32 0xE237D92200000000000000000000000000000000000000000000000000000000 DUP2 MSTORE PUSH1 0x4 ADD PUSH2 0x7E6 SWAP3 SWAP2 SWAP1 PUSH2 0x320E JUMP JUMPDEST PUSH1 0x40 MLOAD DUP1 SWAP2 SUB SWAP1 REVERT JUMPDEST PUSH2 0x7FC DUP7 DUP7 DUP7 DUP7 DUP7 PUSH2 0xFBE JUMP JUMPDEST POP POP POP POP POP POP JUMP JUMPDEST PUSH2 0x80D DUP3 PUSH2 0x718 JUMP JUMPDEST PUSH2 0x816 DUP2 PUSH2 0xE34 JUMP JUMPDEST PUSH2 0x820 DUP4 DUP4 PUSH2 0x10B6 JUMP JUMPDEST POP POP POP POP JUMP JUMPDEST PUSH2 0x82E PUSH2 0xFB6 JUMP JUMPDEST PUSH20 0xFFFFFFFFFFFFFFFFFFFFFFFFFFFFFFFFFFFFFFFF AND DUP2 PUSH20 0xFFFFFFFFFFFFFFFFFFFFFFFFFFFFFFFFFFFFFFFF AND EQ PUSH2 0x892 JUMPI PUSH1 0x40 MLOAD PUSH32 0x6697B23200000000000000000000000000000000000000000000000000000000 DUP2 MSTORE PUSH1 0x4 ADD PUSH1 0x40 MLOAD DUP1 SWAP2 SUB SWAP1 REVERT JUMPDEST PUSH2 0x89C DUP3 DUP3 PUSH2 0x11A8 JUMP JUMPDEST POP POP POP JUMP JUMPDEST PUSH2 0x8A9 PUSH2 0xEEF JUMP JUMPDEST PUSH32 0x3C11D16CBAFFD01DF69CE1C404F6340EE057498F5F00246190EA54220576A848 PUSH2 0x8D3 DUP2 PUSH2 0xE34 JUMP JUMPDEST PUSH2 0x8DE DUP7 DUP7 DUP7 PUSH2 0x129B JUMP JUMPDEST DUP5 DUP7 PUSH20 0xFFFFFFFFFFFFFFFFFFFFFFFFFFFFFFFFFFFFFFFF AND PUSH32 0xCE1F4E6C006F3B3EE890DDE9D4B5879DDB9F2256C15394F087298CE6FFD3D60C DUP7 DUP7 DUP7 TIMESTAMP PUSH1 0x40 MLOAD PUSH2 0x92B SWAP5 SWAP4 SWAP3 SWAP2 SWAP1 PUSH2 0x3237 JUMP JUMPDEST PUSH1 0x40 MLOAD DUP1 SWAP2 SUB SWAP1 LOG3 POP POP POP POP POP POP JUMP JUMPDEST PUSH32 0xA49807205CE4D355092EF5A8A18F56E8913CF4A201FBE287825B095693C21775 PUSH2 0x965 DUP2 PUSH2 0xE34 JUMP JUMPDEST PUSH2 0x96D PUSH2 0x1342 JUMP JUMPDEST POP JUMP JUMPDEST PUSH1 0x60 DUP2 MLOAD DUP4 MLOAD EQ PUSH2 0x9BC JUMPI DUP2 MLOAD DUP4 MLOAD PUSH1 0x40 MLOAD PUSH32 0x5B05999100000000000000000000000000000000000000000000000000000000 DUP2 MSTORE PUSH1 0x4 ADD PUSH2 0x9B3 SWAP3 SWAP2 SWAP1 PUSH2 0x3277 JUMP JUMPDEST PUSH1 0x40 MLOAD DUP1 SWAP2 SUB SWAP1 REVERT JUMPDEST PUSH1 0x0 DUP4 MLOAD PUSH8 0xFFFFFFFFFFFFFFFF DUP2 GT ISZERO PUSH2 0x9D9 JUMPI PUSH2 0x9D8 PUSH2 0x232D JUMP JUMPDEST JUMPDEST PUSH1 0x40 MLOAD SWAP1 DUP1 DUP3 MSTORE DUP1 PUSH1 0x20 MUL PUSH1 0x20 ADD DUP3 ADD PUSH1 0x40 MSTORE DUP1 ISZERO PUSH2 0xA07 JUMPI DUP2 PUSH1 0x20 ADD PUSH1 0x20 DUP3 MUL DUP1 CALLDATASIZE DUP4 CALLDATACOPY DUP1 DUP3 ADD SWAP2 POP POP SWAP1 POP JUMPDEST POP SWAP1 POP PUSH1 0x0 JUMPDEST DUP5 MLOAD DUP2 LT ISZERO PUSH2 0xA74 JUMPI PUSH2 0xA44 PUSH2 0xA2C DUP3 DUP8 PUSH2 0x13A5 SWAP1 SWAP2 SWAP1 PUSH4 0xFFFFFFFF AND JUMP JUMPDEST PUSH2 0xA3F DUP4 DUP8 PUSH2 0x13B9 SWAP1 SWAP2 SWAP1 PUSH4 0xFFFFFFFF AND JUMP JUMPDEST PUSH2 0x4DC JUMP JUMPDEST DUP3 DUP3 DUP2 MLOAD DUP2 LT PUSH2 0xA57 JUMPI PUSH2 0xA56 PUSH2 0x32A0 JUMP JUMPDEST JUMPDEST PUSH1 0x20 MUL PUSH1 0x20 ADD ADD DUP2 DUP2 MSTORE POP POP DUP1 PUSH2 0xA6D SWAP1 PUSH2 0x32FE JUMP JUMPDEST SWAP1 POP PUSH2 0xA0D JUMP JUMPDEST POP DUP1 SWAP2 POP POP SWAP3 SWAP2 POP POP JUMP JUMPDEST PUSH1 0x0 PUSH1 0x3 PUSH1 0x0 SWAP1 SLOAD SWAP1 PUSH2 0x100 EXP SWAP1 DIV PUSH1 0xFF AND SWAP1 POP SWAP1 JUMP JUMPDEST PUSH32 0x9F2DF0FED2C77648DE5860A4CC508CD0818C85B8B8A1AB4CEEEF8D981C8956A6 PUSH2 0xAC0 DUP2 PUSH2 0xE34 JUMP JUMPDEST PUSH2 0xAC8 PUSH2 0xEEF JUMP JUMPDEST PUSH2 0xAD4 DUP6 DUP6 DUP6 DUP6 PUSH2 0x13CD JUMP JUMPDEST POP POP POP POP POP JUMP JUMPDEST PUSH32 0xA49807205CE4D355092EF5A8A18F56E8913CF4A201FBE287825B095693C21775 DUP2 JUMP JUMPDEST PUSH32 0xA49807205CE4D355092EF5A8A18F56E8913CF4A201FBE287825B095693C21775 PUSH2 0xB29 DUP2 PUSH2 0xE34 JUMP JUMPDEST PUSH2 0xB31 PUSH2 0x1466 JUMP JUMPDEST POP JUMP JUMPDEST PUSH1 0x0 PUSH1 0x4 PUSH1 0x0 DUP5 DUP2 MSTORE PUSH1 0x20 ADD SWAP1 DUP2 MSTORE PUSH1 0x20 ADD PUSH1 0x0 KECCAK256 PUSH1 0x0 ADD PUSH1 0x0 DUP4 PUSH20 0xFFFFFFFFFFFFFFFFFFFFFFFFFFFFFFFFFFFFFFFF AND PUSH20 0xFFFFFFFFFFFFFFFFFFFFFFFFFFFFFFFFFFFFFFFF AND DUP2 MSTORE PUSH1 0x20 ADD SWAP1 DUP2 MSTORE PUSH1 0x20 ADD PUSH1 0x0 KECCAK256 PUSH1 0x0 SWAP1 SLOAD SWAP1 PUSH2 0x100 EXP SWAP1 DIV PUSH1 0xFF AND SWAP1 POP SWAP3 SWAP2 POP POP JUMP JUMPDEST PUSH1 0x0 DUP1 SHL DUP2 JUMP JUMPDEST PUSH2 0xBB8 PUSH2 0xBB1 PUSH2 0xFB6 JUMP JUMPDEST DUP4 DUP4 PUSH2 0x14C9 JUMP JUMPDEST POP POP JUMP JUMPDEST PUSH32 0x9F2DF0FED2C77648DE5860A4CC508CD0818C85B8B8A1AB4CEEEF8D981C8956A6 DUP2 JUMP JUMPDEST PUSH2 0xBE9 DUP3 PUSH2 0x718 JUMP JUMPDEST PUSH2 0xBF2 DUP2 PUSH2 0xE34 JUMP JUMPDEST PUSH2 0xBFC DUP4 DUP4 PUSH2 0x11A8 JUMP JUMPDEST POP POP POP POP JUMP JUMPDEST PUSH1 0x0 PUSH1 0x1 PUSH1 0x0 DUP5 PUSH20 0xFFFFFFFFFFFFFFFFFFFFFFFFFFFFFFFFFFFFFFFF AND PUSH20 0xFFFFFFFFFFFFFFFFFFFFFFFFFFFFFFFFFFFFFFFF AND DUP2 MSTORE PUSH1 0x20 ADD SWAP1 DUP2 MSTORE PUSH1 0x20 ADD PUSH1 0x0 KECCAK256 PUSH1 0x0 DUP4 PUSH20 0xFFFFFFFFFFFFFFFFFFFFFFFFFFFFFFFFFFFFFFFF AND PUSH20 0xFFFFFFFFFFFFFFFFFFFFFFFFFFFFFFFFFFFFFFFF AND DUP2 MSTORE PUSH1 0x20 ADD SWAP1 DUP2 MSTORE PUSH1 0x20 ADD PUSH1 0x0 KECCAK256 PUSH1 0x0 SWAP1 SLOAD SWAP1 PUSH2 0x100 EXP SWAP1 DIV PUSH1 0xFF AND SWAP1 POP SWAP3 SWAP2 POP POP JUMP JUMPDEST PUSH1 0x0 PUSH2 0xCA0 PUSH2 0xFB6 JUMP JUMPDEST SWAP1 POP DUP1 PUSH20 0xFFFFFFFFFFFFFFFFFFFFFFFFFFFFFFFFFFFFFFFF AND DUP7 PUSH20 0xFFFFFFFFFFFFFFFFFFFFFFFFFFFFFFFFFFFFFFFF AND EQ ISZERO DUP1 ISZERO PUSH2 0xCE5 JUMPI POP PUSH2 0xCE3 DUP7 DUP3 PUSH2 0xC02 JUMP JUMPDEST ISZERO JUMPDEST ISZERO PUSH2 0xD29 JUMPI DUP1 DUP7 PUSH1 0x40 MLOAD PUSH32 0xE237D92200000000000000000000000000000000000000000000000000000000 DUP2 MSTORE PUSH1 0x4 ADD PUSH2 0xD20 SWAP3 SWAP2 SWAP1 PUSH2 0x320E JUMP JUMPDEST PUSH1 0x40 MLOAD DUP1 SWAP2 SUB SWAP1 REVERT JUMPDEST PUSH2 0xD36 DUP7 DUP7 DUP7 DUP7 DUP7 PUSH2 0x1639 JUMP JUMPDEST POP POP POP POP POP POP JUMP JUMPDEST PUSH2 0xD46 PUSH2 0xEEF JUMP JUMPDEST PUSH2 0xD58 PUSH2 0xD51 PUSH2 0xFB6 JUMP JUMPDEST DUP6 DUP6 PUSH2 0x129B JUMP JUMPDEST DUP4 PUSH2 0xD61 PUSH2 0xFB6 JUMP JUMPDEST PUSH20 0xFFFFFFFFFFFFFFFFFFFFFFFFFFFFFFFFFFFFFFFF AND PUSH32 0xCE1F4E6C006F3B3EE890DDE9D4B5879DDB9F2256C15394F087298CE6FFD3D60C DUP6 DUP6 DUP6 TIMESTAMP PUSH1 0x40 MLOAD PUSH2 0xDAC SWAP5 SWAP4 SWAP3 SWAP2 SWAP1 PUSH2 0x3237 JUMP JUMPDEST PUSH1 0x40 MLOAD DUP1 SWAP2 SUB SWAP1 LOG3 POP POP POP POP JUMP JUMPDEST PUSH1 0x0 PUSH32 0x7965DB0B00000000000000000000000000000000000000000000000000000000 PUSH28 0xFFFFFFFFFFFFFFFFFFFFFFFFFFFFFFFFFFFFFFFFFFFFFFFFFFFFFFFF NOT AND DUP3 PUSH28 0xFFFFFFFFFFFFFFFFFFFFFFFFFFFFFFFFFFFFFFFFFFFFFFFFFFFFFFFF NOT AND EQ DUP1 PUSH2 0xE2D JUMPI POP PUSH2 0xE2C DUP3 PUSH2 0x1744 JUMP JUMPDEST JUMPDEST SWAP1 POP SWAP2 SWAP1 POP JUMP JUMPDEST PUSH2 0xE45 DUP2 PUSH2 0xE40 PUSH2 0xFB6 JUMP JUMPDEST PUSH2 0x1826 JUMP JUMPDEST POP JUMP JUMPDEST DUP1 PUSH1 0x2 SWAP1 DUP2 PUSH2 0xE57 SWAP2 SWAP1 PUSH2 0x3346 JUMP JUMPDEST POP POP JUMP JUMPDEST PUSH1 0x60 PUSH1 0x2 DUP1 SLOAD PUSH2 0xE6A SWAP1 PUSH2 0x2EF6 JUMP JUMPDEST DUP1 PUSH1 0x1F ADD PUSH1 0x20 DUP1 SWAP2 DIV MUL PUSH1 0x20 ADD PUSH1 0x40 MLOAD SWAP1 DUP2 ADD PUSH1 0x40 MSTORE DUP1 SWAP3 SWAP2 SWAP1 DUP2 DUP2 MSTORE PUSH1 0x20 ADD DUP3 DUP1 SLOAD PUSH2 0xE96 SWAP1 PUSH2 0x2EF6 JUMP JUMPDEST DUP1 ISZERO PUSH2 0xEE3 JUMPI DUP1 PUSH1 0x1F LT PUSH2 0xEB8 JUMPI PUSH2 0x100 DUP1 DUP4 SLOAD DIV MUL DUP4 MSTORE SWAP2 PUSH1 0x20 ADD SWAP2 PUSH2 0xEE3 JUMP JUMPDEST DUP3 ADD SWAP2 SWAP1 PUSH1 0x0 MSTORE PUSH1 0x20 PUSH1 0x0 KECCAK256 SWAP1 JUMPDEST DUP2 SLOAD DUP2 MSTORE SWAP1 PUSH1 0x1 ADD SWAP1 PUSH1 0x20 ADD DUP1 DUP4 GT PUSH2 0xEC6 JUMPI DUP3 SWAP1 SUB PUSH1 0x1F AND DUP3 ADD SWAP2 JUMPDEST POP POP POP POP POP SWAP1 POP SWAP2 SWAP1 POP JUMP JUMPDEST PUSH2 0xEF7 PUSH2 0xA7F JUMP JUMPDEST ISZERO PUSH2 0xF2E JUMPI PUSH1 0x40 MLOAD PUSH32 0xD93C066500000000000000000000000000000000000000000000000000000000 DUP2 MSTORE PUSH1 0x4 ADD PUSH1 0x40 MLOAD DUP1 SWAP2 SUB SWAP1 REVERT JUMPDEST JUMP JUMPDEST PUSH1 0x0 PUSH20 0xFFFFFFFFFFFFFFFFFFFFFFFFFFFFFFFFFFFFFFFF AND DUP5 PUSH20 0xFFFFFFFFFFFFFFFFFFFFFFFFFFFFFFFFFFFFFFFF AND SUB PUSH2 0xFA2 JUMPI PUSH1 0x0 PUSH1 0x40 MLOAD PUSH32 0x57F447CE00000000000000000000000000000000000000000000000000000000 DUP2 MSTORE PUSH1 0x4 ADD PUSH2 0xF99 SWAP2 SWAP1 PUSH2 0x3418 JUMP JUMPDEST PUSH1 0x40 MLOAD DUP1 SWAP2 SUB SWAP1 REVERT JUMPDEST PUSH2 0xFB0 PUSH1 0x0 DUP6 DUP6 DUP6 DUP6 PUSH2 0x1877 JUMP JUMPDEST POP POP POP POP JUMP JUMPDEST PUSH1 0x0 CALLER SWAP1 POP SWAP1 JUMP JUMPDEST PUSH1 0x0 PUSH20 0xFFFFFFFFFFFFFFFFFFFFFFFFFFFFFFFFFFFFFFFF AND DUP5 PUSH20 0xFFFFFFFFFFFFFFFFFFFFFFFFFFFFFFFFFFFFFFFF AND SUB PUSH2 0x1030 JUMPI PUSH1 0x0 PUSH1 0x40 MLOAD PUSH32 0x57F447CE00000000000000000000000000000000000000000000000000000000 DUP2 MSTORE PUSH1 0x4 ADD PUSH2 0x1027 SWAP2 SWAP1 PUSH2 0x3418 JUMP JUMPDEST PUSH1 0x40 MLOAD DUP1 SWAP2 SUB SWAP1 REVERT JUMPDEST PUSH1 0x0 PUSH20 0xFFFFFFFFFFFFFFFFFFFFFFFFFFFFFFFFFFFFFFFF AND DUP6 PUSH20 0xFFFFFFFFFFFFFFFFFFFFFFFFFFFFFFFFFFFFFFFF AND SUB PUSH2 0x10A2 JUMPI PUSH1 0x0 PUSH1 0x40 MLOAD PUSH32 0x1A8351400000000000000000000000000000000000000000000000000000000 DUP2 MSTORE PUSH1 0x4 ADD PUSH2 0x1099 SWAP2 SWAP1 PUSH2 0x3418 JUMP JUMPDEST PUSH1 0x40 MLOAD DUP1 SWAP2 SUB SWAP1 REVERT JUMPDEST PUSH2 0x10AF DUP6 DUP6 DUP6 DUP6 DUP6 PUSH2 0x1877 JUMP JUMPDEST POP POP POP POP POP JUMP JUMPDEST PUSH1 0x0 PUSH2 0x10C2 DUP4 DUP4 PUSH2 0xB34 JUMP JUMPDEST PUSH2 0x119D JUMPI PUSH1 0x1 PUSH1 0x4 PUSH1 0x0 DUP6 DUP2 MSTORE PUSH1 0x20 ADD SWAP1 DUP2 MSTORE PUSH1 0x20 ADD PUSH1 0x0 KECCAK256 PUSH1 0x0 ADD PUSH1 0x0 DUP5 PUSH20 0xFFFFFFFFFFFFFFFFFFFFFFFFFFFFFFFFFFFFFFFF AND PUSH20 0xFFFFFFFFFFFFFFFFFFFFFFFFFFFFFFFFFFFFFFFF AND DUP2 MSTORE PUSH1 0x20 ADD SWAP1 DUP2 MSTORE PUSH1 0x20 ADD PUSH1 0x0 KECCAK256 PUSH1 0x0 PUSH2 0x100 EXP DUP2 SLOAD DUP2 PUSH1 0xFF MUL NOT AND SWAP1 DUP4 ISZERO ISZERO MUL OR SWAP1 SSTORE POP PUSH2 0x113A PUSH2 0xFB6 JUMP JUMPDEST PUSH20 0xFFFFFFFFFFFFFFFFFFFFFFFFFFFFFFFFFFFFFFFF AND DUP3 PUSH20 0xFFFFFFFFFFFFFFFFFFFFFFFFFFFFFFFFFFFFFFFF AND DUP5 PUSH32 0x2F8788117E7EFF1D82E926EC794901D17C78024A50270940304540A733656F0D PUSH1 0x40 MLOAD PUSH1 0x40 MLOAD DUP1 SWAP2 SUB SWAP1 LOG4 PUSH1 0x1 SWAP1 POP PUSH2 0x11A2 JUMP JUMPDEST PUSH1 0x0 SWAP1 POP JUMPDEST SWAP3 SWAP2 POP POP JUMP JUMPDEST PUSH1 0x0 PUSH2 0x11B4 DUP4 DUP4 PUSH2 0xB34 JUMP JUMPDEST ISZERO PUSH2 0x1290 JUMPI PUSH1 0x0 PUSH1 0x4 PUSH1 0x0 DUP6 DUP2 MSTORE PUSH1 0x20 ADD SWAP1 DUP2 MSTORE PUSH1 0x20 ADD PUSH1 0x0 KECCAK256 PUSH1 0x0 ADD PUSH1 0x0 DUP5 PUSH20 0xFFFFFFFFFFFFFFFFFFFFFFFFFFFFFFFFFFFFFFFF AND PUSH20 0xFFFFFFFFFFFFFFFFFFFFFFFFFFFFFFFFFFFFFFFF AND DUP2 MSTORE PUSH1 0x20 ADD SWAP1 DUP2 MSTORE PUSH1 0x20 ADD PUSH1 0x0 KECCAK256 PUSH1 0x0 PUSH2 0x100 EXP DUP2 SLOAD DUP2 PUSH1 0xFF MUL NOT AND SWAP1 DUP4 ISZERO ISZERO MUL OR SWAP1 SSTORE POP PUSH2 0x122D PUSH2 0xFB6 JUMP JUMPDEST PUSH20 0xFFFFFFFFFFFFFFFFFFFFFFFFFFFFFFFFFFFFFFFF AND DUP3 PUSH20 0xFFFFFFFFFFFFFFFFFFFFFFFFFFFFFFFFFFFFFFFF AND DUP5 PUSH32 0xF6391F5C32D9C69D2A47EA670B442974B53935D1EDC7FD64EB21E047A839171B PUSH1 0x40 MLOAD PUSH1 0x40 MLOAD DUP1 SWAP2 SUB SWAP1 LOG4 PUSH1 0x1 SWAP1 POP PUSH2 0x1295 JUMP JUMPDEST PUSH1 0x0 SWAP1 POP JUMPDEST SWAP3 SWAP2 POP POP JUMP JUMPDEST PUSH1 0x0 PUSH20 0xFFFFFFFFFFFFFFFFFFFFFFFFFFFFFFFFFFFFFFFF AND DUP4 PUSH20 0xFFFFFFFFFFFFFFFFFFFFFFFFFFFFFFFFFFFFFFFF AND SUB PUSH2 0x130D JUMPI PUSH1 0x0 PUSH1 0x40 MLOAD PUSH32 0x1A8351400000000000000000000000000000000000000000000000000000000 DUP2 MSTORE PUSH1 0x4 ADD PUSH2 0x1304 SWAP2 SWAP1 PUSH2 0x3418 JUMP JUMPDEST PUSH1 0x40 MLOAD DUP1 SWAP2 SUB SWAP1 REVERT JUMPDEST PUSH1 0x0 DUP1 PUSH2 0x131A DUP5 DUP5 PUSH2 0x1929 JUMP JUMPDEST SWAP2 POP SWAP2 POP PUSH2 0x133B DUP6 PUSH1 0x0 DUP5 DUP5 PUSH1 0x40 MLOAD DUP1 PUSH1 0x20 ADD PUSH1 0x40 MSTORE DUP1 PUSH1 0x0 DUP2 MSTORE POP PUSH2 0x1877 JUMP JUMPDEST POP POP POP POP POP JUMP JUMPDEST PUSH2 0x134A PUSH2 0x1959 JUMP JUMPDEST PUSH1 0x0 PUSH1 0x3 PUSH1 0x0 PUSH2 0x100 EXP DUP2 SLOAD DUP2 PUSH1 0xFF MUL NOT AND SWAP1 DUP4 ISZERO ISZERO MUL OR SWAP1 SSTORE POP PUSH32 0x5DB9EE0A495BF2E6FF9C91A7834C1BA4FDD244A5E8AA4E537BD38AEAE4B073AA PUSH2 0x138E PUSH2 0xFB6 JUMP JUMPDEST PUSH1 0x40 MLOAD PUSH2 0x139B SWAP2 SWAP1 PUSH2 0x3418 JUMP JUMPDEST PUSH1 0x40 MLOAD DUP1 SWAP2 SUB SWAP1 LOG1 JUMP JUMPDEST PUSH1 0x0 PUSH1 0x20 DUP3 MUL PUSH1 0x20 DUP5 ADD ADD MLOAD SWAP1 POP SWAP3 SWAP2 POP POP JUMP JUMPDEST PUSH1 0x0 PUSH1 0x20 DUP3 MUL PUSH1 0x20 DUP5 ADD ADD MLOAD SWAP1 POP SWAP3 SWAP2 POP POP JUMP JUMPDEST PUSH1 0x0 PUSH20 0xFFFFFFFFFFFFFFFFFFFFFFFFFFFFFFFFFFFFFFFF AND DUP5 PUSH20 0xFFFFFFFFFFFFFFFFFFFFFFFFFFFFFFFFFFFFFFFF AND SUB PUSH2 0x143F JUMPI PUSH1 0x0 PUSH1 0x40 MLOAD PUSH32 0x57F447CE00000000000000000000000000000000000000000000000000000000 DUP2 MSTORE PUSH1 0x4 ADD PUSH2 0x1436 SWAP2 SWAP1 PUSH2 0x3418 JUMP JUMPDEST PUSH1 0x40 MLOAD DUP1 SWAP2 SUB SWAP1 REVERT JUMPDEST PUSH1 0x0 DUP1 PUSH2 0x144C DUP6 DUP6 PUSH2 0x1929 JUMP JUMPDEST SWAP2 POP SWAP2 POP PUSH2 0x145E PUSH1 0x0 DUP8 DUP5 DUP5 DUP8 PUSH2 0x1877 JUMP JUMPDEST POP POP POP POP POP POP JUMP JUMPDEST PUSH2 0x146E PUSH2 0xEEF JUMP JUMPDEST PUSH1 0x1 PUSH1 0x3 PUSH1 0x0 PUSH2 0x100 EXP DUP2 SLOAD DUP2 PUSH1 0xFF MUL NOT AND SWAP1 DUP4 ISZERO ISZERO MUL OR SWAP1 SSTORE POP PUSH32 0x62E78CEA01BEE320CD4E420270B5EA74000D11B0C9F74754EBDBFC544B05A258 PUSH2 0x14B2 PUSH2 0xFB6 JUMP JUMPDEST PUSH1 0x40 MLOAD PUSH2 0x14BF SWAP2 SWAP1 PUSH2 0x3418 JUMP JUMPDEST PUSH1 0x40 MLOAD DUP1 SWAP2 SUB SWAP1 LOG1 JUMP JUMPDEST PUSH1 0x0 PUSH20 0xFFFFFFFFFFFFFFFFFFFFFFFFFFFFFFFFFFFFFFFF AND DUP3 PUSH20 0xFFFFFFFFFFFFFFFFFFFFFFFFFFFFFFFFFFFFFFFF AND SUB PUSH2 0x153B JUMPI PUSH1 0x0 PUSH1 0x40 MLOAD PUSH32 0xCED3E10000000000000000000000000000000000000000000000000000000000 DUP2 MSTORE PUSH1 0x4 ADD PUSH2 0x1532 SWAP2 SWAP1 PUSH2 0x3418 JUMP JUMPDEST PUSH1 0x40 MLOAD DUP1 SWAP2 SUB SWAP1 REVERT JUMPDEST DUP1 PUSH1 0x1 PUSH1 0x0 DUP6 PUSH20 0xFFFFFFFFFFFFFFFFFFFFFFFFFFFFFFFFFFFFFFFF AND PUSH20 0xFFFFFFFFFFFFFFFFFFFFFFFFFFFFFFFFFFFFFFFF AND DUP2 MSTORE PUSH1 0x20 ADD SWAP1 DUP2 MSTORE PUSH1 0x20 ADD PUSH1 0x0 KECCAK256 PUSH1 0x0 DUP5 PUSH20 0xFFFFFFFFFFFFFFFFFFFFFFFFFFFFFFFFFFFFFFFF AND PUSH20 0xFFFFFFFFFFFFFFFFFFFFFFFFFFFFFFFFFFFFFFFF AND DUP2 MSTORE PUSH1 0x20 ADD SWAP1 DUP2 MSTORE PUSH1 0x20 ADD PUSH1 0x0 KECCAK256 PUSH1 0x0 PUSH2 0x100 EXP DUP2 SLOAD DUP2 PUSH1 0xFF MUL NOT AND SWAP1 DUP4 ISZERO ISZERO MUL OR SWAP1 SSTORE POP DUP2 PUSH20 0xFFFFFFFFFFFFFFFFFFFFFFFFFFFFFFFFFFFFFFFF AND DUP4 PUSH20 0xFFFFFFFFFFFFFFFFFFFFFFFFFFFFFFFFFFFFFFFF AND PUSH32 0x17307EAB39AB6107E8899845AD3D59BD9653F200F220920489CA2B5937696C31 DUP4 PUSH1 0x40 MLOAD PUSH2 0x162C SWAP2 SWAP1 PUSH2 0x22F7 JUMP JUMPDEST PUSH1 0x40 MLOAD DUP1 SWAP2 SUB SWAP1 LOG3 POP POP POP JUMP JUMPDEST PUSH1 0x0 PUSH20 0xFFFFFFFFFFFFFFFFFFFFFFFFFFFFFFFFFFFFFFFF AND DUP5 PUSH20 0xFFFFFFFFFFFFFFFFFFFFFFFFFFFFFFFFFFFFFFFF AND SUB PUSH2 0x16AB JUMPI PUSH1 0x0 PUSH1 0x40 MLOAD PUSH32 0x57F447CE00000000000000000000000000000000000000000000000000000000 DUP2 MSTORE PUSH1 0x4 ADD PUSH2 0x16A2 SWAP2 SWAP1 PUSH2 0x3418 JUMP JUMPDEST PUSH1 0x40 MLOAD DUP1 SWAP2 SUB SWAP1 REVERT JUMPDEST PUSH1 0x0 PUSH20 0xFFFFFFFFFFFFFFFFFFFFFFFFFFFFFFFFFFFFFFFF AND DUP6 PUSH20 0xFFFFFFFFFFFFFFFFFFFFFFFFFFFFFFFFFFFFFFFF AND SUB PUSH2 0x171D JUMPI PUSH1 0x0 PUSH1 0x40 MLOAD PUSH32 0x1A8351400000000000000000000000000000000000000000000000000000000 DUP2 MSTORE PUSH1 0x4 ADD PUSH2 0x1714 SWAP2 SWAP1 PUSH2 0x3418 JUMP JUMPDEST PUSH1 0x40 MLOAD DUP1 SWAP2 SUB SWAP1 REVERT JUMPDEST PUSH1 0x0 DUP1 PUSH2 0x172A DUP6 DUP6 PUSH2 0x1929 JUMP JUMPDEST SWAP2 POP SWAP2 POP PUSH2 0x173B DUP8 DUP8 DUP5 DUP5 DUP8 PUSH2 0x1877 JUMP JUMPDEST POP POP POP POP POP POP POP JUMP JUMPDEST PUSH1 0x0 PUSH32 0xD9B67A2600000000000000000000000000000000000000000000000000000000 PUSH28 0xFFFFFFFFFFFFFFFFFFFFFFFFFFFFFFFFFFFFFFFFFFFFFFFFFFFFFFFF NOT AND DUP3 PUSH28 0xFFFFFFFFFFFFFFFFFFFFFFFFFFFFFFFFFFFFFFFFFFFFFFFFFFFFFFFF NOT AND EQ DUP1 PUSH2 0x180F JUMPI POP PUSH32 0xE89341C00000000000000000000000000000000000000000000000000000000 PUSH28 0xFFFFFFFFFFFFFFFFFFFFFFFFFFFFFFFFFFFFFFFFFFFFFFFFFFFFFFFF NOT AND DUP3 PUSH28 0xFFFFFFFFFFFFFFFFFFFFFFFFFFFFFFFFFFFFFFFFFFFFFFFFFFFFFFFF NOT AND EQ JUMPDEST DUP1 PUSH2 0x181F JUMPI POP PUSH2 0x181E DUP3 PUSH2 0x1999 JUMP JUMPDEST JUMPDEST SWAP1 POP SWAP2 SWAP1 POP JUMP JUMPDEST PUSH2 0x1830 DUP3 DUP3 PUSH2 0xB34 JUMP JUMPDEST PUSH2 0x1873 JUMPI DUP1 DUP3 PUSH1 0x40 MLOAD PUSH32 0xE2517D3F00000000000000000000000000000000000000000000000000000000 DUP2 MSTORE PUSH1 0x4 ADD PUSH2 0x186A SWAP3 SWAP2 SWAP1 PUSH2 0x3433 JUMP JUMPDEST PUSH1 0x40 MLOAD DUP1 SWAP2 SUB SWAP1 REVERT JUMPDEST POP POP JUMP JUMPDEST PUSH2 0x1883 DUP6 DUP6 DUP6 DUP6 PUSH2 0x1A03 JUMP JUMPDEST PUSH1 0x0 PUSH20 0xFFFFFFFFFFFFFFFFFFFFFFFFFFFFFFFFFFFFFFFF AND DUP5 PUSH20 0xFFFFFFFFFFFFFFFFFFFFFFFFFFFFFFFFFFFFFFFF AND EQ PUSH2 0x1922 JUMPI PUSH1 0x0 PUSH2 0x18C1 PUSH2 0xFB6 JUMP JUMPDEST SWAP1 POP PUSH1 0x1 DUP5 MLOAD SUB PUSH2 0x1911 JUMPI PUSH1 0x0 PUSH2 0x18E2 PUSH1 0x0 DUP7 PUSH2 0x13B9 SWAP1 SWAP2 SWAP1 PUSH4 0xFFFFFFFF AND JUMP JUMPDEST SWAP1 POP PUSH1 0x0 PUSH2 0x18FA PUSH1 0x0 DUP7 PUSH2 0x13B9 SWAP1 SWAP2 SWAP1 PUSH4 0xFFFFFFFF AND JUMP JUMPDEST SWAP1 POP PUSH2 0x190A DUP4 DUP10 DUP10 DUP6 DUP6 DUP10 PUSH2 0x1A15 JUMP JUMPDEST POP POP PUSH2 0x1920 JUMP JUMPDEST PUSH2 0x191F DUP2 DUP8 DUP8 DUP8 DUP8 DUP8 PUSH2 0x1BC9 JUMP JUMPDEST JUMPDEST POP JUMPDEST POP POP POP POP POP JUMP JUMPDEST PUSH1 0x60 DUP1 PUSH1 0x40 MLOAD SWAP2 POP PUSH1 0x1 DUP3 MSTORE DUP4 PUSH1 0x20 DUP4 ADD MSTORE PUSH1 0x40 DUP3 ADD SWAP1 POP PUSH1 0x1 DUP2 MSTORE DUP3 PUSH1 0x20 DUP3 ADD MSTORE PUSH1 0x40 DUP2 ADD PUSH1 0x40 MSTORE SWAP3 POP SWAP3 SWAP1 POP JUMP JUMPDEST PUSH2 0x1961 PUSH2 0xA7F JUMP JUMPDEST PUSH2 0x1997 JUMPI PUSH1 0x40 MLOAD PUSH32 0x8DFC202B00000000000000000000000000000000000000000000000000000000 DUP2 MSTORE PUSH1 0x4 ADD PUSH1 0x40 MLOAD DUP1 SWAP2 SUB SWAP1 REVERT JUMPDEST JUMP JUMPDEST PUSH1 0x0 PUSH32 0x1FFC9A700000000000000000000000000000000000000000000000000000000 PUSH28 0xFFFFFFFFFFFFFFFFFFFFFFFFFFFFFFFFFFFFFFFFFFFFFFFFFFFFFFFF NOT AND DUP3 PUSH28 0xFFFFFFFFFFFFFFFFFFFFFFFFFFFFFFFFFFFFFFFFFFFFFFFFFFFFFFFF NOT AND EQ SWAP1 POP SWAP2 SWAP1 POP JUMP JUMPDEST PUSH2 0x1A0F DUP5 DUP5 DUP5 DUP5 PUSH2 0x1D7D JUMP JUMPDEST POP POP POP POP JUMP JUMPDEST PUSH1 0x0 DUP5 PUSH20 0xFFFFFFFFFFFFFFFFFFFFFFFFFFFFFFFFFFFFFFFF AND EXTCODESIZE GT ISZERO PUSH2 0x1BC1 JUMPI DUP4 PUSH20 0xFFFFFFFFFFFFFFFFFFFFFFFFFFFFFFFFFFFFFFFF AND PUSH4 0xF23A6E61 DUP8 DUP8 DUP7 DUP7 DUP7 PUSH1 0x40 MLOAD DUP7 PUSH4 0xFFFFFFFF AND PUSH1 0xE0 SHL DUP2 MSTORE PUSH1 0x4 ADD PUSH2 0x1A76 SWAP6 SWAP5 SWAP4 SWAP3 SWAP2 SWAP1 PUSH2 0x34B1 JUMP JUMPDEST PUSH1 0x20 PUSH1 0x40 MLOAD DUP1 DUP4 SUB DUP2 PUSH1 0x0 DUP8 GAS CALL SWAP3 POP POP POP DUP1 ISZERO PUSH2 0x1AB2 JUMPI POP PUSH1 0x40 MLOAD RETURNDATASIZE PUSH1 0x1F NOT PUSH1 0x1F DUP3 ADD AND DUP3 ADD DUP1 PUSH1 0x40 MSTORE POP DUP2 ADD SWAP1 PUSH2 0x1AAF SWAP2 SWAP1 PUSH2 0x3520 JUMP JUMPDEST PUSH1 0x1 JUMPDEST PUSH2 0x1B36 JUMPI RETURNDATASIZE DUP1 PUSH1 0x0 DUP2 EQ PUSH2 0x1AE2 JUMPI PUSH1 0x40 MLOAD SWAP2 POP PUSH1 0x1F NOT PUSH1 0x3F RETURNDATASIZE ADD AND DUP3 ADD PUSH1 0x40 MSTORE RETURNDATASIZE DUP3 MSTORE RETURNDATASIZE PUSH1 0x0 PUSH1 0x20 DUP5 ADD RETURNDATACOPY PUSH2 0x1AE7 JUMP JUMPDEST PUSH1 0x60 SWAP2 POP JUMPDEST POP PUSH1 0x0 DUP2 MLOAD SUB PUSH2 0x1B2E JUMPI DUP5 PUSH1 0x40 MLOAD PUSH32 0x57F447CE00000000000000000000000000000000000000000000000000000000 DUP2 MSTORE PUSH1 0x4 ADD PUSH2 0x1B25 SWAP2 SWAP1 PUSH2 0x3418 JUMP JUMPDEST PUSH1 0x40 MLOAD DUP1 SWAP2 SUB SWAP1 REVERT JUMPDEST DUP1 MLOAD PUSH1 0x20 DUP3 ADD REVERT JUMPDEST PUSH4 0xF23A6E61 PUSH1 0xE0 SHL PUSH28 0xFFFFFFFFFFFFFFFFFFFFFFFFFFFFFFFFFFFFFFFFFFFFFFFFFFFFFFFF NOT AND DUP2 PUSH28 0xFFFFFFFFFFFFFFFFFFFFFFFFFFFFFFFFFFFFFFFFFFFFFFFFFFFFFFFF NOT AND EQ PUSH2 0x1BBF JUMPI DUP5 PUSH1 0x40 MLOAD PUSH32 0x57F447CE00000000000000000000000000000000000000000000000000000000 DUP2 MSTORE PUSH1 0x4 ADD PUSH2 0x1BB6 SWAP2 SWAP1 PUSH2 0x3418 JUMP JUMPDEST PUSH1 0x40 MLOAD DUP1 SWAP2 SUB SWAP1 REVERT JUMPDEST POP JUMPDEST POP POP POP POP POP POP JUMP JUMPDEST PUSH1 0x0 DUP5 PUSH20 0xFFFFFFFFFFFFFFFFFFFFFFFFFFFFFFFFFFFFFFFF AND EXTCODESIZE GT ISZERO PUSH2 0x1D75 JUMPI DUP4 PUSH20 0xFFFFFFFFFFFFFFFFFFFFFFFFFFFFFFFFFFFFFFFF AND PUSH4 0xBC197C81 DUP8 DUP8 DUP7 DUP7 DUP7 PUSH1 0x40 MLOAD DUP7 PUSH4 0xFFFFFFFF AND PUSH1 0xE0 SHL DUP2 MSTORE PUSH1 0x4 ADD PUSH2 0x1C2A SWAP6 SWAP5 SWAP4 SWAP3 SWAP2 SWAP1 PUSH2 0x354D JUMP JUMPDEST PUSH1 0x20 PUSH1 0x40 MLOAD DUP1 DUP4 SUB DUP2 PUSH1 0x0 DUP8 GAS CALL SWAP3 POP POP POP DUP1 ISZERO PUSH2 0x1C66 JUMPI POP PUSH1 0x40 MLOAD RETURNDATASIZE PUSH1 0x1F NOT PUSH1 0x1F DUP3 ADD AND DUP3 ADD DUP1 PUSH1 0x40 MSTORE POP DUP2 ADD SWAP1 PUSH2 0x1C63 SWAP2 SWAP1 PUSH2 0x3520 JUMP JUMPDEST PUSH1 0x1 JUMPDEST PUSH2 0x1CEA JUMPI RETURNDATASIZE DUP1 PUSH1 0x0 DUP2 EQ PUSH2 0x1C96 JUMPI PUSH1 0x40 MLOAD SWAP2 POP PUSH1 0x1F NOT PUSH1 0x3F RETURNDATASIZE ADD AND DUP3 ADD PUSH1 0x40 MSTORE RETURNDATASIZE DUP3 MSTORE RETURNDATASIZE PUSH1 0x0 PUSH1 0x20 DUP5 ADD RETURNDATACOPY PUSH2 0x1C9B JUMP JUMPDEST PUSH1 0x60 SWAP2 POP JUMPDEST POP PUSH1 0x0 DUP2 MLOAD SUB PUSH2 0x1CE2 JUMPI DUP5 PUSH1 0x40 MLOAD PUSH32 0x57F447CE00000000000000000000000000000000000000000000000000000000 DUP2 MSTORE PUSH1 0x4 ADD PUSH2 0x1CD9 SWAP2 SWAP1 PUSH2 0x3418 JUMP JUMPDEST PUSH1 0x40 MLOAD DUP1 SWAP2 SUB SWAP1 REVERT JUMPDEST DUP1 MLOAD PUSH1 0x20 DUP3 ADD REVERT JUMPDEST PUSH4 0xBC197C81 PUSH1 0xE0 SHL PUSH28 0xFFFFFFFFFFFFFFFFFFFFFFFFFFFFFFFFFFFFFFFFFFFFFFFFFFFFFFFF NOT AND DUP2 PUSH28 0xFFFFFFFFFFFFFFFFFFFFFFFFFFFFFFFFFFFFFFFFFFFFFFFFFFFFFFFF NOT AND EQ PUSH2 0x1D73 JUMPI DUP5 PUSH1 0x40 MLOAD PUSH32 0x57F447CE00000000000000000000000000000000000000000000000000000000 DUP2 MSTORE PUSH1 0x4 ADD PUSH2 0x1D6A SWAP2 SWAP1 PUSH2 0x3418 JUMP JUMPDEST PUSH1 0x40 MLOAD DUP1 SWAP2 SUB SWAP1 REVERT JUMPDEST POP JUMPDEST POP POP POP POP POP POP JUMP JUMPDEST PUSH2 0x1D85 PUSH2 0xEEF JUMP JUMPDEST PUSH2 0x1D91 DUP5 DUP5 DUP5 DUP5 PUSH2 0x1D97 JUMP JUMPDEST POP POP POP POP JUMP JUMPDEST DUP1 MLOAD DUP3 MLOAD EQ PUSH2 0x1DE1 JUMPI DUP2 MLOAD DUP2 MLOAD PUSH1 0x40 MLOAD PUSH32 0x5B05999100000000000000000000000000000000000000000000000000000000 DUP2 MSTORE PUSH1 0x4 ADD PUSH2 0x1DD8 SWAP3 SWAP2 SWAP1 PUSH2 0x3277 JUMP JUMPDEST PUSH1 0x40 MLOAD DUP1 SWAP2 SUB SWAP1 REVERT JUMPDEST PUSH1 0x0 PUSH2 0x1DEB PUSH2 0xFB6 JUMP JUMPDEST SWAP1 POP PUSH1 0x0 JUMPDEST DUP4 MLOAD DUP2 LT ISZERO PUSH2 0x2000 JUMPI PUSH1 0x0 PUSH2 0x1E0E DUP3 DUP7 PUSH2 0x13B9 SWAP1 SWAP2 SWAP1 PUSH4 0xFFFFFFFF AND JUMP JUMPDEST SWAP1 POP PUSH1 0x0 PUSH2 0x1E25 DUP4 DUP7 PUSH2 0x13B9 SWAP1 SWAP2 SWAP1 PUSH4 0xFFFFFFFF AND JUMP JUMPDEST SWAP1 POP PUSH1 0x0 PUSH20 0xFFFFFFFFFFFFFFFFFFFFFFFFFFFFFFFFFFFFFFFF AND DUP9 PUSH20 0xFFFFFFFFFFFFFFFFFFFFFFFFFFFFFFFFFFFFFFFF AND EQ PUSH2 0x1F52 JUMPI PUSH1 0x0 DUP1 PUSH1 0x0 DUP5 DUP2 MSTORE PUSH1 0x20 ADD SWAP1 DUP2 MSTORE PUSH1 0x20 ADD PUSH1 0x0 KECCAK256 PUSH1 0x0 DUP11 PUSH20 0xFFFFFFFFFFFFFFFFFFFFFFFFFFFFFFFFFFFFFFFF AND PUSH20 0xFFFFFFFFFFFFFFFFFFFFFFFFFFFFFFFFFFFFFFFF AND DUP2 MSTORE PUSH1 0x20 ADD SWAP1 DUP2 MSTORE PUSH1 0x20 ADD PUSH1 0x0 KECCAK256 SLOAD SWAP1 POP DUP2 DUP2 LT ISZERO PUSH2 0x1EFA JUMPI DUP9 DUP2 DUP4 DUP6 PUSH1 0x40 MLOAD PUSH32 0x3DEE4C500000000000000000000000000000000000000000000000000000000 DUP2 MSTORE PUSH1 0x4 ADD PUSH2 0x1EF1 SWAP5 SWAP4 SWAP3 SWAP2 SWAP1 PUSH2 0x35B5 JUMP JUMPDEST PUSH1 0x40 MLOAD DUP1 SWAP2 SUB SWAP1 REVERT JUMPDEST DUP2 DUP2 SUB PUSH1 0x0 DUP1 DUP6 DUP2 MSTORE PUSH1 0x20 ADD SWAP1 DUP2 MSTORE PUSH1 0x20 ADD PUSH1 0x0 KECCAK256 PUSH1 0x0 DUP12 PUSH20 0xFFFFFFFFFFFFFFFFFFFFFFFFFFFFFFFFFFFFFFFF AND PUSH20 0xFFFFFFFFFFFFFFFFFFFFFFFFFFFFFFFFFFFFFFFF AND DUP2 MSTORE PUSH1 0x20 ADD SWAP1 DUP2 MSTORE PUSH1 0x20 ADD PUSH1 0x0 KECCAK256 DUP2 SWAP1 SSTORE POP POP JUMPDEST PUSH1 0x0 PUSH20 0xFFFFFFFFFFFFFFFFFFFFFFFFFFFFFFFFFFFFFFFF AND DUP8 PUSH20 0xFFFFFFFFFFFFFFFFFFFFFFFFFFFFFFFFFFFFFFFF AND EQ PUSH2 0x1FED JUMPI DUP1 PUSH1 0x0 DUP1 DUP5 DUP2 MSTORE PUSH1 0x20 ADD SWAP1 DUP2 MSTORE PUSH1 0x20 ADD PUSH1 0x0 KECCAK256 PUSH1 0x0 DUP10 PUSH20 0xFFFFFFFFFFFFFFFFFFFFFFFFFFFFFFFFFFFFFFFF AND PUSH20 0xFFFFFFFFFFFFFFFFFFFFFFFFFFFFFFFFFFFFFFFF AND DUP2 MSTORE PUSH1 0x20 ADD SWAP1 DUP2 MSTORE PUSH1 0x20 ADD PUSH1 0x0 KECCAK256 PUSH1 0x0 DUP3 DUP3 SLOAD PUSH2 0x1FE5 SWAP2 SWAP1 PUSH2 0x35FA JUMP JUMPDEST SWAP3 POP POP DUP2 SWAP1 SSTORE POP JUMPDEST POP POP DUP1 PUSH2 0x1FF9 SWAP1 PUSH2 0x32FE JUMP JUMPDEST SWAP1 POP PUSH2 0x1DF0 JUMP JUMPDEST POP PUSH1 0x1 DUP4 MLOAD SUB PUSH2 0x20BF JUMPI PUSH1 0x0 PUSH2 0x2020 PUSH1 0x0 DUP6 PUSH2 0x13B9 SWAP1 SWAP2 SWAP1 PUSH4 0xFFFFFFFF AND JUMP JUMPDEST SWAP1 POP PUSH1 0x0 PUSH2 0x2038 PUSH1 0x0 DUP6 PUSH2 0x13B9 SWAP1 SWAP2 SWAP1 PUSH4 0xFFFFFFFF AND JUMP JUMPDEST SWAP1 POP DUP6 PUSH20 0xFFFFFFFFFFFFFFFFFFFFFFFFFFFFFFFFFFFFFFFF AND DUP8 PUSH20 0xFFFFFFFFFFFFFFFFFFFFFFFFFFFFFFFFFFFFFFFF AND DUP5 PUSH20 0xFFFFFFFFFFFFFFFFFFFFFFFFFFFFFFFFFFFFFFFF AND PUSH32 0xC3D58168C5AE7397731D063D5BBF3D657854427343F4C083240F7AACAA2D0F62 DUP6 DUP6 PUSH1 0x40 MLOAD PUSH2 0x20B0 SWAP3 SWAP2 SWAP1 PUSH2 0x3277 JUMP JUMPDEST PUSH1 0x40 MLOAD DUP1 SWAP2 SUB SWAP1 LOG4 POP POP PUSH2 0x213E JUMP JUMPDEST DUP4 PUSH20 0xFFFFFFFFFFFFFFFFFFFFFFFFFFFFFFFFFFFFFFFF AND DUP6 PUSH20 0xFFFFFFFFFFFFFFFFFFFFFFFFFFFFFFFFFFFFFFFF AND DUP3 PUSH20 0xFFFFFFFFFFFFFFFFFFFFFFFFFFFFFFFFFFFFFFFF AND PUSH32 0x4A39DC06D4C0DBC64B70AF90FD698A233A518AA5D07E595D983B8C0526C8F7FB DUP7 DUP7 PUSH1 0x40 MLOAD PUSH2 0x2135 SWAP3 SWAP2 SWAP1 PUSH2 0x362E JUMP JUMPDEST PUSH1 0x40 MLOAD DUP1 SWAP2 SUB SWAP1 LOG4 JUMPDEST POP POP POP POP POP JUMP JUMPDEST PUSH1 0x0 PUSH1 0x40 MLOAD SWAP1 POP SWAP1 JUMP JUMPDEST PUSH1 0x0 DUP1 REVERT JUMPDEST PUSH1 0x0 DUP1 REVERT JUMPDEST PUSH1 0x0 PUSH20 0xFFFFFFFFFFFFFFFFFFFFFFFFFFFFFFFFFFFFFFFF DUP3 AND SWAP1 POP SWAP2 SWAP1 POP JUMP JUMPDEST PUSH1 0x0 PUSH2 0x2184 DUP3 PUSH2 0x2159 JUMP JUMPDEST SWAP1 POP SWAP2 SWAP1 POP JUMP JUMPDEST PUSH2 0x2194 DUP2 PUSH2 0x2179 JUMP JUMPDEST DUP2 EQ PUSH2 0x219F JUMPI PUSH1 0x0 DUP1 REVERT JUMPDEST POP JUMP JUMPDEST PUSH1 0x0 DUP2 CALLDATALOAD SWAP1 POP PUSH2 0x21B1 DUP2 PUSH2 0x218B JUMP JUMPDEST SWAP3 SWAP2 POP POP JUMP JUMPDEST PUSH1 0x0 DUP2 SWAP1 POP SWAP2 SWAP1 POP JUMP JUMPDEST PUSH2 0x21CA DUP2 PUSH2 0x21B7 JUMP JUMPDEST DUP2 EQ PUSH2 0x21D5 JUMPI PUSH1 0x0 DUP1 REVERT JUMPDEST POP JUMP JUMPDEST PUSH1 0x0 DUP2 CALLDATALOAD SWAP1 POP PUSH2 0x21E7 DUP2 PUSH2 0x21C1 JUMP JUMPDEST SWAP3 SWAP2 POP POP JUMP JUMPDEST PUSH1 0x0 DUP1 PUSH1 0x40 DUP4 DUP6 SUB SLT ISZERO PUSH2 0x2204 JUMPI PUSH2 0x2203 PUSH2 0x214F JUMP JUMPDEST JUMPDEST PUSH1 0x0 PUSH2 0x2212 DUP6 DUP3 DUP7 ADD PUSH2 0x21A2 JUMP JUMPDEST SWAP3 POP POP PUSH1 0x20 PUSH2 0x2223 DUP6 DUP3 DUP7 ADD PUSH2 0x21D8 JUMP JUMPDEST SWAP2 POP POP SWAP3 POP SWAP3 SWAP1 POP JUMP JUMPDEST PUSH2 0x2236 DUP2 PUSH2 0x21B7 JUMP JUMPDEST DUP3 MSTORE POP POP JUMP JUMPDEST PUSH1 0x0 PUSH1 0x20 DUP3 ADD SWAP1 POP PUSH2 0x2251 PUSH1 0x0 DUP4 ADD DUP5 PUSH2 0x222D JUMP JUMPDEST SWAP3 SWAP2 POP POP JUMP JUMPDEST PUSH1 0x0 PUSH32 0xFFFFFFFF00000000000000000000000000000000000000000000000000000000 DUP3 AND SWAP1 POP SWAP2 SWAP1 POP JUMP JUMPDEST PUSH2 0x228C DUP2 PUSH2 0x2257 JUMP JUMPDEST DUP2 EQ PUSH2 0x2297 JUMPI PUSH1 0x0 DUP1 REVERT JUMPDEST POP JUMP JUMPDEST PUSH1 0x0 DUP2 CALLDATALOAD SWAP1 POP PUSH2 0x22A9 DUP2 PUSH2 0x2283 JUMP JUMPDEST SWAP3 SWAP2 POP POP JUMP JUMPDEST PUSH1 0x0 PUSH1 0x20 DUP3 DUP5 SUB SLT ISZERO PUSH2 0x22C5 JUMPI PUSH2 0x22C4 PUSH2 0x214F JUMP JUMPDEST JUMPDEST PUSH1 0x0 PUSH2 0x22D3 DUP5 DUP3 DUP6 ADD PUSH2 0x229A JUMP JUMPDEST SWAP2 POP POP SWAP3 SWAP2 POP POP JUMP JUMPDEST PUSH1 0x0 DUP2 ISZERO ISZERO SWAP1 POP SWAP2 SWAP1 POP JUMP JUMPDEST PUSH2 0x22F1 DUP2 PUSH2 0x22DC JUMP JUMPDEST DUP3 MSTORE POP POP JUMP JUMPDEST PUSH1 0x0 PUSH1 0x20 DUP3 ADD SWAP1 POP PUSH2 0x230C PUSH1 0x0 DUP4 ADD DUP5 PUSH2 0x22E8 JUMP JUMPDEST SWAP3 SWAP2 POP POP JUMP JUMPDEST PUSH1 0x0 DUP1 REVERT JUMPDEST PUSH1 0x0 DUP1 REVERT JUMPDEST PUSH1 0x0 PUSH1 0x1F NOT PUSH1 0x1F DUP4 ADD AND SWAP1 POP SWAP2 SWAP1 POP JUMP JUMPDEST PUSH32 0x4E487B7100000000000000000000000000000000000000000000000000000000 PUSH1 0x0 MSTORE PUSH1 0x41 PUSH1 0x4 MSTORE PUSH1 0x24 PUSH1 0x0 REVERT JUMPDEST PUSH2 0x2365 DUP3 PUSH2 0x231C JUMP JUMPDEST DUP2 ADD DUP2 DUP2 LT PUSH8 0xFFFFFFFFFFFFFFFF DUP3 GT OR ISZERO PUSH2 0x2384 JUMPI PUSH2 0x2383 PUSH2 0x232D JUMP JUMPDEST JUMPDEST DUP1 PUSH1 0x40 MSTORE POP POP POP JUMP JUMPDEST PUSH1 0x0 PUSH2 0x2397 PUSH2 0x2145 JUMP JUMPDEST SWAP1 POP PUSH2 0x23A3 DUP3 DUP3 PUSH2 0x235C JUMP JUMPDEST SWAP2 SWAP1 POP JUMP JUMPDEST PUSH1 0x0 PUSH8 0xFFFFFFFFFFFFFFFF DUP3 GT ISZERO PUSH2 0x23C3 JUMPI PUSH2 0x23C2 PUSH2 0x232D JUMP JUMPDEST JUMPDEST PUSH2 0x23CC DUP3 PUSH2 0x231C JUMP JUMPDEST SWAP1 POP PUSH1 0x20 DUP2 ADD SWAP1 POP SWAP2 SWAP1 POP JUMP JUMPDEST DUP3 DUP2 DUP4 CALLDATACOPY PUSH1 0x0 DUP4 DUP4 ADD MSTORE POP POP POP JUMP JUMPDEST PUSH1 0x0 PUSH2 0x23FB PUSH2 0x23F6 DUP5 PUSH2 0x23A8 JUMP JUMPDEST PUSH2 0x238D JUMP JUMPDEST SWAP1 POP DUP3 DUP2 MSTORE PUSH1 0x20 DUP2 ADD DUP5 DUP5 DUP5 ADD GT ISZERO PUSH2 0x2417 JUMPI PUSH2 0x2416 PUSH2 0x2317 JUMP JUMPDEST JUMPDEST PUSH2 0x2422 DUP5 DUP3 DUP6 PUSH2 0x23D9 JUMP JUMPDEST POP SWAP4 SWAP3 POP POP POP JUMP JUMPDEST PUSH1 0x0 DUP3 PUSH1 0x1F DUP4 ADD SLT PUSH2 0x243F JUMPI PUSH2 0x243E PUSH2 0x2312 JUMP JUMPDEST JUMPDEST DUP2 CALLDATALOAD PUSH2 0x244F DUP5 DUP3 PUSH1 0x20 DUP7 ADD PUSH2 0x23E8 JUMP JUMPDEST SWAP2 POP POP SWAP3 SWAP2 POP POP JUMP JUMPDEST PUSH1 0x0 PUSH1 0x20 DUP3 DUP5 SUB SLT ISZERO PUSH2 0x246E JUMPI PUSH2 0x246D PUSH2 0x214F JUMP JUMPDEST JUMPDEST PUSH1 0x0 DUP3 ADD CALLDATALOAD PUSH8 0xFFFFFFFFFFFFFFFF DUP2 GT ISZERO PUSH2 0x248C JUMPI PUSH2 0x248B PUSH2 0x2154 JUMP JUMPDEST JUMPDEST PUSH2 0x2498 DUP5 DUP3 DUP6 ADD PUSH2 0x242A JUMP JUMPDEST SWAP2 POP POP SWAP3 SWAP2 POP POP JUMP JUMPDEST PUSH1 0x0 PUSH1 0x20 DUP3 DUP5 SUB SLT ISZERO PUSH2 0x24B7 JUMPI PUSH2 0x24B6 PUSH2 0x214F JUMP JUMPDEST JUMPDEST PUSH1 0x0 PUSH2 0x24C5 DUP5 DUP3 DUP6 ADD PUSH2 0x21D8 JUMP JUMPDEST SWAP2 POP POP SWAP3 SWAP2 POP POP JUMP JUMPDEST PUSH1 0x0 DUP2 MLOAD SWAP1 POP SWAP2 SWAP1 POP JUMP JUMPDEST PUSH1 0x0 DUP3 DUP3 MSTORE PUSH1 0x20 DUP3 ADD SWAP1 POP SWAP3 SWAP2 POP POP JUMP JUMPDEST PUSH1 0x0 JUMPDEST DUP4 DUP2 LT ISZERO PUSH2 0x2508 JUMPI DUP1 DUP3 ADD MLOAD DUP2 DUP5 ADD MSTORE PUSH1 0x20 DUP2 ADD SWAP1 POP PUSH2 0x24ED JUMP JUMPDEST PUSH1 0x0 DUP5 DUP5 ADD MSTORE POP POP POP POP JUMP JUMPDEST PUSH1 0x0 PUSH2 0x251F DUP3 PUSH2 0x24CE JUMP JUMPDEST PUSH2 0x2529 DUP2 DUP6 PUSH2 0x24D9 JUMP JUMPDEST SWAP4 POP PUSH2 0x2539 DUP2 DUP6 PUSH1 0x20 DUP7 ADD PUSH2 0x24EA JUMP JUMPDEST PUSH2 0x2542 DUP2 PUSH2 0x231C JUMP JUMPDEST DUP5 ADD SWAP2 POP POP SWAP3 SWAP2 POP POP JUMP JUMPDEST PUSH1 0x0 PUSH1 0x20 DUP3 ADD SWAP1 POP DUP2 DUP2 SUB PUSH1 0x0 DUP4 ADD MSTORE PUSH2 0x2567 DUP2 DUP5 PUSH2 0x2514 JUMP JUMPDEST SWAP1 POP SWAP3 SWAP2 POP POP JUMP JUMPDEST PUSH1 0x0 DUP1 REVERT JUMPDEST PUSH1 0x0 DUP1 REVERT JUMPDEST PUSH1 0x0 DUP1 DUP4 PUSH1 0x1F DUP5 ADD SLT PUSH2 0x258F JUMPI PUSH2 0x258E PUSH2 0x2312 JUMP JUMPDEST JUMPDEST DUP3 CALLDATALOAD SWAP1 POP PUSH8 0xFFFFFFFFFFFFFFFF DUP2 GT ISZERO PUSH2 0x25AC JUMPI PUSH2 0x25AB PUSH2 0x256F JUMP JUMPDEST JUMPDEST PUSH1 0x20 DUP4 ADD SWAP2 POP DUP4 PUSH1 0x1 DUP3 MUL DUP4 ADD GT ISZERO PUSH2 0x25C8 JUMPI PUSH2 0x25C7 PUSH2 0x2574 JUMP JUMPDEST JUMPDEST SWAP3 POP SWAP3 SWAP1 POP JUMP JUMPDEST PUSH1 0x0 DUP1 PUSH1 0x0 PUSH1 0x40 DUP5 DUP7 SUB SLT ISZERO PUSH2 0x25E8 JUMPI PUSH2 0x25E7 PUSH2 0x214F JUMP JUMPDEST JUMPDEST PUSH1 0x0 PUSH2 0x25F6 DUP7 DUP3 DUP8 ADD PUSH2 0x21D8 JUMP JUMPDEST SWAP4 POP POP PUSH1 0x20 DUP5 ADD CALLDATALOAD PUSH8 0xFFFFFFFFFFFFFFFF DUP2 GT ISZERO PUSH2 0x2617 JUMPI PUSH2 0x2616 PUSH2 0x2154 JUMP JUMPDEST JUMPDEST PUSH2 0x2623 DUP7 DUP3 DUP8 ADD PUSH2 0x2579 JUMP JUMPDEST SWAP3 POP SWAP3 POP POP SWAP3 POP SWAP3 POP SWAP3 JUMP JUMPDEST PUSH1 0x0 PUSH8 0xFFFFFFFFFFFFFFFF DUP3 GT ISZERO PUSH2 0x264A JUMPI PUSH2 0x2649 PUSH2 0x232D JUMP JUMPDEST JUMPDEST PUSH1 0x20 DUP3 MUL SWAP1 POP PUSH1 0x20 DUP2 ADD SWAP1 POP SWAP2 SWAP1 POP JUMP JUMPDEST PUSH1 0x0 PUSH2 0x266E PUSH2 0x2669 DUP5 PUSH2 0x262F JUMP JUMPDEST PUSH2 0x238D JUMP JUMPDEST SWAP1 POP DUP1 DUP4 DUP3 MSTORE PUSH1 0x20 DUP3 ADD SWAP1 POP PUSH1 0x20 DUP5 MUL DUP4 ADD DUP6 DUP2 GT ISZERO PUSH2 0x2691 JUMPI PUSH2 0x2690 PUSH2 0x2574 JUMP JUMPDEST JUMPDEST DUP4 JUMPDEST DUP2 DUP2 LT ISZERO PUSH2 0x26BA JUMPI DUP1 PUSH2 0x26A6 DUP9 DUP3 PUSH2 0x21D8 JUMP JUMPDEST DUP5 MSTORE PUSH1 0x20 DUP5 ADD SWAP4 POP POP PUSH1 0x20 DUP2 ADD SWAP1 POP PUSH2 0x2693 JUMP JUMPDEST POP POP POP SWAP4 SWAP3 POP POP POP JUMP JUMPDEST PUSH1 0x0 DUP3 PUSH1 0x1F DUP4 ADD SLT PUSH2 0x26D9 JUMPI PUSH2 0x26D8 PUSH2 0x2312 JUMP JUMPDEST JUMPDEST DUP2 CALLDATALOAD PUSH2 0x26E9 DUP5 DUP3 PUSH1 0x20 DUP7 ADD PUSH2 0x265B JUMP JUMPDEST SWAP2 POP POP SWAP3 SWAP2 POP POP JUMP JUMPDEST PUSH1 0x0 PUSH8 0xFFFFFFFFFFFFFFFF DUP3 GT ISZERO PUSH2 0x270D JUMPI PUSH2 0x270C PUSH2 0x232D JUMP JUMPDEST JUMPDEST PUSH2 0x2716 DUP3 PUSH2 0x231C JUMP JUMPDEST SWAP1 POP PUSH1 0x20 DUP2 ADD SWAP1 POP SWAP2 SWAP1 POP JUMP JUMPDEST PUSH1 0x0 PUSH2 0x2736 PUSH2 0x2731 DUP5 PUSH2 0x26F2 JUMP JUMPDEST PUSH2 0x238D JUMP JUMPDEST SWAP1 POP DUP3 DUP2 MSTORE PUSH1 0x20 DUP2 ADD DUP5 DUP5 DUP5 ADD GT ISZERO PUSH2 0x2752 JUMPI PUSH2 0x2751 PUSH2 0x2317 JUMP JUMPDEST JUMPDEST PUSH2 0x275D DUP5 DUP3 DUP6 PUSH2 0x23D9 JUMP JUMPDEST POP SWAP4 SWAP3 POP POP POP JUMP JUMPDEST PUSH1 0x0 DUP3 PUSH1 0x1F DUP4 ADD SLT PUSH2 0x277A JUMPI PUSH2 0x2779 PUSH2 0x2312 JUMP JUMPDEST JUMPDEST DUP2 CALLDATALOAD PUSH2 0x278A DUP5 DUP3 PUSH1 0x20 DUP7 ADD PUSH2 0x2723 JUMP JUMPDEST SWAP2 POP POP SWAP3 SWAP2 POP POP JUMP JUMPDEST PUSH1 0x0 DUP1 PUSH1 0x0 DUP1 PUSH1 0x80 DUP6 DUP8 SUB SLT ISZERO PUSH2 0x27AD JUMPI PUSH2 0x27AC PUSH2 0x214F JUMP JUMPDEST JUMPDEST PUSH1 0x0 PUSH2 0x27BB DUP8 DUP3 DUP9 ADD PUSH2 0x21A2 JUMP JUMPDEST SWAP5 POP POP PUSH1 0x20 DUP6 ADD CALLDATALOAD PUSH8 0xFFFFFFFFFFFFFFFF DUP2 GT ISZERO PUSH2 0x27DC JUMPI PUSH2 0x27DB PUSH2 0x2154 JUMP JUMPDEST JUMPDEST PUSH2 0x27E8 DUP8 DUP3 DUP9 ADD PUSH2 0x26C4 JUMP JUMPDEST SWAP4 POP POP PUSH1 0x40 DUP6 ADD CALLDATALOAD PUSH8 0xFFFFFFFFFFFFFFFF DUP2 GT ISZERO PUSH2 0x2809 JUMPI PUSH2 0x2808 PUSH2 0x2154 JUMP JUMPDEST JUMPDEST PUSH2 0x2815 DUP8 DUP3 DUP9 ADD PUSH2 0x26C4 JUMP JUMPDEST SWAP3 POP POP PUSH1 0x60 DUP6 ADD CALLDATALOAD PUSH8 0xFFFFFFFFFFFFFFFF DUP2 GT ISZERO PUSH2 0x2836 JUMPI PUSH2 0x2835 PUSH2 0x2154 JUMP JUMPDEST JUMPDEST PUSH2 0x2842 DUP8 DUP3 DUP9 ADD PUSH2 0x2765 JUMP JUMPDEST SWAP2 POP POP SWAP3 SWAP6 SWAP2 SWAP5 POP SWAP3 POP JUMP JUMPDEST PUSH1 0x0 DUP2 SWAP1 POP SWAP2 SWAP1 POP JUMP JUMPDEST PUSH2 0x2861 DUP2 PUSH2 0x284E JUMP JUMPDEST DUP2 EQ PUSH2 0x286C JUMPI PUSH1 0x0 DUP1 REVERT JUMPDEST POP JUMP JUMPDEST PUSH1 0x0 DUP2 CALLDATALOAD SWAP1 POP PUSH2 0x287E DUP2 PUSH2 0x2858 JUMP JUMPDEST SWAP3 SWAP2 POP POP JUMP JUMPDEST PUSH1 0x0 PUSH1 0x20 DUP3 DUP5 SUB SLT ISZERO PUSH2 0x289A JUMPI PUSH2 0x2899 PUSH2 0x214F JUMP JUMPDEST JUMPDEST PUSH1 0x0 PUSH2 0x28A8 DUP5 DUP3 DUP6 ADD PUSH2 0x286F JUMP JUMPDEST SWAP2 POP POP SWAP3 SWAP2 POP POP JUMP JUMPDEST PUSH2 0x28BA DUP2 PUSH2 0x284E JUMP JUMPDEST DUP3 MSTORE POP POP JUMP JUMPDEST PUSH1 0x0 PUSH1 0x20 DUP3 ADD SWAP1 POP PUSH2 0x28D5 PUSH1 0x0 DUP4 ADD DUP5 PUSH2 0x28B1 JUMP JUMPDEST SWAP3 SWAP2 POP POP JUMP JUMPDEST PUSH1 0x0 DUP1 PUSH1 0x0 DUP1 PUSH1 0x0 PUSH1 0xA0 DUP7 DUP9 SUB SLT ISZERO PUSH2 0x28F7 JUMPI PUSH2 0x28F6 PUSH2 0x214F JUMP JUMPDEST JUMPDEST PUSH1 0x0 PUSH2 0x2905 DUP9 DUP3 DUP10 ADD PUSH2 0x21A2 JUMP JUMPDEST SWAP6 POP POP PUSH1 0x20 PUSH2 0x2916 DUP9 DUP3 DUP10 ADD PUSH2 0x21A2 JUMP JUMPDEST SWAP5 POP POP PUSH1 0x40 DUP7 ADD CALLDATALOAD PUSH8 0xFFFFFFFFFFFFFFFF DUP2 GT ISZERO PUSH2 0x2937 JUMPI PUSH2 0x2936 PUSH2 0x2154 JUMP JUMPDEST JUMPDEST PUSH2 0x2943 DUP9 DUP3 DUP10 ADD PUSH2 0x26C4 JUMP JUMPDEST SWAP4 POP POP PUSH1 0x60 DUP7 ADD CALLDATALOAD PUSH8 0xFFFFFFFFFFFFFFFF DUP2 GT ISZERO PUSH2 0x2964 JUMPI PUSH2 0x2963 PUSH2 0x2154 JUMP JUMPDEST JUMPDEST PUSH2 0x2970 DUP9 DUP3 DUP10 ADD PUSH2 0x26C4 JUMP JUMPDEST SWAP3 POP POP PUSH1 0x80 DUP7 ADD CALLDATALOAD PUSH8 0xFFFFFFFFFFFFFFFF DUP2 GT ISZERO PUSH2 0x2991 JUMPI PUSH2 0x2990 PUSH2 0x2154 JUMP JUMPDEST JUMPDEST PUSH2 0x299D DUP9 DUP3 DUP10 ADD PUSH2 0x2765 JUMP JUMPDEST SWAP2 POP POP SWAP3 SWAP6 POP SWAP3 SWAP6 SWAP1 SWAP4 POP JUMP JUMPDEST PUSH1 0x0 DUP1 PUSH1 0x40 DUP4 DUP6 SUB SLT ISZERO PUSH2 0x29C1 JUMPI PUSH2 0x29C0 PUSH2 0x214F JUMP JUMPDEST JUMPDEST PUSH1 0x0 PUSH2 0x29CF DUP6 DUP3 DUP7 ADD PUSH2 0x286F JUMP JUMPDEST SWAP3 POP POP PUSH1 0x20 PUSH2 0x29E0 DUP6 DUP3 DUP7 ADD PUSH2 0x21A2 JUMP JUMPDEST SWAP2 POP POP SWAP3 POP SWAP3 SWAP1 POP JUMP JUMPDEST PUSH1 0x0 DUP1 PUSH1 0x0 DUP1 PUSH1 0x0 PUSH1 0x80 DUP7 DUP9 SUB SLT ISZERO PUSH2 0x2A06 JUMPI PUSH2 0x2A05 PUSH2 0x214F JUMP JUMPDEST JUMPDEST PUSH1 0x0 PUSH2 0x2A14 DUP9 DUP3 DUP10 ADD PUSH2 0x21A2 JUMP JUMPDEST SWAP6 POP POP PUSH1 0x20 PUSH2 0x2A25 DUP9 DUP3 DUP10 ADD PUSH2 0x21D8 JUMP JUMPDEST SWAP5 POP POP PUSH1 0x40 PUSH2 0x2A36 DUP9 DUP3 DUP10 ADD PUSH2 0x21D8 JUMP JUMPDEST SWAP4 POP POP PUSH1 0x60 DUP7 ADD CALLDATALOAD PUSH8 0xFFFFFFFFFFFFFFFF DUP2 GT ISZERO PUSH2 0x2A57 JUMPI PUSH2 0x2A56 PUSH2 0x2154 JUMP JUMPDEST JUMPDEST PUSH2 0x2A63 DUP9 DUP3 DUP10 ADD PUSH2 0x2579 JUMP JUMPDEST SWAP3 POP SWAP3 POP POP SWAP3 SWAP6 POP SWAP3 SWAP6 SWAP1 SWAP4 POP JUMP JUMPDEST PUSH1 0x0 PUSH8 0xFFFFFFFFFFFFFFFF DUP3 GT ISZERO PUSH2 0x2A8D JUMPI PUSH2 0x2A8C PUSH2 0x232D JUMP JUMPDEST JUMPDEST PUSH1 0x20 DUP3 MUL SWAP1 POP PUSH1 0x20 DUP2 ADD SWAP1 POP SWAP2 SWAP1 POP JUMP JUMPDEST PUSH1 0x0 PUSH2 0x2AB1 PUSH2 0x2AAC DUP5 PUSH2 0x2A72 JUMP JUMPDEST PUSH2 0x238D JUMP JUMPDEST SWAP1 POP DUP1 DUP4 DUP3 MSTORE PUSH1 0x20 DUP3 ADD SWAP1 POP PUSH1 0x20 DUP5 MUL DUP4 ADD DUP6 DUP2 GT ISZERO PUSH2 0x2AD4 JUMPI PUSH2 0x2AD3 PUSH2 0x2574 JUMP JUMPDEST JUMPDEST DUP4 JUMPDEST DUP2 DUP2 LT ISZERO PUSH2 0x2AFD JUMPI DUP1 PUSH2 0x2AE9 DUP9 DUP3 PUSH2 0x21A2 JUMP JUMPDEST DUP5 MSTORE PUSH1 0x20 DUP5 ADD SWAP4 POP POP PUSH1 0x20 DUP2 ADD SWAP1 POP PUSH2 0x2AD6 JUMP JUMPDEST POP POP POP SWAP4 SWAP3 POP POP POP JUMP JUMPDEST PUSH1 0x0 DUP3 PUSH1 0x1F DUP4 ADD SLT PUSH2 0x2B1C JUMPI PUSH2 0x2B1B PUSH2 0x2312 JUMP JUMPDEST JUMPDEST DUP2 CALLDATALOAD PUSH2 0x2B2C DUP5 DUP3 PUSH1 0x20 DUP7 ADD PUSH2 0x2A9E JUMP JUMPDEST SWAP2 POP POP SWAP3 SWAP2 POP POP JUMP JUMPDEST PUSH1 0x0 DUP1 PUSH1 0x40 DUP4 DUP6 SUB SLT ISZERO PUSH2 0x2B4C JUMPI PUSH2 0x2B4B PUSH2 0x214F JUMP JUMPDEST JUMPDEST PUSH1 0x0 DUP4 ADD CALLDATALOAD PUSH8 0xFFFFFFFFFFFFFFFF DUP2 GT ISZERO PUSH2 0x2B6A JUMPI PUSH2 0x2B69 PUSH2 0x2154 JUMP JUMPDEST JUMPDEST PUSH2 0x2B76 DUP6 DUP3 DUP7 ADD PUSH2 0x2B07 JUMP JUMPDEST SWAP3 POP POP PUSH1 0x20 DUP4 ADD CALLDATALOAD PUSH8 0xFFFFFFFFFFFFFFFF DUP2 GT ISZERO PUSH2 0x2B97 JUMPI PUSH2 0x2B96 PUSH2 0x2154 JUMP JUMPDEST JUMPDEST PUSH2 0x2BA3 DUP6 DUP3 DUP7 ADD PUSH2 0x26C4 JUMP JUMPDEST SWAP2 POP POP SWAP3 POP SWAP3 SWAP1 POP JUMP JUMPDEST PUSH1 0x0 DUP2 MLOAD SWAP1 POP SWAP2 SWAP1 POP JUMP JUMPDEST PUSH1 0x0 DUP3 DUP3 MSTORE PUSH1 0x20 DUP3 ADD SWAP1 POP SWAP3 SWAP2 POP POP JUMP JUMPDEST PUSH1 0x0 DUP2 SWAP1 POP PUSH1 0x20 DUP3 ADD SWAP1 POP SWAP2 SWAP1 POP JUMP JUMPDEST PUSH2 0x2BE2 DUP2 PUSH2 0x21B7 JUMP JUMPDEST DUP3 MSTORE POP POP JUMP JUMPDEST PUSH1 0x0 PUSH2 0x2BF4 DUP4 DUP4 PUSH2 0x2BD9 JUMP JUMPDEST PUSH1 0x20 DUP4 ADD SWAP1 POP SWAP3 SWAP2 POP POP JUMP JUMPDEST PUSH1 0x0 PUSH1 0x20 DUP3 ADD SWAP1 POP SWAP2 SWAP1 POP JUMP JUMPDEST PUSH1 0x0 PUSH2 0x2C18 DUP3 PUSH2 0x2BAD JUMP JUMPDEST PUSH2 0x2C22 DUP2 DUP6 PUSH2 0x2BB8 JUMP JUMPDEST SWAP4 POP PUSH2 0x2C2D DUP4 PUSH2 0x2BC9 JUMP JUMPDEST DUP1 PUSH1 0x0 JUMPDEST DUP4 DUP2 LT ISZERO PUSH2 0x2C5E JUMPI DUP2 MLOAD PUSH2 0x2C45 DUP9 DUP3 PUSH2 0x2BE8 JUMP JUMPDEST SWAP8 POP PUSH2 0x2C50 DUP4 PUSH2 0x2C00 JUMP JUMPDEST SWAP3 POP POP PUSH1 0x1 DUP2 ADD SWAP1 POP PUSH2 0x2C31 JUMP JUMPDEST POP DUP6 SWAP4 POP POP POP POP SWAP3 SWAP2 POP POP JUMP JUMPDEST PUSH1 0x0 PUSH1 0x20 DUP3 ADD SWAP1 POP DUP2 DUP2 SUB PUSH1 0x0 DUP4 ADD MSTORE PUSH2 0x2C85 DUP2 DUP5 PUSH2 0x2C0D JUMP JUMPDEST SWAP1 POP SWAP3 SWAP2 POP POP JUMP JUMPDEST PUSH1 0x0 DUP1 PUSH1 0x0 DUP1 PUSH1 0x80 DUP6 DUP8 SUB SLT ISZERO PUSH2 0x2CA7 JUMPI PUSH2 0x2CA6 PUSH2 0x214F JUMP JUMPDEST JUMPDEST PUSH1 0x0 PUSH2 0x2CB5 DUP8 DUP3 DUP9 ADD PUSH2 0x21A2 JUMP JUMPDEST SWAP5 POP POP PUSH1 0x20 PUSH2 0x2CC6 DUP8 DUP3 DUP9 ADD PUSH2 0x21D8 JUMP JUMPDEST SWAP4 POP POP PUSH1 0x40 PUSH2 0x2CD7 DUP8 DUP3 DUP9 ADD PUSH2 0x21D8 JUMP JUMPDEST SWAP3 POP POP PUSH1 0x60 DUP6 ADD CALLDATALOAD PUSH8 0xFFFFFFFFFFFFFFFF DUP2 GT ISZERO PUSH2 0x2CF8 JUMPI PUSH2 0x2CF7 PUSH2 0x2154 JUMP JUMPDEST JUMPDEST PUSH2 0x2D04 DUP8 DUP3 DUP9 ADD PUSH2 0x2765 JUMP JUMPDEST SWAP2 POP POP SWAP3 SWAP6 SWAP2 SWAP5 POP SWAP3 POP JUMP JUMPDEST PUSH2 0x2D19 DUP2 PUSH2 0x22DC JUMP JUMPDEST DUP2 EQ PUSH2 0x2D24 JUMPI PUSH1 0x0 DUP1 REVERT JUMPDEST POP JUMP JUMPDEST PUSH1 0x0 DUP2 CALLDATALOAD SWAP1 POP PUSH2 0x2D36 DUP2 PUSH2 0x2D10 JUMP JUMPDEST SWAP3 SWAP2 POP POP JUMP JUMPDEST PUSH1 0x0 DUP1 PUSH1 0x40 DUP4 DUP6 SUB SLT ISZERO PUSH2 0x2D53 JUMPI PUSH2 0x2D52 PUSH2 0x214F JUMP JUMPDEST JUMPDEST PUSH1 0x0 PUSH2 0x2D61 DUP6 DUP3 DUP7 ADD PUSH2 0x21A2 JUMP JUMPDEST SWAP3 POP POP PUSH1 0x20 PUSH2 0x2D72 DUP6 DUP3 DUP7 ADD PUSH2 0x2D27 JUMP JUMPDEST SWAP2 POP POP SWAP3 POP SWAP3 SWAP1 POP JUMP JUMPDEST PUSH1 0x0 DUP1 PUSH1 0x40 DUP4 DUP6 SUB SLT ISZERO PUSH2 0x2D93 JUMPI PUSH2 0x2D92 PUSH2 0x214F JUMP JUMPDEST JUMPDEST PUSH1 0x0 PUSH2 0x2DA1 DUP6 DUP3 DUP7 ADD PUSH2 0x21A2 JUMP JUMPDEST SWAP3 POP POP PUSH1 0x20 PUSH2 0x2DB2 DUP6 DUP3 DUP7 ADD PUSH2 0x21A2 JUMP JUMPDEST SWAP2 POP POP SWAP3 POP SWAP3 SWAP1 POP JUMP JUMPDEST PUSH1 0x0 DUP1 PUSH1 0x0 DUP1 PUSH1 0x0 PUSH1 0xA0 DUP7 DUP9 SUB SLT ISZERO PUSH2 0x2DD8 JUMPI PUSH2 0x2DD7 PUSH2 0x214F JUMP JUMPDEST JUMPDEST PUSH1 0x0 PUSH2 0x2DE6 DUP9 DUP3 DUP10 ADD PUSH2 0x21A2 JUMP JUMPDEST SWAP6 POP POP PUSH1 0x20 PUSH2 0x2DF7 DUP9 DUP3 DUP10 ADD PUSH2 0x21A2 JUMP JUMPDEST SWAP5 POP POP PUSH1 0x40 PUSH2 0x2E08 DUP9 DUP3 DUP10 ADD PUSH2 0x21D8 JUMP JUMPDEST SWAP4 POP POP PUSH1 0x60 PUSH2 0x2E19 DUP9 DUP3 DUP10 ADD PUSH2 0x21D8 JUMP JUMPDEST SWAP3 POP POP PUSH1 0x80 DUP7 ADD CALLDATALOAD PUSH8 0xFFFFFFFFFFFFFFFF DUP2 GT ISZERO PUSH2 0x2E3A JUMPI PUSH2 0x2E39 PUSH2 0x2154 JUMP JUMPDEST JUMPDEST PUSH2 0x2E46 DUP9 DUP3 DUP10 ADD PUSH2 0x2765 JUMP JUMPDEST SWAP2 POP POP SWAP3 SWAP6 POP SWAP3 SWAP6 SWAP1 SWAP4 POP JUMP JUMPDEST PUSH1 0x0 DUP1 PUSH1 0x0 DUP1 PUSH1 0x60 DUP6 DUP8 SUB SLT ISZERO PUSH2 0x2E6D JUMPI PUSH2 0x2E6C PUSH2 0x214F JUMP JUMPDEST JUMPDEST PUSH1 0x0 PUSH2 0x2E7B DUP8 DUP3 DUP9 ADD PUSH2 0x21D8 JUMP JUMPDEST SWAP5 POP POP PUSH1 0x20 PUSH2 0x2E8C DUP8 DUP3 DUP9 ADD PUSH2 0x21D8 JUMP JUMPDEST SWAP4 POP POP PUSH1 0x40 DUP6 ADD CALLDATALOAD PUSH8 0xFFFFFFFFFFFFFFFF DUP2 GT ISZERO PUSH2 0x2EAD JUMPI PUSH2 0x2EAC PUSH2 0x2154 JUMP JUMPDEST JUMPDEST PUSH2 0x2EB9 DUP8 DUP3 DUP9 ADD PUSH2 0x2579 JUMP JUMPDEST SWAP3 POP SWAP3 POP POP SWAP3 SWAP6 SWAP2 SWAP5 POP SWAP3 POP JUMP JUMPDEST PUSH32 0x4E487B7100000000000000000000000000000000000000000000000000000000 PUSH1 0x0 MSTORE PUSH1 0x22 PUSH1 0x4 MSTORE PUSH1 0x24 PUSH1 0x0 REVERT JUMPDEST PUSH1 0x0 PUSH1 0x2 DUP3 DIV SWAP1 POP PUSH1 0x1 DUP3 AND DUP1 PUSH2 0x2F0E JUMPI PUSH1 0x7F DUP3 AND SWAP2 POP JUMPDEST PUSH1 0x20 DUP3 LT DUP2 SUB PUSH2 0x2F21 JUMPI PUSH2 0x2F20 PUSH2 0x2EC7 JUMP JUMPDEST JUMPDEST POP SWAP2 SWAP1 POP JUMP JUMPDEST PUSH1 0x0 DUP3 SWAP1 POP SWAP3 SWAP2 POP POP JUMP JUMPDEST PUSH1 0x0 DUP2 SWAP1 POP DUP2 PUSH1 0x0 MSTORE PUSH1 0x20 PUSH1 0x0 KECCAK256 SWAP1 POP SWAP2 SWAP1 POP JUMP JUMPDEST PUSH1 0x0 PUSH1 0x20 PUSH1 0x1F DUP4 ADD DIV SWAP1 POP SWAP2 SWAP1 POP JUMP JUMPDEST PUSH1 0x0 DUP3 DUP3 SHL SWAP1 POP SWAP3 SWAP2 POP POP JUMP JUMPDEST PUSH1 0x0 PUSH1 0x8 DUP4 MUL PUSH2 0x2F94 PUSH32 0xFFFFFFFFFFFFFFFFFFFFFFFFFFFFFFFFFFFFFFFFFFFFFFFFFFFFFFFFFFFFFFFF DUP3 PUSH2 0x2F57 JUMP JUMPDEST PUSH2 0x2F9E DUP7 DUP4 PUSH2 0x2F57 JUMP JUMPDEST SWAP6 POP DUP1 NOT DUP5 AND SWAP4 POP DUP1 DUP7 AND DUP5 OR SWAP3 POP POP POP SWAP4 SWAP3 POP POP POP JUMP JUMPDEST PUSH1 0x0 DUP2 SWAP1 POP SWAP2 SWAP1 POP JUMP JUMPDEST PUSH1 0x0 PUSH2 0x2FDB PUSH2 0x2FD6 PUSH2 0x2FD1 DUP5 PUSH2 0x21B7 JUMP JUMPDEST PUSH2 0x2FB6 JUMP JUMPDEST PUSH2 0x21B7 JUMP JUMPDEST SWAP1 POP SWAP2 SWAP1 POP JUMP JUMPDEST PUSH1 0x0 DUP2 SWAP1 POP SWAP2 SWAP1 POP JUMP JUMPDEST PUSH2 0x2FF5 DUP4 PUSH2 0x2FC0 JUMP JUMPDEST PUSH2 0x3009 PUSH2 0x3001 DUP3 PUSH2 0x2FE2 JUMP JUMPDEST DUP5 DUP5 SLOAD PUSH2 0x2F64 JUMP JUMPDEST DUP3 SSTORE POP POP POP POP JUMP JUMPDEST PUSH1 0x0 SWAP1 JUMP JUMPDEST PUSH2 0x301E PUSH2 0x3011 JUMP JUMPDEST PUSH2 0x3029 DUP2 DUP5 DUP5 PUSH2 0x2FEC JUMP JUMPDEST POP POP POP JUMP JUMPDEST JUMPDEST DUP2 DUP2 LT ISZERO PUSH2 0x304D JUMPI PUSH2 0x3042 PUSH1 0x0 DUP3 PUSH2 0x3016 JUMP JUMPDEST PUSH1 0x1 DUP2 ADD SWAP1 POP PUSH2 0x302F JUMP JUMPDEST POP POP JUMP JUMPDEST PUSH1 0x1F DUP3 GT ISZERO PUSH2 0x3092 JUMPI PUSH2 0x3063 DUP2 PUSH2 0x2F32 JUMP JUMPDEST PUSH2 0x306C DUP5 PUSH2 0x2F47 JUMP JUMPDEST DUP2 ADD PUSH1 0x20 DUP6 LT ISZERO PUSH2 0x307B JUMPI DUP2 SWAP1 POP JUMPDEST PUSH2 0x308F PUSH2 0x3087 DUP6 PUSH2 0x2F47 JUMP JUMPDEST DUP4 ADD DUP3 PUSH2 0x302E JUMP JUMPDEST POP POP JUMPDEST POP POP POP JUMP JUMPDEST PUSH1 0x0 DUP3 DUP3 SHR SWAP1 POP SWAP3 SWAP2 POP POP JUMP JUMPDEST PUSH1 0x0 PUSH2 0x30B5 PUSH1 0x0 NOT DUP5 PUSH1 0x8 MUL PUSH2 0x3097 JUMP JUMPDEST NOT DUP1 DUP4 AND SWAP2 POP POP SWAP3 SWAP2 POP POP JUMP JUMPDEST PUSH1 0x0 PUSH2 0x30CE DUP4 DUP4 PUSH2 0x30A4 JUMP JUMPDEST SWAP2 POP DUP3 PUSH1 0x2 MUL DUP3 OR SWAP1 POP SWAP3 SWAP2 POP POP JUMP JUMPDEST PUSH2 0x30E8 DUP4 DUP4 PUSH2 0x2F27 JUMP JUMPDEST PUSH8 0xFFFFFFFFFFFFFFFF DUP2 GT ISZERO PUSH2 0x3101 JUMPI PUSH2 0x3100 PUSH2 0x232D JUMP JUMPDEST JUMPDEST PUSH2 0x310B DUP3 SLOAD PUSH2 0x2EF6 JUMP JUMPDEST PUSH2 0x3116 DUP3 DUP3 DUP6 PUSH2 0x3051 JUMP JUMPDEST PUSH1 0x0 PUSH1 0x1F DUP4 GT PUSH1 0x1 DUP2 EQ PUSH2 0x3145 JUMPI PUSH1 0x0 DUP5 ISZERO PUSH2 0x3133 JUMPI DUP3 DUP8 ADD CALLDATALOAD SWAP1 POP JUMPDEST PUSH2 0x313D DUP6 DUP3 PUSH2 0x30C2 JUMP JUMPDEST DUP7 SSTORE POP PUSH2 0x31A5 JUMP JUMPDEST PUSH1 0x1F NOT DUP5 AND PUSH2 0x3153 DUP7 PUSH2 0x2F32 JUMP JUMPDEST PUSH1 0x0 JUMPDEST DUP3 DUP2 LT ISZERO PUSH2 0x317B JUMPI DUP5 DUP10 ADD CALLDATALOAD DUP3 SSTORE PUSH1 0x1 DUP3 ADD SWAP2 POP PUSH1 0x20 DUP6 ADD SWAP5 POP PUSH1 0x20 DUP2 ADD SWAP1 POP PUSH2 0x3156 JUMP JUMPDEST DUP7 DUP4 LT ISZERO PUSH2 0x3198 JUMPI DUP5 DUP10 ADD CALLDATALOAD PUSH2 0x3194 PUSH1 0x1F DUP10 AND DUP3 PUSH2 0x30A4 JUMP JUMPDEST DUP4 SSTORE POP JUMPDEST PUSH1 0x1 PUSH1 0x2 DUP9 MUL ADD DUP9 SSTORE POP POP POP JUMPDEST POP POP POP POP POP POP POP JUMP JUMPDEST PUSH1 0x0 PUSH2 0x31BA DUP4 DUP6 PUSH2 0x24D9 JUMP JUMPDEST SWAP4 POP PUSH2 0x31C7 DUP4 DUP6 DUP5 PUSH2 0x23D9 JUMP JUMPDEST PUSH2 0x31D0 DUP4 PUSH2 0x231C JUMP JUMPDEST DUP5 ADD SWAP1 POP SWAP4 SWAP3 POP POP POP JUMP JUMPDEST PUSH1 0x0 PUSH1 0x20 DUP3 ADD SWAP1 POP DUP2 DUP2 SUB PUSH1 0x0 DUP4 ADD MSTORE PUSH2 0x31F6 DUP2 DUP5 DUP7 PUSH2 0x31AE JUMP JUMPDEST SWAP1 POP SWAP4 SWAP3 POP POP POP JUMP JUMPDEST PUSH2 0x3208 DUP2 PUSH2 0x2179 JUMP JUMPDEST DUP3 MSTORE POP POP JUMP JUMPDEST PUSH1 0x0 PUSH1 0x40 DUP3 ADD SWAP1 POP PUSH2 0x3223 PUSH1 0x0 DUP4 ADD DUP6 PUSH2 0x31FF JUMP JUMPDEST PUSH2 0x3230 PUSH1 0x20 DUP4 ADD DUP5 PUSH2 0x31FF JUMP JUMPDEST SWAP4 SWAP3 POP POP POP JUMP JUMPDEST PUSH1 0x0 PUSH1 0x60 DUP3 ADD SWAP1 POP PUSH2 0x324C PUSH1 0x0 DUP4 ADD DUP8 PUSH2 0x222D JUMP JUMPDEST DUP2 DUP2 SUB PUSH1 0x20 DUP4 ADD MSTORE PUSH2 0x325F DUP2 DUP6 DUP8 PUSH2 0x31AE JUMP JUMPDEST SWAP1 POP PUSH2 0x326E PUSH1 0x40 DUP4 ADD DUP5 PUSH2 0x222D JUMP JUMPDEST SWAP6 SWAP5 POP POP POP POP POP JUMP JUMPDEST PUSH1 0x0 PUSH1 0x40 DUP3 ADD SWAP1 POP PUSH2 0x328C PUSH1 0x0 DUP4 ADD DUP6 PUSH2 0x222D JUMP JUMPDEST PUSH2 0x3299 PUSH1 0x20 DUP4 ADD DUP5 PUSH2 0x222D JUMP JUMPDEST SWAP4 SWAP3 POP POP POP JUMP JUMPDEST PUSH32 0x4E487B7100000000000000000000000000000000000000000000000000000000 PUSH1 0x0 MSTORE PUSH1 0x32 PUSH1 0x4 MSTORE PUSH1 0x24 PUSH1 0x0 REVERT JUMPDEST PUSH32 0x4E487B7100000000000000000000000000000000000000000000000000000000 PUSH1 0x0 MSTORE PUSH1 0x11 PUSH1 0x4 MSTORE PUSH1 0x24 PUSH1 0x0 REVERT JUMPDEST PUSH1 0x0 PUSH2 0x3309 DUP3 PUSH2 0x21B7 JUMP JUMPDEST SWAP2 POP PUSH32 0xFFFFFFFFFFFFFFFFFFFFFFFFFFFFFFFFFFFFFFFFFFFFFFFFFFFFFFFFFFFFFFFF DUP3 SUB PUSH2 0x333B JUMPI PUSH2 0x333A PUSH2 0x32CF JUMP JUMPDEST JUMPDEST PUSH1 0x1 DUP3 ADD SWAP1 POP SWAP2 SWAP1 POP JUMP JUMPDEST PUSH2 0x334F DUP3 PUSH2 0x24CE JUMP JUMPDEST PUSH8 0xFFFFFFFFFFFFFFFF DUP2 GT ISZERO PUSH2 0x3368 JUMPI PUSH2 0x3367 PUSH2 0x232D JUMP JUMPDEST JUMPDEST PUSH2 0x3372 DUP3 SLOAD PUSH2 0x2EF6 JUMP JUMPDEST PUSH2 0x337D DUP3 DUP3 DUP6 PUSH2 0x3051 JUMP JUMPDEST PUSH1 0x0 PUSH1 0x20 SWAP1 POP PUSH1 0x1F DUP4 GT PUSH1 0x1 DUP2 EQ PUSH2 0x33B0 JUMPI PUSH1 0x0 DUP5 ISZERO PUSH2 0x339E JUMPI DUP3 DUP8 ADD MLOAD SWAP1 POP JUMPDEST PUSH2 0x33A8 DUP6 DUP3 PUSH2 0x30C2 JUMP JUMPDEST DUP7 SSTORE POP PUSH2 0x3410 JUMP JUMPDEST PUSH1 0x1F NOT DUP5 AND PUSH2 0x33BE DUP7 PUSH2 0x2F32 JUMP JUMPDEST PUSH1 0x0 JUMPDEST DUP3 DUP2 LT ISZERO PUSH2 0x33E6 JUMPI DUP5 DUP10 ADD MLOAD DUP3 SSTORE PUSH1 0x1 DUP3 ADD SWAP2 POP PUSH1 0x20 DUP6 ADD SWAP5 POP PUSH1 0x20 DUP2 ADD SWAP1 POP PUSH2 0x33C1 JUMP JUMPDEST DUP7 DUP4 LT ISZERO PUSH2 0x3403 JUMPI DUP5 DUP10 ADD MLOAD PUSH2 0x33FF PUSH1 0x1F DUP10 AND DUP3 PUSH2 0x30A4 JUMP JUMPDEST DUP4 SSTORE POP JUMPDEST PUSH1 0x1 PUSH1 0x2 DUP9 MUL ADD DUP9 SSTORE POP POP POP JUMPDEST POP POP POP POP POP POP JUMP JUMPDEST PUSH1 0x0 PUSH1 0x20 DUP3 ADD SWAP1 POP PUSH2 0x342D PUSH1 0x0 DUP4 ADD DUP5 PUSH2 0x31FF JUMP JUMPDEST SWAP3 SWAP2 POP POP JUMP JUMPDEST PUSH1 0x0 PUSH1 0x40 DUP3 ADD SWAP1 POP PUSH2 0x3448 PUSH1 0x0 DUP4 ADD DUP6 PUSH2 0x31FF JUMP JUMPDEST PUSH2 0x3455 PUSH1 0x20 DUP4 ADD DUP5 PUSH2 0x28B1 JUMP JUMPDEST SWAP4 SWAP3 POP POP POP JUMP JUMPDEST PUSH1 0x0 DUP2 MLOAD SWAP1 POP SWAP2 SWAP1 POP JUMP JUMPDEST PUSH1 0x0 DUP3 DUP3 MSTORE PUSH1 0x20 DUP3 ADD SWAP1 POP SWAP3 SWAP2 POP POP JUMP JUMPDEST PUSH1 0x0 PUSH2 0x3483 DUP3 PUSH2 0x345C JUMP JUMPDEST PUSH2 0x348D DUP2 DUP6 PUSH2 0x3467 JUMP JUMPDEST SWAP4 POP PUSH2 0x349D DUP2 DUP6 PUSH1 0x20 DUP7 ADD PUSH2 0x24EA JUMP JUMPDEST PUSH2 0x34A6 DUP2 PUSH2 0x231C JUMP JUMPDEST DUP5 ADD SWAP2 POP POP SWAP3 SWAP2 POP POP JUMP JUMPDEST PUSH1 0x0 PUSH1 0xA0 DUP3 ADD SWAP1 POP PUSH2 0x34C6 PUSH1 0x0 DUP4 ADD DUP9 PUSH2 0x31FF JUMP JUMPDEST PUSH2 0x34D3 PUSH1 0x20 DUP4 ADD DUP8 PUSH2 0x31FF JUMP JUMPDEST PUSH2 0x34E0 PUSH1 0x40 DUP4 ADD DUP7 PUSH2 0x222D JUMP JUMPDEST PUSH2 0x34ED PUSH1 0x60 DUP4 ADD DUP6 PUSH2 0x222D JUMP JUMPDEST DUP2 DUP2 SUB PUSH1 0x80 DUP4 ADD MSTORE PUSH2 0x34FF DUP2 DUP5 PUSH2 0x3478 JUMP JUMPDEST SWAP1 POP SWAP7 SWAP6 POP POP POP POP POP POP JUMP JUMPDEST PUSH1 0x0 DUP2 MLOAD SWAP1 POP PUSH2 0x351A DUP2 PUSH2 0x2283 JUMP JUMPDEST SWAP3 SWAP2 POP POP JUMP JUMPDEST PUSH1 0x0 PUSH1 0x20 DUP3 DUP5 SUB SLT ISZERO PUSH2 0x3536 JUMPI PUSH2 0x3535 PUSH2 0x214F JUMP JUMPDEST JUMPDEST PUSH1 0x0 PUSH2 0x3544 DUP5 DUP3 DUP6 ADD PUSH2 0x350B JUMP JUMPDEST SWAP2 POP POP SWAP3 SWAP2 POP POP JUMP JUMPDEST PUSH1 0x0 PUSH1 0xA0 DUP3 ADD SWAP1 POP PUSH2 0x3562 PUSH1 0x0 DUP4 ADD DUP9 PUSH2 0x31FF JUMP JUMPDEST PUSH2 0x356F PUSH1 0x20 DUP4 ADD DUP8 PUSH2 0x31FF JUMP JUMPDEST DUP2 DUP2 SUB PUSH1 0x40 DUP4 ADD MSTORE PUSH2 0x3581 DUP2 DUP7 PUSH2 0x2C0D JUMP JUMPDEST SWAP1 POP DUP2 DUP2 SUB PUSH1 0x60 DUP4 ADD MSTORE PUSH2 0x3595 DUP2 DUP6 PUSH2 0x2C0D JUMP JUMPDEST SWAP1 POP DUP2 DUP2 SUB PUSH1 0x80 DUP4 ADD MSTORE PUSH2 0x35A9 DUP2 DUP5 PUSH2 0x3478 JUMP JUMPDEST SWAP1 POP SWAP7 SWAP6 POP POP POP POP POP POP JUMP JUMPDEST PUSH1 0x0 PUSH1 0x80 DUP3 ADD SWAP1 POP PUSH2 0x35CA PUSH1 0x0 DUP4 ADD DUP8 PUSH2 0x31FF JUMP JUMPDEST PUSH2 0x35D7 PUSH1 0x20 DUP4 ADD DUP7 PUSH2 0x222D JUMP JUMPDEST PUSH2 0x35E4 PUSH1 0x40 DUP4 ADD DUP6 PUSH2 0x222D JUMP JUMPDEST PUSH2 0x35F1 PUSH1 0x60 DUP4 ADD DUP5 PUSH2 0x222D JUMP JUMPDEST SWAP6 SWAP5 POP POP POP POP POP JUMP JUMPDEST PUSH1 0x0 PUSH2 0x3605 DUP3 PUSH2 0x21B7 JUMP JUMPDEST SWAP2 POP PUSH2 0x3610 DUP4 PUSH2 0x21B7 JUMP JUMPDEST SWAP3 POP DUP3 DUP3 ADD SWAP1 POP DUP1 DUP3 GT ISZERO PUSH2 0x3628 JUMPI PUSH2 0x3627 PUSH2 0x32CF JUMP JUMPDEST JUMPDEST SWAP3 SWAP2 POP POP JUMP JUMPDEST PUSH1 0x0 PUSH1 0x40 DUP3 ADD SWAP1 POP DUP2 DUP2 SUB PUSH1 0x0 DUP4 ADD MSTORE PUSH2 0x3648 DUP2 DUP6 PUSH2 0x2C0D JUMP JUMPDEST SWAP1 POP DUP2 DUP2 SUB PUSH1 0x20 DUP4 ADD MSTORE PUSH2 0x365C DUP2 DUP5 PUSH2 0x2C0D JUMP JUMPDEST SWAP1 POP SWAP4 SWAP3 POP POP POP JUMP INVALID LOG2 PUSH5 0x6970667358 0x22 SLT KECCAK256 0xA6 SWAP15 SDIV ADD 0xE3 0xDB DUP11 0x5E REVERT 0xED JUMPDEST MLOAD 0xF8 0x22 0xB6 ISZERO 0xD8 0xDB LOG0 EXP LOG4 0xD8 SWAP8 CALLDATACOPY SWAP9 0xE0 MSTORE CHAINID DUP16 0xE6 0xAD 0xAF PUSH5 0x736F6C6343 STOP ADDMOD EQ STOP CALLER "},"methodIdentifiers":{"ADMIN_ROLE()":"75b238fc","BURNER_ROLE()":"282c51f3","DEFAULT_ADMIN_ROLE()":"a217fddf","MINTER_ROLE()":"d5391393","balanceOf(address,uint256)":"00fdd58e","balanceOfBatch(address[],uint256[])":"4e1273f4","forceRetire(address,uint256,uint256,string)":"376e09b4","getRoleAdmin(bytes32)":"248a9ca3","grantRole(bytes32,address)":"2f2ff15d","hasRole(bytes32,address)":"91d14854","isApprovedForAll(address,address)":"e985e9c5","mint(address,uint256,uint256,bytes)":"731133e9","mintBatch(address,uint256[],uint256[],bytes)":"1f7fdffa","pause()":"8456cb59","paused()":"5c975abb","renounceRole(bytes32,address)":"36568abe","retire(uint256,uint256,string)":"f4788ec1","revokeRole(bytes32,address)":"d547741f","safeBatchTransferFrom(address,address,uint256[],uint256[],bytes)":"2eb2c2d6","safeTransferFrom(address,address,uint256,uint256,bytes)":"f242432a","setApprovalForAll(address,bool)":"a22cb465","setTokenURI(uint256,string)":"162094c4","setURI(string)":"02fe5305","supportsInterface(bytes4)":"01ffc9a7","unpause()":"3f4ba83a","uri(uint256)":"0e89341c"}}}}}