{
  "_format": "hh-sol-artifact-1",
  "contractName": "CarbonLedgerSimple",
  "sourceName": "contracts/TestDeploy.sol",
  "abi": [
    {
      "inputs": [],
      "stateMutability": "nonpayable",
      "type": "constructor"
    },
    {
      "anonymous": false,
      "inputs": [
        {
          "indexed": false,
          "internalType": "address",
          "name": "owner",
          "type": "address"
        }
      ],
      "name": "Deployed",
      "type": "event"
    },
    {
      "inputs": [],
      "name": "getStats",
      "outputs": [
        {
          "internalType": "uint256",
          "name": "",
          "type": "uint256"
        }
      ],
      "stateMutability": "view",
      "type": "function"
    },
    {
      "inputs": [],
      "name": "owner",
      "outputs": [
        {
          "internalType": "address",
          "name": "",
          "type": "address"
        }
      ],
      "stateMutability": "view",
      "type": "function"
    },
    {
      "inputs": [],
      "name": "totalTransactions",
      "outputs": [
        {
          "internalType": "uint256",
          "name": "",
          "type": "uint256"
        }
      ],
      "stateMutability": "view",
      "type": "function"
    }
  ],
  "bytecode": "0x608060405234801561001057600080fd5b50336000806101000a81548173ffffffffffffffffffffffffffffffffffffffff021916908373ffffffffffffffffffffffffffffffffffffffff16021790555060006001819055507ff40fcec21964ffb566044d083b4073f29f7f7929110ea19e1b3ebe375d89055e60008054906101000a900473ffffffffffffffffffffffffffffffffffffffff166040516100a891906100f6565b60405180910390a1610111565b600073ffffffffffffffffffffffffffffffffffffffff82169050919050565b60006100e0826100b5565b9050919050565b6100f0816100d5565b82525050565b600060208201905061010b60008301846100e7565b92915050565b61019a806101206000396000f3fe608060405234801561001057600080fd5b50600436106100415760003560e01c80638da5cb5b14610046578063b9a6003814610064578063c59d484714610082575b600080fd5b61004e6100a0565b60405161005b9190610115565b60405180910390f35b61006c6100c4565b6040516100799190610149565b60405180910390f35b61008a6100ca565b6040516100979190610149565b60405180910390f35b60008054906101000a900473ffffffffffffffffffffffffffffffffffffffff1681565b60015481565b6000600154905090565b600073ffffffffffffffffffffffffffffffffffffffff82169050919050565b60006100ff826100d4565b9050919050565b61010f816100f4565b82525050565b600060208201905061012a6000830184610106565b92915050565b6000819050919050565b61014381610130565b82525050565b600060208201905061015e600083018461013a565b9291505056fea2646970667358221220beaec9125f59d41ec5d93c16dedcfcf909c03d6404bd4d9afe8be2f9e52ed05b64736f6c63430008140033",
  "linkReferences": {},
  "deployedLinkReferences": {}
}