{
  "_format": "hh-sol-artifact-1",
  "contractName": "CarbonLedger",
  "sourceName": "contracts/CarbonLedger.sol",
  "abi": [
    {
      "inputs": [],
      "stateMutability": "nonpayable",
      "type": "constructor"
    },
    {
      "anonymous": false,
      "inputs": [
        {
          "indexed": false,
          "internalType": "address",
          "name": "owner",
          "type": "address"
        },
        {
          "indexed": false,
          "internalType": "uint256",
          "name": "timestamp",
          "type": "uint256"
        }
      ],
      "name": "ContractDeployed",
      "type": "event"
    },
    {
      "anonymous": false,
      "inputs": [
        {
          "indexed": true,
          "internalType": "uint256",
          "name": "transactionIndex",
          "type": "uint256"
        },
        {
          "indexed": true,
          "internalType": "address",
          "name": "buyer",
          "type": "address"
        },
        {
          "indexed": true,
          "internalType": "address",
          "name": "seller",
          "type": "address"
        },
        {
          "indexed": false,
          "internalType": "uint256",
          "name": "credits",
          "type": "uint256"
        },
        {
          "indexed": false,
          "internalType": "string",
          "name": "projectId",
          "type": "string"
        },
        {
          "indexed": false,
          "internalType": "string",
          "name": "registry",
          "type": "string"
        },
        {
          "indexed": false,
          "internalType": "string",
          "name": "certificateUrl",
          "type": "string"
        },
        {
          "indexed": false,
          "internalType": "uint256",
          "name": "priceUsd",
          "type": "uint256"
        },
        {
          "indexed": false,
          "internalType": "uint256",
          "name": "timestamp",
          "type": "uint256"
        }
      ],
      "name": "TransactionRecorded",
      "type": "event"
    },
    {
      "inputs": [
        {
          "internalType": "address",
          "name": "",
          "type": "address"
        },
        {
          "internalType": "uint256",
          "name": "",
          "type": "uint256"
        }
      ],
      "name": "buyerTransactions",
      "outputs": [
        {
          "internalType": "uint256",
          "name": "",
          "type": "uint256"
        }
      ],
      "stateMutability": "view",
      "type": "function"
    },
    {
      "inputs": [],
      "name": "emergencyPause",
      "outputs": [],
      "stateMutability": "nonpayable",
      "type": "function"
    },
    {
      "inputs": [
        {
          "internalType": "address",
          "name": "buyer",
          "type": "address"
        }
      ],
      "name": "getBuyerTransactions",
      "outputs": [
        {
          "internalType": "uint256[]",
          "name": "",
          "type": "uint256[]"
        }
      ],
      "stateMutability": "view",
      "type": "function"
    },
    {
      "inputs": [],
      "name": "getContractStats",
      "outputs": [
        {
          "internalType": "uint256",
          "name": "totalTx",
          "type": "uint256"
        },
        {
          "internalType": "uint256",
          "name": "totalCredits",
          "type": "uint256"
        }
      ],
      "stateMutability": "view",
      "type": "function"
    },
    {
      "inputs": [
        {
          "internalType": "address",
          "name": "seller",
          "type": "address"
        }
      ],
      "name": "getSellerTransactions",
      "outputs": [
        {
          "internalType": "uint256[]",
          "name": "",
          "type": "uint256[]"
        }
      ],
      "stateMutability": "view",
      "type": "function"
    },
    {
      "inputs": [],
      "name": "getTotalTransactions",
      "outputs": [
        {
          "internalType": "uint256",
          "name": "",
          "type": "uint256"
        }
      ],
      "stateMutability": "view",
      "type": "function"
    },
    {
      "inputs": [
        {
          "internalType": "uint256",
          "name": "index",
          "type": "uint256"
        }
      ],
      "name": "getTransaction",
      "outputs": [
        {
          "components": [
            {
              "internalType": "address",
              "name": "buyer",
              "type": "address"
            },
            {
              "internalType": "address",
              "name": "seller",
              "type": "address"
            },
            {
              "internalType": "uint256",
              "name": "credits",
              "type": "uint256"
            },
            {
              "internalType": "uint256",
              "name": "timestamp",
              "type": "uint256"
            },
            {
              "internalType": "string",
              "name": "projectId",
              "type": "string"
            },
            {
              "internalType": "string",
              "name": "registry",
              "type": "string"
            },
            {
              "internalType": "string",
              "name": "certificateUrl",
              "type": "string"
            },
            {
              "internalType": "uint256",
              "name": "priceUsd",
              "type": "uint256"
            }
          ],
          "internalType": "struct CarbonLedger.Transaction",
          "name": "",
          "type": "tuple"
        }
      ],
      "stateMutability": "view",
      "type": "function"
    },
    {
      "inputs": [],
      "name": "owner",
      "outputs": [
        {
          "internalType": "address",
          "name": "",
          "type": "address"
        }
      ],
      "stateMutability": "view",
      "type": "function"
    },
    {
      "inputs": [
        {
          "internalType": "address",
          "name": "_buyer",
          "type": "address"
        },
        {
          "internalType": "address",
          "name": "_seller",
          "type": "address"
        },
        {
          "internalType": "uint256",
          "name": "_credits",
          "type": "uint256"
        },
        {
          "internalType": "string",
          "name": "_projectId",
          "type": "string"
        },
        {
          "internalType": "string",
          "name": "_registry",
          "type": "string"
        },
        {
          "internalType": "string",
          "name": "_certificateUrl",
          "type": "string"
        },
        {
          "internalType": "uint256",
          "name": "_priceUsd",
          "type": "uint256"
        }
      ],
      "name": "recordTransaction",
      "outputs": [
        {
          "internalType": "uint256",
          "name": "",
          "type": "uint256"
        }
      ],
      "stateMutability": "nonpayable",
      "type": "function"
    },
    {
      "inputs": [
        {
          "internalType": "address",
          "name": "",
          "type": "address"
        },
        {
          "internalType": "uint256",
          "name": "",
          "type": "uint256"
        }
      ],
      "name": "sellerTransactions",
      "outputs": [
        {
          "internalType": "uint256",
          "name": "",
          "type": "uint256"
        }
      ],
      "stateMutability": "view",
      "type": "function"
    },
    {
      "inputs": [],
      "name": "totalCreditsTraded",
      "outputs": [
        {
          "internalType": "uint256",
          "name": "",
          "type": "uint256"
        }
      ],
      "stateMutability": "view",
      "type": "function"
    },
    {
      "inputs": [
        {
          "internalType": "uint256",
          "name": "",
          "type": "uint256"
        }
      ],
      "name": "transactions",
      "outputs": [
        {
          "internalType": "address",
          "name": "buyer",
          "type": "address"
        },
        {
          "internalType": "address",
          "name": "seller",
          "type": "address"
        },
        {
          "internalType": "uint256",
          "name": "credits",
          "type": "uint256"
        },
        {
          "internalType": "uint256",
          "name": "timestamp",
          "type": "uint256"
        },
        {
          "internalType": "string",
          "name": "projectId",
          "type": "string"
        },
        {
          "internalType": "string",
          "name": "registry",
          "type": "string"
        },
        {
          "internalType": "string",
          "name": "certificateUrl",
          "type": "string"
        },
        {
          "internalType": "uint256",
          "name": "priceUsd",
          "type": "uint256"
        }
      ],
      "stateMutability": "view",
      "type": "function"
    }
  ],
  "bytecode": "0x60806040523480156200001157600080fd5b5033600360006101000a81548173ffffffffffffffffffffffffffffffffffffffff021916908373ffffffffffffffffffffffffffffffffffffffff1602179055507f836641082a104c21a747f2896a189cda6d34502edf7de2f98afc4460d0720bfa600360009054906101000a900473ffffffffffffffffffffffffffffffffffffffff1642604051620000a892919062000116565b60405180910390a162000143565b600073ffffffffffffffffffffffffffffffffffffffff82169050919050565b6000620000e382620000b6565b9050919050565b620000f581620000d6565b82525050565b6000819050919050565b6200011081620000fb565b82525050565b60006040820190506200012d6000830185620000ea565b6200013c602083018462000105565b9392505050565b611dc680620001536000396000f3fe608060405234801561001057600080fd5b50600436106100b45760003560e01c806394d4e9c51161007157806394d4e9c5146101a15780639ace38c2146101bf578063ace879c5146101f6578063b5c604ff14610226578063d0b673b414610244578063dfe6b5d614610274576100b4565b806333ea3dc8146100b95780633acbfb2b146100e957806341c6fd0d146101195780634a08613f1461014957806351858e27146101795780638da5cb5b14610183575b600080fd5b6100d360048036038101906100ce9190610f8e565b610293565b6040516100e09190611159565b60405180910390f35b61010360048036038101906100fe91906112dc565b610597565b60405161011091906113e1565b60405180910390f35b610133600480360381019061012e91906113fc565b610a35565b60405161014091906113e1565b60405180910390f35b610163600480360381019061015e91906113fc565b610a66565b60405161017091906113e1565b60405180910390f35b610181610a97565b005b61018b610b29565b604051610198919061144b565b60405180910390f35b6101a9610b4f565b6040516101b691906113e1565b60405180910390f35b6101d960048036038101906101d49190610f8e565b610b55565b6040516101ed9897969594939291906114b0565b60405180910390f35b610210600480360381019061020b9190611543565b610d85565b60405161021d919061161f565b60405180910390f35b61022e610e1c565b60405161023b91906113e1565b60405180910390f35b61025e60048036038101906102599190611543565b610e28565b60405161026b919061161f565b60405180910390f35b61027c610ebf565b60405161028a929190611641565b60405180910390f35b61029b610ed3565b60008054905082106102e2576040517f08c379a00000000000000000000000000000000000000000000000000000000081526004016102d9906116b6565b60405180910390fd5b600082815481106102f6576102f56116d6565b5b9060005260206000209060080201604051806101000160405290816000820160009054906101000a900473ffffffffffffffffffffffffffffffffffffffff1673ffffffffffffffffffffffffffffffffffffffff1673ffffffffffffffffffffffffffffffffffffffff1681526020016001820160009054906101000a900473ffffffffffffffffffffffffffffffffffffffff1673ffffffffffffffffffffffffffffffffffffffff1673ffffffffffffffffffffffffffffffffffffffff16815260200160028201548152602001600382015481526020016004820180546103e090611734565b80601f016020809104026020016040519081016040528092919081815260200182805461040c90611734565b80156104595780601f1061042e57610100808354040283529160200191610459565b820191906000526020600020905b81548152906001019060200180831161043c57829003601f168201915b5050505050815260200160058201805461047290611734565b80601f016020809104026020016040519081016040528092919081815260200182805461049e90611734565b80156104eb5780601f106104c0576101008083540402835291602001916104eb565b820191906000526020600020905b8154815290600101906020018083116104ce57829003601f168201915b5050505050815260200160068201805461050490611734565b80601f016020809104026020016040519081016040528092919081815260200182805461053090611734565b801561057d5780601f106105525761010080835404028352916020019161057d565b820191906000526020600020905b81548152906001019060200180831161056057829003601f168201915b505050505081526020016007820154815250509050919050565b60008073ffffffffffffffffffffffffffffffffffffffff168873ffffffffffffffffffffffffffffffffffffffff1603610607576040517f08c379a00000000000000000000000000000000000000000000000000000000081526004016105fe906117b1565b60405180910390fd5b600073ffffffffffffffffffffffffffffffffffffffff168773ffffffffffffffffffffffffffffffffffffffff1603610676576040517f08c379a000000000000000000000000000000000000000000000000000000000815260040161066d9061181d565b60405180910390fd5b600086116106b9576040517f08c379a00000000000000000000000000000000000000000000000000000000081526004016106b0906118af565b60405180910390fd5b60008551116106fd576040517f08c379a00000000000000000000000000000000000000000000000000000000081526004016106f49061191b565b60405180910390fd5b6000845111610741576040517f08c379a000000000000000000000000000000000000000000000000000000000815260040161073890611987565b60405180910390fd5b60006040518061010001604052808a73ffffffffffffffffffffffffffffffffffffffff1681526020018973ffffffffffffffffffffffffffffffffffffffff168152602001888152602001428152602001878152602001868152602001858152602001848152509050600080805490509050600082908060018154018082558091505060019003906000526020600020906008020160009091909190915060008201518160000160006101000a81548173ffffffffffffffffffffffffffffffffffffffff021916908373ffffffffffffffffffffffffffffffffffffffff16021790555060208201518160010160006101000a81548173ffffffffffffffffffffffffffffffffffffffff021916908373ffffffffffffffffffffffffffffffffffffffff160217905550604082015181600201556060820151816003015560808201518160040190816108979190611b53565b5060a08201518160050190816108ad9190611b53565b5060c08201518160060190816108c39190611b53565b5060e082015181600701555050600160008b73ffffffffffffffffffffffffffffffffffffffff1673ffffffffffffffffffffffffffffffffffffffff168152602001908152602001600020819080600181540180825580915050600190039060005260206000200160009091909190915055600260008a73ffffffffffffffffffffffffffffffffffffffff1673ffffffffffffffffffffffffffffffffffffffff16815260200190815260200160002081908060018154018082558091505060019003906000526020600020016000909190919091505587600460008282546109ae9190611c54565b925050819055508873ffffffffffffffffffffffffffffffffffffffff168a73ffffffffffffffffffffffffffffffffffffffff16827fda4adc1b3373523144b9821f47a4df457cb996224133ecf83209b495872c115f8b8b8b8b8b42604051610a1d96959493929190611c88565b60405180910390a48092505050979650505050505050565b60016020528160005260406000208181548110610a5157600080fd5b90600052602060002001600091509150505481565b60026020528160005260406000208181548110610a8257600080fd5b90600052602060002001600091509150505481565b600360009054906101000a900473ffffffffffffffffffffffffffffffffffffffff1673ffffffffffffffffffffffffffffffffffffffff163373ffffffffffffffffffffffffffffffffffffffff1614610b27576040517f08c379a0000000000000000000000000000000000000000000000000000000008152600401610b1e90611d70565b60405180910390fd5b565b600360009054906101000a900473ffffffffffffffffffffffffffffffffffffffff1681565b60045481565b60008181548110610b6557600080fd5b90600052602060002090600802016000915090508060000160009054906101000a900473ffffffffffffffffffffffffffffffffffffffff16908060010160009054906101000a900473ffffffffffffffffffffffffffffffffffffffff1690806002015490806003015490806004018054610be090611734565b80601f0160208091040260200160405190810160405280929190818152602001828054610c0c90611734565b8015610c595780601f10610c2e57610100808354040283529160200191610c59565b820191906000526020600020905b815481529060010190602001808311610c3c57829003601f168201915b505050505090806005018054610c6e90611734565b80601f0160208091040260200160405190810160405280929190818152602001828054610c9a90611734565b8015610ce75780601f10610cbc57610100808354040283529160200191610ce7565b820191906000526020600020905b815481529060010190602001808311610cca57829003601f168201915b505050505090806006018054610cfc90611734565b80601f0160208091040260200160405190810160405280929190818152602001828054610d2890611734565b8015610d755780601f10610d4a57610100808354040283529160200191610d75565b820191906000526020600020905b815481529060010190602001808311610d5857829003601f168201915b5050505050908060070154905088565b6060600260008373ffffffffffffffffffffffffffffffffffffffff1673ffffffffffffffffffffffffffffffffffffffff168152602001908152602001600020805480602002602001604051908101604052809291908181526020018280548015610e1057602002820191906000526020600020905b815481526020019060010190808311610dfc575b50505050509050919050565b60008080549050905090565b6060600160008373ffffffffffffffffffffffffffffffffffffffff1673ffffffffffffffffffffffffffffffffffffffff168152602001908152602001600020805480602002602001604051908101604052809291908181526020018280548015610eb357602002820191906000526020600020905b815481526020019060010190808311610e9f575b50505050509050919050565b600080600080549050600454915091509091565b604051806101000160405280600073ffffffffffffffffffffffffffffffffffffffff168152602001600073ffffffffffffffffffffffffffffffffffffffff1681526020016000815260200160008152602001606081526020016060815260200160608152602001600081525090565b6000604051905090565b600080fd5b600080fd5b6000819050919050565b610f6b81610f58565b8114610f7657600080fd5b50565b600081359050610f8881610f62565b92915050565b600060208284031215610fa457610fa3610f4e565b5b6000610fb284828501610f79565b91505092915050565b600073ffffffffffffffffffffffffffffffffffffffff82169050919050565b6000610fe682610fbb565b9050919050565b610ff681610fdb565b82525050565b61100581610f58565b82525050565b600081519050919050565b600082825260208201905092915050565b60005b8381101561104557808201518184015260208101905061102a565b60008484015250505050565b6000601f19601f8301169050919050565b600061106d8261100b565b6110778185611016565b9350611087818560208601611027565b61109081611051565b840191505092915050565b6000610100830160008301516110b46000860182610fed565b5060208301516110c76020860182610fed565b5060408301516110da6040860182610ffc565b5060608301516110ed6060860182610ffc565b50608083015184820360808601526111058282611062565b91505060a083015184820360a086015261111f8282611062565b91505060c083015184820360c08601526111398282611062565b91505060e083015161114e60e0860182610ffc565b508091505092915050565b60006020820190508181036000830152611173818461109b565b905092915050565b61118481610fdb565b811461118f57600080fd5b50565b6000813590506111a18161117b565b92915050565b600080fd5b600080fd5b7f4e487b7100000000000000000000000000000000000000000000000000000000600052604160045260246000fd5b6111e982611051565b810181811067ffffffffffffffff82111715611208576112076111b1565b5b80604052505050565b600061121b610f44565b905061122782826111e0565b919050565b600067ffffffffffffffff821115611247576112466111b1565b5b61125082611051565b9050602081019050919050565b82818337600083830152505050565b600061127f61127a8461122c565b611211565b90508281526020810184848401111561129b5761129a6111ac565b5b6112a684828561125d565b509392505050565b600082601f8301126112c3576112c26111a7565b5b81356112d384826020860161126c565b91505092915050565b600080600080600080600060e0888a0312156112fb576112fa610f4e565b5b60006113098a828b01611192565b975050602061131a8a828b01611192565b965050604061132b8a828b01610f79565b955050606088013567ffffffffffffffff81111561134c5761134b610f53565b5b6113588a828b016112ae565b945050608088013567ffffffffffffffff81111561137957611378610f53565b5b6113858a828b016112ae565b93505060a088013567ffffffffffffffff8111156113a6576113a5610f53565b5b6113b28a828b016112ae565b92505060c06113c38a828b01610f79565b91505092959891949750929550565b6113db81610f58565b82525050565b60006020820190506113f660008301846113d2565b92915050565b6000806040838503121561141357611412610f4e565b5b600061142185828601611192565b925050602061143285828601610f79565b9150509250929050565b61144581610fdb565b82525050565b6000602082019050611460600083018461143c565b92915050565b600082825260208201905092915050565b60006114828261100b565b61148c8185611466565b935061149c818560208601611027565b6114a581611051565b840191505092915050565b6000610100820190506114c6600083018b61143c565b6114d3602083018a61143c565b6114e060408301896113d2565b6114ed60608301886113d2565b81810360808301526114ff8187611477565b905081810360a08301526115138186611477565b905081810360c08301526115278185611477565b905061153660e08301846113d2565b9998505050505050505050565b60006020828403121561155957611558610f4e565b5b600061156784828501611192565b91505092915050565b600081519050919050565b600082825260208201905092915050565b6000819050602082019050919050565b60006115a88383610ffc565b60208301905092915050565b6000602082019050919050565b60006115cc82611570565b6115d6818561157b565b93506115e18361158c565b8060005b838110156116125781516115f9888261159c565b9750611604836115b4565b9250506001810190506115e5565b5085935050505092915050565b6000602082019050818103600083015261163981846115c1565b905092915050565b600060408201905061165660008301856113d2565b61166360208301846113d2565b9392505050565b7f5472616e73616374696f6e20696e646578206f7574206f6620626f756e647300600082015250565b60006116a0601f83611466565b91506116ab8261166a565b602082019050919050565b600060208201905081810360008301526116cf81611693565b9050919050565b7f4e487b7100000000000000000000000000000000000000000000000000000000600052603260045260246000fd5b7f4e487b7100000000000000000000000000000000000000000000000000000000600052602260045260246000fd5b6000600282049050600182168061174c57607f821691505b60208210810361175f5761175e611705565b5b50919050565b7f427579657220616464726573732063616e6e6f74206265207a65726f00000000600082015250565b600061179b601c83611466565b91506117a682611765565b602082019050919050565b600060208201905081810360008301526117ca8161178e565b9050919050565b7f53656c6c657220616464726573732063616e6e6f74206265207a65726f000000600082015250565b6000611807601d83611466565b9150611812826117d1565b602082019050919050565b60006020820190508181036000830152611836816117fa565b9050919050565b7f43726564697473206d7573742062652067726561746572207468616e207a657260008201527f6f00000000000000000000000000000000000000000000000000000000000000602082015250565b6000611899602183611466565b91506118a48261183d565b604082019050919050565b600060208201905081810360008301526118c88161188c565b9050919050565b7f50726f6a6563742049442063616e6e6f7420626520656d707479000000000000600082015250565b6000611905601a83611466565b9150611910826118cf565b602082019050919050565b60006020820190508181036000830152611934816118f8565b9050919050565b7f52656769737472792063616e6e6f7420626520656d7074790000000000000000600082015250565b6000611971601883611466565b915061197c8261193b565b602082019050919050565b600060208201905081810360008301526119a081611964565b9050919050565b60008190508160005260206000209050919050565b60006020601f8301049050919050565b600082821b905092915050565b600060088302611a097fffffffffffffffffffffffffffffffffffffffffffffffffffffffffffffffff826119cc565b611a1386836119cc565b95508019841693508086168417925050509392505050565b6000819050919050565b6000611a50611a4b611a4684610f58565b611a2b565b610f58565b9050919050565b6000819050919050565b611a6a83611a35565b611a7e611a7682611a57565b8484546119d9565b825550505050565b600090565b611a93611a86565b611a9e818484611a61565b505050565b5b81811015611ac257611ab7600082611a8b565b600181019050611aa4565b5050565b601f821115611b0757611ad8816119a7565b611ae1846119bc565b81016020851015611af0578190505b611b04611afc856119bc565b830182611aa3565b50505b505050565b600082821c905092915050565b6000611b2a60001984600802611b0c565b1980831691505092915050565b6000611b438383611b19565b9150826002028217905092915050565b611b5c8261100b565b67ffffffffffffffff811115611b7557611b746111b1565b5b611b7f8254611734565b611b8a828285611ac6565b600060209050601f831160018114611bbd5760008415611bab578287015190505b611bb58582611b37565b865550611c1d565b601f198416611bcb866119a7565b60005b82811015611bf357848901518255600182019150602085019450602081019050611bce565b86831015611c105784890151611c0c601f891682611b19565b8355505b6001600288020188555050505b505050505050565b7f4e487b7100000000000000000000000000000000000000000000000000000000600052601160045260246000fd5b6000611c5f82610f58565b9150611c6a83610f58565b9250828201905080821115611c8257611c81611c25565b5b92915050565b600060c082019050611c9d60008301896113d2565b8181036020830152611caf8188611477565b90508181036040830152611cc38187611477565b90508181036060830152611cd78186611477565b9050611ce660808301856113d2565b611cf360a08301846113d2565b979650505050505050565b7f4f6e6c7920636f6e7472616374206f776e65722063616e2063616c6c2074686960008201527f732066756e6374696f6e00000000000000000000000000000000000000000000602082015250565b6000611d5a602a83611466565b9150611d6582611cfe565b604082019050919050565b60006020820190508181036000830152611d8981611d4d565b905091905056fea26469706673582212204727f86ea7c29fb7eccc124fe862e9bf5b153f6b465ef1210eba3551a2df461364736f6c63430008140033",
  "linkReferences": {},
  "deployedLinkReferences": {}
}